:100000000C94F6030C94BD2F0C94EE2F0C941F301F
:100010000C9450300C9481300C94B2300C94E3303A
:100020000C9414310C9400210C9428210C94502130
:100030000C9427040C944E2D0C9427040C94270444
:100040000C9427040C94601E0C9427040C94270431
:100050000C9427040C9427040C9427040C94453129
:100060000C9427040C94EB260C94DB270C942704A7
:100070000C9427040C9427040C9427040C94270454
:100080000C948E1E0C9427040C9427040C942704C3
:100090000C941F270C941A280C9427040C94F0221B
:1000A0000C9427040C9427040C94BC1E0C94270475
:1000B0000C9427040C9427040C9427040C94EA1E37
:1000C0000C9427040C9427040C9427040C945327B5
:1000D0000C9459280C9427040C9487270C94982886
:1000E0000C9427046D098209B609BD09C809C8091D
:1000F000C809C8092E0A310A923297329C32A632B8
:100100001F33B032B832C032CA32D432DE32ED32AE
:10011000F7321F3301330B3315333D334033333361
:1001200037337733443348334E33523356335C33AB
:100130006033643377336A336E3372336E65617460
:100140006F005350006C6174656E637900006865E0
:10015000617274626561740000626D730000616EAB
:10016000616C6F6700500070776D0050006E656FB6
:10017000706978656C00504300736572766F00504B
:1001800000626164204D6567612073657269616C0E
:1001900020003A20002073656E736F7220003220B9
:1001A000696E6465782000616E616C6F6720696EAE
:1001B0007075742076616C75652066726F6D203085
:1001C00020746F203130323300737472656E67743F
:1001D000682066726F6D203020286F666629207453
:1001E0006F2032353520286F6E29006261642069E6
:1001F0006E74003A200020636F6D6D616E642000A4
:100200003320696E64657820006261642070696ED5
:10021000200062616420616E616C6F672070696E9E
:100220002000636F6D6D616E646564206F72696537
:100230006E746174696F6E20696E206465677265A3
:1002400065730063726561746532005300736162A7
:100250006572746F6F746832005300736162657207
:10026000746F6F74683100530062747300505050A3
:1002700050003920456E74657220796F7572207454
:100280006162756C6120646576696365206E616D7D
:100290006573206E6F773A0027207768696C652058
:1002A000636F6E6669677572696E6720002027004C
:1002B00030204552524F523A200062616420636FF1
:1002C0006D6D616E64006C6F6F7021007265736597
:1002D000742100417267756D656E7420666F726D72
:1002E00061743A20532069732061205365726961FB
:1002F0006C20706F72742C206C696B6520583320F1
:10030000666F72205458332F5258332E20205020BD
:10031000697320612050696E2C206C696B652070B8
:10032000696E2031332C206F722041332E005468C7
:10033000697320697320686F7720796F7520636F08
:100340006E66696775726520796F75722041726497
:1003500075696E6F2061742072756E74696D652E9B
:1003600020205265676973746572656420646576E0
:10037000696365733A006C6973740020627974650F
:100380007320667265650072616D3F0020746F2096
:1003900076616C75652000312020736574203136DC
:1003A0002062697420636F6D6D616E6420696E6494
:1003B00065782000636D6431360020746F207661AB
:1003C0006C7565200031202073657420636F6D6D3E
:1003D000616E6420696E6465782000636D6400312D
:1003E000202000636F6D6D616E64733F00312020CB
:1003F0000073656E736F72733F0031203230313598
:100400002D30372D3033204368756769616B007676
:10041000657273696F6E3F0073657269616C5F63CB
:100420006F6E74726F6C6C6572003120416464652C
:10043000642064657669636520004578706563743F
:100440006564200073657269616C5F636F6E7472BE
:100450006F6C6C65720000020000090A02080B0C48
:100460000D0706030401000000000000000000006A
:10047000000000000000000000000000000000007C
:100480000000000011100F0000000000000000003C
:100490000000000000000000000000000000010259
:1004A0001020200808102040102040800201020186
:1004B000080402010102040810204080804020103E
:1004C0000804020180040201804020100804020197
:1004D00008040201010204081020408001020408FF
:1004E00010204080050505050705080808080202D8
:1004F00002020A0A080804040404010101010101BE
:1005000001010303030303030303040707070C0CA0
:100510000C0C0C0C0C0C0202020206060606060667
:1005200006060B0B0B0B0B0B0B0B00002200250020
:1005300028002B002E0031003400020100000501CC
:1005400008010B0100002100240027002A002D00D3
:100550003000330001010000040107010A010C947E
:10056000220D0C9448330C94A90E0C9493210C94F6
:1005700078210C94F7320C9431050C949C320C9435
:10058000510F0C9407060C94470C0C94F3040C9434
:10059000F9040C947D040C9482090C94DE0F0C94E5
:1005A00028220C948B050C94320F0C94820F0C941F
:1005B00002130C9471130C9443050C9467260C944D
:1005C000430E0C9456330C94F00E0C94D0210C94E2
:1005D00040330C9444330C94E20C0C94580F0C945C
:1005E0001A0F0C941B1D0C9419050C9494260C9452
:1005F0002B050C94C3050C948A0C0C9468050C9480
:10060000BC050C9425050C94BC2F0C943D050C9452
:10061000B5050C94D3080C9458290C946A330C94A7
:100620003A260C9449050C9435040C944C260C94F1
:1006300029040C9433330C94A0050C945F0F0C9494
:1006400061050C945B050C94AC0C0C94A6320C94D4
:1006500080210C94C0320C94450E0C942E0A0C94FC
:10066000DE320C945B1B0C944E330C94BE060C943F
:10067000700D0C946D0F0C9489260C94B6060C9496
:10068000451B0C94BA270C94ED320C9491110C94E8
:100690001C120C941B1B0C9407050C94CA050C949B
:1006A00015330C94651B0C9464330C9484050C94E2
:1006B000890F0C94740F0C94CC0E0C9452330C9440
:1006C0008D0E0C946C100C94260F0C942A060C942E
:1006D0004A0F0C948E2A0C9418060C942C0F0C9430
:1006E00013050C947B0F0C940B330C94151B0C947A
:1006F00092320C9401330C94CA320C94200F0C9457
:10070000440F0C94A3210C94D72A0C946E1D0C94C6
:10071000B0320C94380F0C941B0B0C94660F0C9495
:10072000F1040C9476050C9401050C9477330C9429
:10073000AF0E0C94B6090C94D4320C941F050C9493
:100740003E0F0C944F050C942F040C946E330C94B4
:10075000C3120C94BD090C94B5070C94D1050C94EC
:10076000B8320C941F330C9437050C94C82A0C949F
:10077000C8090C945C330C94310A0C949D1D0C94A4
:10078000E8050C9499050C947D050C940D050C94CA
:10079000E8040C9455050C94A7050C946D090C9471
:1007A000D8050C946F050C9472330C943D330C9463
:1007B00097320C943C040C942E080C9492050C94E3
:1007C000AE050C94A2210C9460330C948E060C940C
:1007D000E8110C943733E804700D02136E1D2822C3
:1007E0005829C82AF104430E71139D1D11241FBE00
:1007F000CFEFD1E2DEBFCDBF00E00CBF13E0A0E041
:10080000B2E0E6EFFEE600E00BBF02C007900D92FB
:10081000A03FB107D9F718E0A0EFB3E001C01D92E7
:10082000AE3DB107E1F717E0C4EED7E000E006C047
:1008300022970109FE010BBF0E948C34C63DD107EF
:1008400080E00807A9F70E94AB2F0C9469370C943D
:10085000000020E132E0FC0131832083089520E193
:1008600032E0FC0131832083089520E132E0FC0175
:10087000318320830C94BA2F20E132E0FC013183D4
:1008800020830C94BA2F0F931F93CF93DF93CCEF59
:10089000D3E0BA91AA91109781F012960C91129719
:1008A00013961C911397ED91FC9111970280F3819F
:1008B000E02DCD011995D801EECF1982188283E081
:1008C000C03FD80731F7DF91CF911F910F91089565
:1008D000CF93DF93FC01C081D181209759F0E8814B
:1008E000F9810480F581E02DCE0119950A80DB8124
:1008F000C02DF3CFDF91CF910895CF93DF93EC011B
:100900008091FC039091FD032E813F81821B930B0C
:100910002C813D818217930750F0888599850E942C
:1009200068048091FC039091FD039F838E83DF9187
:10093000CF910895DF92EF92FF920F931F93CF9381
:10094000DF93C0E0D0E001E010E08AE1E82E82E031
:10095000F82E9AE0D92E8AE090E00E94B82FFC0190
:10096000F182E0821583048317821682CE018E50B5
:100970009C4F918780878091F0039091F10393833E
:100980008283F093F103E093F003C801D89E8001C5
:10099000D99E100D11242296CA30D105E1F6DF91BF
:1009A000CF911F910F91FF90EF90DF9008950E94DB
:1009B0009B312AE096958795779567952A95D1F78B
:1009C0007093FD036093FC0380EF93E00C94680444
:1009D000E0EFF3E01192119283E0EC3FF807D1F7DA
:1009E00008950C94430422E332E0FC013183208318
:1009F0000895DC011496ED91FC91159715821482EF
:100A0000089522E332E0FC0131832083089520E140
:100A100032E0FC0131832083089522E332E0FC01BF
:100A200031832083089520E132E0FC01318320836B
:100A3000089520E132E0FC0131832083089522E310
:100A400032E0FC0131832083089520E132E0FC0193
:100A500031832083089522E332E0FC013183208337
:100A6000089520E132E0FC0131832083089522E3E0
:100A700032E0FC0131832083089520E132E0FC0163
:100A800031832083089522E332E0FC013183208307
:100A9000089520E132E0FC0131832083089522E3B0
:100AA00032E0FC0131832083089522E332E0FC012F
:100AB00031832083089520E132E0FC0131832083DB
:100AC000089522E332E0FC01318320830C94BA2F95
:100AD00022E332E0FC01318320830C94BA2F20E121
:100AE00032E0FC01318320830C94BA2F22E332E000
:100AF000FC01318320830C94BA2F20E132E0FC0109
:100B0000318320830C94BA2F20E132E0FC01318341
:100B100020830C94BA2F22E332E0FC01318320833E
:100B20000C94BA2F20E132E0FC01318320830C9435
:100B3000BA2F22E332E0FC01318320830C94BA2FD8
:100B400020E132E0FC01318320830C94BA2F22E3B0
:100B500032E0FC01318320830C94BA2F20E132E093
:100B6000FC01318320830C94BA2F22E332E0FC0194
:100B7000318320830C94BA2F20E132E0FC013183D1
:100B800020830C94BA2F22E332E0FC0131832083CE
:100B90000C94BA2F22E332E0FC01318320830C94C1
:100BA000BA2F20E132E0FC01318320830C94BA2F6C
:100BB000E0916A04F0916B04DC0117962D913C9151
:100BC0001897E20FF31F608170E004960C942C20BC
:100BD0000F931F93CF93DF93C0E0D0E08C010C5FA5
:100BE0001F4F4FEF60E080E00E9431269B01AC0177
:100BF000BE01C8010E94CC252196CA30D10589F7D3
:100C0000C801DF91CF911F910F910C94B024E09116
:100C10006A04F0916B04DC0116962D913C911797B4
:100C2000E20FF31F608170E014968C910C946C328B
:100C3000CF93DF93EC0180E592E099838883CE0126
:100C400004960E94212480E192E099838883DF91B9
:100C5000CF910895CF93DF93EC010E941806CE0147
:100C6000DF91CF910C94BA2FCF92DF92EF92FF9247
:100C70000F931F93CF93DF93EC017B018A016901EE
:100C800060E072E0888199810E94152B4AE050E073
:100C9000B601888199810E94652C66EF71E0888198
:100CA00099810E94152BB701888199810E946F2B31
:100CB00063EF71E0888199810E94152BB8018881CA
:100CC0009981DF91CF911F910F91FF90EF90DF906D
:100CD000CF900C948C2B82E392E09093FF0380934F
:100CE000FE03909307048093060490930F0480936F
:100CF0000E04909317048093160490931F0480931E
:100D00001E04909327048093260490932F048093CD
:100D10002E0490933704809336040895CF93DF9385
:100D2000EC018C810E944732E0916E04F0916F04D7
:100D30002E813F81E20FF31F91838083DF91CF915A
:100D40000895E0916E04F0916F04DC012D913C91C7
:100D50001197E20FF31F6083E0916E04F0916F042E
:100D60008D919C91E80FF91F80810895FC016481A9
:100D700021E0260F248305960C94A106CF93DF93E0
:100D8000EC010E949B312AE09695879577956795AF
:100D90002A95D1F72E813F81AB01421B530B9A015B
:100DA0004C815D814217530710F43D832C837F8370
:100DB0006E836C81CE010896DF91CF910C94A106D1
:100DC0000F931F93CF93DF93EC018B0168EA73E0DD
:100DD0000E94632ED80112966C911297662319F027
:100DE00012961C9211C0F80180819181DC01ED9175
:100DF000FC910680F781E02D1995181619061CF054
:100E00000E94D704F0CF682F623221F3673211F3CA
:100E100088ED860F603251F06A3041F06D3031F06C
:100E2000823020F06C3211F06B3399F4823010F084
:100E30006B3311F4F801628368EA73E0CE010E941B
:100E4000F92E8111C7CFCE01DF91CF911F910F9164
:100E50000895CE010E94E52EBDCFBF92CF92DF92C2
:100E6000EF92FF920F931F93CF93DF93CDB7DEB72F
:100E70002E970FB6F894DEBF0FBECDBF8C01BC011C
:100E8000CE0108960E94E006CE0108960E948C2FA3
:100E900060E070E0CE0108960E94182FFC0180816E
:100EA0008134B9F441E050E0BE01685F7F4FCE016C
:100EB00001960E94802FBE016F5F7F4FCE01089682
:100EC0000E947A2ECE0101960E94F52DBB24B39488
:100ED00001C0B12CCE0108960E94A02FBB2081F04A
:100EE000613171058105910544F46B017C01F6E3E4
:100EF000CF0ED11CE11CF11C22C082E192E00FC098
:100F00006B017C01F1E0CF1AD108E108F10825E37B
:100F1000C216D104E104F10480F089E092E0F80106
:100F200094838383BE01685F7F4FC80105960E944A
:100F30007A2EC12CD12C760102C06B017C01CE012E
:100F400008960E94F52DC701B6012E960FB6F894AB
:100F5000DEBF0FBECDBFDF91CF911F910F91FF90EC
:100F6000EF90DF90CF90BF9008959F92AF92BF9285
:100F7000CF92DF92EF92FF920F931F93CF93DF9365
:100F8000CDB7DEB727970FB6F894DEBF0FBECDBF43
:100F90008B01CB010E942D07962EB801CE01019640
:100FA0000E94E006CE0101960E94A02F6B017C01F9
:100FB000611571058105910551F460E070E0CE0185
:100FC00001960E94182FFC0180818033D1F5CE015B
:100FD00001960E94F52D89E190E00E94B82F8C01C6
:100FE000FC011382128280E592E091838083580194
:100FF000F4E0AF0EB11C22E5492DB601C5010E94F7
:10100000A425C5010E9435248091F4039091F50335
:10101000F801938382831093F5030093F4032796DA
:101020000FB6F894DEBF0FBECDBFDF91CF911F91F9
:101030000F91FF90EF90DF90CF90BF90AF909F9077
:1010400008958BEE91E0F80194838383BE016F5F76
:101050007F4FC80105960E947A2EB9CF8F929F923A
:10106000AF92BF92CF92DF92EF92FF920F931F93B6
:10107000CF93DF93EB01CB010E942D076B017C0125
:1010800088E090E00E94B82F8C0188E0D8011D9282
:101090008A95E9F7F8011382128288E792E091833A
:1010A0008083E0E7F4E0A080B180B5016E5F7F4F00
:1010B000718360833EE6832E34E0932ED4018D91BC
:1010C0009C910E941C36F40191838083FC01EA0DFF
:1010D000FB1D11821082D8011796BC92AE92169712
:1010E0001596DC92CE9214976EE971E08881998111
:1010F0000E94152B4AE050E0B501888199810E9439
:10110000652C65E971E0888199810E94152B60E268
:1011100072E0888199810E946F2B62E971E0888179
:1011200099810E94152B67EA71E0888199810E945C
:101130008C2BE4EFF3E080819181D80113969C938E
:101140008E93129711830083DF91CF911F910F919E
:10115000FF90EF90DF90CF90BF90AF909F908F90D7
:1011600008952091600430916104FC013783268347
:1011700090936104809360040895FC018FEF808355
:1011800083E081831382128220E030E03496DF0115
:10119000A20FB31F1C9211961C922E5F3F4F283155
:1011A0003105A9F708952F923F924F925F926F9267
:1011B0007F928F929F92AF92BF92CF92DF92EF92E7
:1011C000FF920F931F93CF93DF9300D000D0CDB742
:1011D000DEB73C01A9EE2A2EA3E03A2E2C0122E52F
:1011E000420E511C8C010C5A1F4F9C01205C3F4F3A
:1011F0003E832D836C0136E5C30ED11C5C0162E495
:10120000A60EB11C7C0174E4E70EF11C4C0186E4CF
:10121000880E911C9301285B3F4F3A832983D301A9
:10122000DC968D919C91DD97DC01ED91FC91048021
:10123000F581E02D1995892B09F489C1F30184AD5D
:1012400095ADDC01ED91FC910680F781E02D1995BB
:101250008F3FBFEF9B0709F47AC1F20120813181F2
:10126000232B31F0D8018D939C931182108228C0DA
:10127000382F2227F80140815181242B352B3183CF
:101280002083AD81BE814D915C914930510599F02B
:10129000F6014081518162817381440F551F661FA1
:1012A000771F420F531F611D711DD6014D935D9332
:1012B0006D937C93139721E030E0F201318320831A
:1012C000AD81BE812D913C912A30310508F038C1A5
:1012D000F901EE58FF4F0C9477348A3F910509F0DD
:1012E0002FC1F6011082118212821382D8018D93D0
:1012F0009C93F20111821082D5011D921C9281E013
:1013000090E023C0805A91098A35910518F5880F1D
:10131000991F880F991FD301DF969C938E93DE97B8
:1013200014962C91149715964C911597342F337071
:1013300031FF09C014968C9314979370842F8C7F7F
:10134000892B15968C9382E090E0ED81FE8191834C
:101350008083F6C0D30115968C9115978C5F1596F6
:101360008C93ED81FE8111821082EAC083E090E0CF
:10137000AD81BE818D939C93E3C0F8018081918102
:10138000D30117969C938E93169784E090E0DDCF5F
:10139000D5018D919C918130910541F0833091056B
:1013A00059F4F80140815181D40104C0F801408111
:1013B0005181D7014D935C930196F5019183808310
:1013C000049709F0BDC0D7018D919C91119797FFAB
:1013D00002C01D921C92F7018081918196FF03C08B
:1013E0009F739183808380E090E0F401408151817C
:1013F0004115510549F05695479556954795D401A5
:101400004D935C930196F1CF8830910510F087E001
:1014100090E0D4018D939C93F7019081A981BA81CA
:101420009C9391818295880F807E9F71982B119655
:101430009C931197F9017F96EE0FFF1FE60DF71DA4
:101440008D919C9195838483F501118210822F5F89
:101450003F4FAD81BE812D933C9372C089E090E0F7
:1014600074CFAD81BE811D921C92F6018081918165
:10147000A281B381AC01BD012FE0769567955795A8
:1014800047952A95D1F7840F951F9F77D8012D9105
:101490003C91F30146AD57AD8217930721F085814A
:1014A0008C5F858338C080E090E093012C5F3F4FD4
:1014B0003C832B83FC01E40FF51FD30114962C9180
:1014C000149715966C91362F3370A6E0220F331FB8
:1014D000AA95E1F7B6E035952795BA95E1F7E21BB5
:1014E000F30BEC30F10598F43296EE0FFF1FE60D8A
:1014F000F71D9C01220F331F6B817C81260F371F44
:101500002A5B3F4FD9012D913C913583248301966D
:101510008430910579F6CA0104966CE070E00E946F
:101520002234892B69F48CE1F3013496D30190962F
:1015300001900D928A95E1F7C30104960E94BD08BF
:10154000F1E02F1A31082114310409F068CEA0917E
:101550006E04B0916F04F301E65AFF4F80819181D0
:10156000A80FB91F8CE1F301B09601900D928A95F6
:10157000E1F77301BCE5EB0EF11C61E0F70180813E
:101580000E94783380917204882391F1D30192965E
:101590000D911C919397B80180E090E00E949034E7
:1015A00020E030E048E453E40E94F13418162CF5B2
:1015B00046E0169507954A95E1F7085111402AE053
:1015C000209FC001219F900D1124823EBFEF9B07F9
:1015D00064F0823E910564F426EF2003B001219F60
:1015E000700D11246F517F4F05C06FEF70E002C086
:1015F00060E070E0F701808104C06FEF70E0D70118
:101600008C9126960FB6F894DEBF0FBECDBFDF914A
:10161000CF911F910F91FF90EF90DF90CF90BF90EF
:10162000AF909F908F907F906F905F904F903F9082
:101630002F900C946C32AF92BF92CF92DF92EF92C8
:10164000FF920F931F93CF93DF93CDB7DEB7C455AF
:10165000D1090FB6F894DEBF0FBECDBF8B01CE010E
:1016600001960E94E006CE0101960E948C2F60E058
:1016700070E0CE0101960E94182FFC018081883510
:1016800001F561E070E0CE0101960E94182FFC0187
:101690008081823371F0833339F0813391F49FE498
:1016A000A92E96E0B92E09C08BE0A82E86E0B82EB0
:1016B00004C0BDE2AB2EB6E0BB2EA114B10409F00C
:1016C000B3C081E891E0F80194838383BE016F5F2A
:1016D0007F4FC80105960E947A2EA12CB12CCE0115
:1016E00001960E94F52DC8010E942D076B017C0117
:1016F0008EE590E00E94B82F8C01FC0113821282CB
:1017000082ED92E091838083C80104960E94BD0817
:10171000C80180960E94BD08F801B5AEA4AEE05C99
:10172000FF4F11821082F801EA5AFF4F1082118296
:1017300012821382F801EC5AFF4F11821082F801D5
:10174000EE5AFF4F81E090E091838083F801EE5BD9
:10175000FF4F11821082F801EC5BFF4F1182108263
:10176000F801EA5BFF4F11821082F80117AE16AE46
:10177000CE01C9960E94BD088CE1FE01F996DE01FA
:101780005D9601900D928A95E1F78CE1FE017D96C0
:10179000DE01119601900D928A95E1F7A0907004F8
:1017A000B0907104B501645E7F4F709371046093D3
:1017B000700480916E0490916F040E941C36909387
:1017C0006F0480936E04DC01AA0DBB1D8CE1FE0149
:1017D000319601900D928A95E1F7F801E65AFF4F94
:1017E000B182A082F801E45AFF4FD182C082809179
:1017F000F2039091F303F801938382831093F30330
:101800000093F203CC5ADF4F0FB6F894DEBF0FBE41
:10181000CDBFDF91CF911F910F91FF90EF90DF909F
:10182000CF90BF90AF90089540E052EC61E070E03F
:10183000C5010E94D72853CFFF920F931F93CF93D8
:10184000DF93EC01F62E0A811B81B8016F5F7F4F99
:101850007B836A83888199810E941C36998388835F
:10186000FC01E00FF11FF082C801DF91CF911F91C1
:101870000F91FF900895CF93DF93EC018EE694E0F3
:101880000E941C0C99838883DF91CF910895EF9279
:10189000FF920F931F93CF93DF938CE495E00E9408
:1018A0000F2244E650E060E070E08CE495E00E9496
:1018B000DF2C8BE090E00E94B82FEC011B821A8293
:1018C0008CE892E0998388837E0184E0E80EF11C25
:1018D00060E0C7010E943B0C8E010A5F1F4F60E071
:1018E000C8010E943B0C60E0C7010E94A10660E0B5
:1018F000C8010E94A106E8EFF3E0808191819B83FB
:101900008A83D183C083DF91CF911F910F91FF9084
:10191000EF900895CF93DF9387E090E00E94B82F77
:10192000EC0187E0FE0111928A95E9F71B821A8289
:1019300080EA92E09983888360E0CE0105960E9458
:101940003B0CE6EFF3E0808191819B838A83D18316
:10195000C083DF91CF910895CF93DF938AE090E029
:101960000E94B82FEC018AE0FE0111928A95E9F7F6
:101970001B821A8284EB92E09983888360E0CE0117
:1019800008960E943B0CE2EFF3E0808191819B83FB
:101990008A83D183C08386E090E00E94B82FFC0147
:1019A0008EEB92E091838083D583C483A8EFB3E06C
:1019B0008D919C91119793838283ED93FC93DF919A
:1019C000CF910895CF92DF92EF92FF920F931F93E2
:1019D000CF93DF938B01CB010E942D076B017C011C
:1019E00088E090E00E94B82FEC0188E0FE0111929F
:1019F0008A95E9F71B821A8284E692E099838883AC
:101A000060E08AE694E00E941C0C9F838E83DD8256
:101A1000CC829C0149EC51E066E272E0C8010E9470
:101A20003406E4EFF3E0808191819B838A83D18344
:101A3000C083DF91CF911F910F91FF90EF90DF90C6
:101A4000CF900895AF92BF92CF92DF92EF92FF9224
:101A50000F931F93CF93DF938B01CB010E942D0730
:101A60006B017C0189E090E00E94B82FEC0189E0D5
:101A7000FE0111928A95E9F71B821A828CE392E0AB
:101A8000998388835E01F4E0AF0EB11CC5010E940A
:101A9000181F60E08AE694E00E941C0C98878F83F0
:101AA000B601C5010E94E31F2F81388542E252E052
:101AB0006AE272E0C8010E943406E4EFF3E080813C
:101AC00091819B838A83D183C083DF91CF911F91C2
:101AD0000F91FF90EF90DF90CF90BF90AF9008955F
:101AE0000F931F93CF93DF9306E314E0C2E3D2E09A
:101AF000F801D183C08389E791E090933904809302
:101B000038048FE791E090933B0480933A04C80136
:101B10000E94B10886E492E0F801918380830EE28E
:101B200014E0F801D183C0838DE691E090933104F5
:101B30008093300486E791E09093330480933204DD
:101B4000C8010E94B1088AE592E0F8019183808380
:101B500006E214E0F801D183C08387E691E0909318
:101B60002904809328048BE691E090932B048093C2
:101B70002A04C8010E94B1088EE692E0F801918320
:101B800080830EE114E0F801D183C0838EE591E0FB
:101B9000909321048093200485E691E090932304A0
:101BA00080932204C8010E94B10882E892E0F80103
:101BB0009183808306E114E0F801D183C08389E535
:101BC00091E090931904809318048DE591E090932F
:101BD0001B0480931A04C8010E94B10886E992E0B0
:101BE000F801918380830EE014E0F801D183C08373
:101BF0008EE491E0909311048093100488E591E0C5
:101C00009093130480931204C8010E94B1088AEAD9
:101C100092E0F8019183808306E014E0F801D1831B
:101C2000C08385E491E090930904809308048DE4D7
:101C300091E090930B0480930A04C8010E94B108BC
:101C400088EC92E0F801918380830EEF13E0F801B5
:101C5000D183C0838CE391E09093010480930004CE
:101C600082E491E09093030480930204C8010E94EF
:101C7000B1088CED92E0F80191838083DF91CF91E0
:101C80001F910F9108950C946B06CF93DF93EC0195
:101C900021E030E043E050E062E070E08CE495E069
:101CA0000E9426228CE495E00E947821892B71F114
:101CB0008CE495E00E9480218C3C9105D9F48CE461
:101CC00095E00E947821892B49F08CE495E00E94F0
:101CD0008021682FCE0104960E94A1068CE495E035
:101CE0000E947821892B91F08CE495E00E9480215C
:101CF000682F06C060E0CE0104960E94A10660E055
:101D0000CE010696DF91CF910C94A106DF91CF9181
:101D100008950C94001B0C94D704CF93DF9320916B
:101D20006A0430916B04EC01A881B981EE81FF81D6
:101D3000E20FF31F40815181EC81FD81E20FF31F1F
:101D4000608171811696ED91FC911797DF91CF918B
:101D5000199420E132E0FC013183208308950F9330
:101D60001F93CF93DF93EC019B018A01E881F981F6
:101D70000084F185E02D46E060E81995E881F9815D
:101D80000084F185E02D980147E060E8CE01DF9105
:101D9000CF911F910F911994CF93DF931F92CDB7DD
:101DA000DEB73595279535952795473011F0205C9E
:101DB00001C020542983DC0118968D919C911997BC
:101DC000DC01ED91FC910280F381E02D41E050E0D7
:101DD000BE016F5F7F4F19950F90DF91CF910895EE
:101DE000CF93DF9300D01F92CDB7DEB735952795FF
:101DF00035952795205C69834A832B83460F420FD4
:101E00004F774C83DC0118968D919C911997DC01DA
:101E1000ED91FC910280F381E02D44E050E0BE01A1
:101E20006F5F7F4F19950F900F900F900F90DF917C
:101E3000CF91089522E332E0FC013183208308959D
:101E400020E132E0FC0131832083089522E332E077
:101E5000FC0131832083089522E332E0FC013183C9
:101E60002083089522E332E0FC013183208308952A
:101E700020E132E0FC0131832083089520E132E04B
:101E8000FC0131832083089520E132E0FC0131839D
:101E90002083089520E132E0FC01318320830C94FB
:101EA000BA2F22E332E0FC01318320830C94BA2F55
:101EB00020E132E0FC01318320830C94BA2F22E32D
:101EC00032E0FC01318320830C94BA2F22E332E00C
:101ED000FC01318320830C94BA2F22E332E0FC0111
:101EE000318320830C94BA2F20E132E0FC0131834E
:101EF00020830C94BA2F20E132E0FC01318320834F
:101F00000C94BA2F20E132E0FC01318320830C9441
:101F1000BA2FCF92DF92FF920F931F93CF93DF934D
:101F20001F92CDB7DEB76C01F62E8A0160E0FC018E
:101F3000808579830E94B13360E0F60184850E9438
:101F4000B13360E0F60182850E94B13360E0F601B2
:101F500086850E94B1338F2D7981972F97FF03C01B
:101F6000919581959109A72FA095AA1FAA27AA1F2D
:101F7000B0E01496AA0FBB1FAC0DBD1DBC018C9127
:101F80000E946C32B80117FF03C071956195710909
:101F9000E12FE095EE1FEE27EE1FF0E03696EE0FF4
:101FA000FF1FEC0DFD1D80810F90DF91CF911F91E0
:101FB0000F91FF90DF90CF900C946C32EF92FF92D4
:101FC0000F931F93CF93DF931F921F92CDB7DEB76E
:101FD0008C01FC01808591850E94A416F801808502
:101FE00091850E94F414A0916E04B0916F04F801E1
:101FF00024853585A20FB31F26E1FC0101900D92C7
:102000002A95E1F780917204882319F081E080938A
:102010003F04F801808591850E94F414FC018589B4
:1020200080FD58C0F801808591850E94F414FC0160
:10203000858982FD4FC080E090917204911108C0A3
:1020400090913F04992321F081E080933E0402C0E7
:10205000882351F01A821982BE016F5F7F4FF80109
:10206000808591850E94C61380917204882369F04F
:1020700080913E04882349F010923E04F801628565
:102080007385808591850E94481781E0F8018687D5
:10209000E12CF12CF801808591850E94F4148E0DBD
:1020A0009F1DFC018285833010F4F8011686FFEF36
:1020B000EF1AFF0A84E0E816F10461F7C8010E94F4
:1020C0008D0E0F900F90DF91CF911F910F91FF9088
:1020D000EF90089581E0B0CFFC01268521110AC060
:1020E000161617061CF01416150624F440E050E0EE
:1020F00060E070E0440F551F660F771FFC0180857C
:1021000091850C94F31382E392E0909341048093C1
:102110004004909349048093480490935104809321
:10212000500490935904809358040895AF92BF923D
:10213000CF92DF92EF92FF920F931F93CF93DF9393
:10214000CDB7DEB727970FB6F894DEBF0FBECDBF71
:102150005C016A017B01BC01CE0101960E94E00690
:10216000CE0101960E948C2F60E070E0CE010196B6
:102170000E94182FFC0180818835C9F461E070E06D
:10218000CE0101960E94182FFC018081823351F00C
:10219000833329F0813359F40FE416E005C00BE0D6
:1021A00016E002C00DE216E00115110579F481E890
:1021B00091E0F50194838383BE016F5F7F4FC5017A
:1021C00005960E947A2E00E010E00AC01C141D043F
:1021D0001E041F042CF4B701A601C8010E94D728D1
:1021E000CE0101960E94F52DC80127960FB6F894EE
:1021F000DEBF0FBECDBFDF91CF911F910F91FF903A
:10220000EF90DF90CF90BF90AF900895CF92DF9284
:10221000EF92FF920F931F93CF93DF93EC011B82FA
:102220001A8285E293E0998388830CE614E0F80132
:10223000C080D180B6016E5F7F4F71836083FAE604
:10224000EF2EF4E0FF2EF701808191810E941C3671
:10225000F70191838083FC01EC0DFD1D118210823A
:10226000DD82CC82F801C080D180B6016E5F7F4FE5
:10227000718360830E941C36F70191838083FC0187
:10228000EC0DFD1D11821082DF82CE82DF91CF9195
:102290001F910F91FF90EF90DF90CF900895EF92F4
:1022A000FF920F931F93CF93DF93EC017B018A0181
:1022B0000E94061181E393E099838883F70180816E
:1022C000918199878887F801808191819D878C878A
:1022D000F701828193819B878A87F80182819381AC
:1022E0009F878E8702E010E061E088850E94783346
:1022F00061E08C850E94783360E088850E94B1336C
:1023000060E08C850E94B1330150110922960115BD
:10231000110551F7DF91CF911F910F91FF90EF9031
:1023200008950F931F93CF93DF93CDB7DEB7289710
:102330000FB6F894DEBF0FBECDBF8B01CB010E945C
:102340002D077E836D83C8010E942D0778876F83D8
:10235000C8010E942D077A836983C8010E942D0756
:102360007C836B8380E190E00E94B82F8C01AE01EA
:102370004F5F5F4FBE016B5F7F4F0E944F11E4EFD5
:10238000F3E080819181D80113969C938E931297EC
:102390001183008328960FB6F894DEBF0FBECDBF21
:1023A000DF91CF911F910F9108950F931F93CF93BA
:1023B000DF93EC018B010E940611198708878DE3DA
:1023C00093E099838883DF91CF911F910F910895B6
:1023D0000F931F93CF93DF93CB0140E855E260E06A
:1023E00070E00E9496108C018AE090E00E94B82F65
:1023F000EC01B8010E94D511E4EFF3E080819181F6
:102400009B838A83D183C083DF91CF911F910F91EA
:1024100008950F931F93CF93DF93EC018B010E94DC
:102420000611198708878BE493E099838883DF91ED
:10243000CF911F910F9108950F931F93CF93DF9327
:10244000CB0140E855E260E070E00E949610EC019C
:1024500060ED77E080E090E00E94BF31E881F98193
:102460000190F081E02D6AEACE0119956AE070E0F2
:1024700080E090E00E94BF318AE090E00E94B82F97
:102480008C01BE010E940912E4EFF3E0808191818A
:10249000D80113969C938E93129711830083DF913A
:1024A000CF911F910F910895CF92DF92EF92FF92FB
:1024B0000F931F93CF93DF93CDB7DEB7C254D109EB
:1024C0000FB6F894DEBF0FBECDBF8C016B017A0151
:1024D0000E94061187E793E0D80111969C938E9392
:1024E0001996DC92CE9218971B96FC92EE921A9750
:1024F000FE01BD9686E1DF011D928A95E9F786E12E
:10250000DE01579601900D928A95E1F786E1FE0172
:102510007796DE01119601900D928A95E1F7E0E73A
:10252000F4E0E080F180B7016A5E7F4F71836083E1
:10253000AEE6CA2EA4E0DA2EF601808191810E94D7
:102540001C36D6018D939C93DC01AE0DBF1D86E138
:10255000FE01319601900D928A95E1F7F801F5861A
:10256000E48681E08687CE5BDF4F0FB6F894DEBF4E
:102570000FBECDBFDF91CF911F910F91FF90EF90D4
:10258000DF90CF9008950F931F93CF93DF93CB01EC
:1025900040E052EC61E070E00E9496108C0181E214
:1025A00090E00E94B82FEC01B8010E94731362EE14
:1025B00072E081E796E00E94B02B62E070E0CE010D
:1025C0000E94481764E173E081E796E00E94B02B17
:1025D0008FE090E00E94B82F8C0142E050E0BE01F5
:1025E0000E945412E4EFF3E080819181D8011396A8
:1025F0009C938E93129711830083DF91CF911F914B
:102600000F9108950F931F93CF93DF9308E514E084
:10261000C2E3D2E0F801D183C08389E692E09093CF
:102620005B0480935A048DE692E090935D0480935E
:102630005C04C8010E94B10889E593E0F801918328
:10264000808300E514E0F801D183C0838BE592E03C
:10265000909353048093520487E692E0909355043C
:1026600080935404C8010E94B10883E693E0F80106
:102670009183808308E414E0F801D183C0838DE462
:1026800092E090934B0480934A0489E592E0909302
:102690004D0480934C04C8010E94B1088DE693E07C
:1026A000F8019183808300E414E0F801D183C083B2
:1026B00083E492E090934304809342048BE492E09D
:1026C0009093450480934404C8010E94B10883E8B4
:1026D00093E0F80191838083DF91CF911F910F9157
:1026E00008950C948310FC0171836083128213821D
:1026F00014821582178216821086128611863B96E6
:1027000086E1DF011D928A95E9F70895CF93DF9363
:102710001F92CDB7DEB720E82983DC018D919C9113
:10272000DC01ED91FC910280F381E02D41E050E06D
:10273000BE016F5F7F4F199564E670E080E090E026
:102740000E94BF310F90DF91CF910895CF93DF9317
:102750001F92CDB7DEB727E02983DC018D919C91D4
:10276000DC01ED91FC910280F381E02D41E050E02D
:10277000BE016F5F7F4F199568E873E180E090E0DC
:102780000E94BF310F90DF91CF910895CF93DF93D7
:102790001F92CDB7DEB725E82983DB012D913C914F
:1027A0002130310511F423E804C02230310511F441
:1027B00024E82983FC0180819181DC01ED91FC9169
:1027C0000280F381E02D41E050E0BE016F5F7F4F5A
:1027D000199564E670E080E090E00E94BF310F90B0
:1027E000DF91CF9108950F931F93CF93DF9300D084
:1027F0001F921F92CDB7DEB78C017B836A835D8306
:102800004C8381E98983D8018D919C91DC01ED9104
:10281000FC910280F381E02D41E050E0BE016F5F4A
:102820007F4F1995F80180819181DC01ED91FC9138
:102830000280F381E02D41E050E0BE016B5F7F4FED
:102840001995F80180819181DC01ED91FC91028064
:10285000F381E02D41E050E0BE016C5F7F4F1995A0
:10286000F80180819181DC01ED91FC910280F3817E
:10287000E02D41E050E0BE016D5F7F4F1995F801FA
:1028800080819181DC01ED91FC910280F381E02D4A
:1028900041E050E0BE016E5F7F4F19950F900F90A1
:1028A0000F900F900F90DF91CF911F910F9108958E
:1028B0000F931F93CF93DF931F92CDB7DEB78C0199
:1028C0008BE88983D8018D919C91DC01ED91FC917D
:1028D0000280F381E02D41E050E0BE016F5F7F4F49
:1028E0001995F80181919191BF01DC01ED91FC9165
:1028F0000280F381E02D41E050E01995F8018081DC
:102900009181DC01ED91FC91B8016D5F7F4F0280F8
:10291000F381E02D41E050E01995F801808191812B
:10292000DC01ED91FC91B8016C5F7F4F0280F38177
:10293000E02D41E050E019950F90DF91CF911F916C
:102940000F9108950F931F93CF93DF931F921F92C0
:10295000CDB7DEB78C01FC01A081B181662371F196
:1029600084E98A8383E18983ED91FC911197028048
:10297000F381E02D41E050E0BE016E5F7F4FCD015D
:102980001995D8018D919C91DC01ED91FC9102800B
:10299000F381E02D41E050E0BE016F5F7F4F19955C
:1029A000F80180819181DC01ED91FC910280F3813D
:1029B000E02D43E150E069E873E00EC086E98983C9
:1029C000ED91FC9111970280F381E02D41E050E000
:1029D000BE016F5F7F4FCD0119950F900F90DF9172
:1029E000CF911F910F9108950B960895803891050E
:1029F00070F080589109969587959695879580589F
:102A00009F4F8F3F910519F010F08FEF90E00895E0
:102A10002F923F924F925F926F927F928F929F92EE
:102A2000AF92BF92CF92DF92EF92FF920F931F93DC
:102A3000CF93DF93CDB7DEB72C970FB6F894DEBFF8
:102A40000FBECDBF8C01DC0115968C91282F30E094
:102A50003A83298360E070E029813A81D8016217C6
:102A6000730708F012C116962D913C911797AB0190
:102A70004F5F5F4FF901E60FF71F8081873031F418
:102A8000F901E40FF51F20812987FCC0853131F45D
:102A9000F901E40FF51F30813A87F4C0883131F431
:102AA000F901E40FF51F20812887ECC0893151F42A
:102AB000F901E40FF51F2080312C322C2224818172
:102AC000282AD6C08B3251F4F901E40FF51F80811A
:102AD00090E0D82ECC248181C82ACAC08C3251F40F
:102AE000F901E40FF51F808190E0F82EEE2481813A
:102AF000E82ABEC08C3181F4F901E40FF51F808112
:102B000090E0982F88272181822B55E09695879514
:102B10005A95E1F7882EACC08D3181F4F901E40FAC
:102B2000F51F808190E0982F88272181822B35E046
:102B3000969587953A95E1F7982E9AC08E3181F453
:102B4000F901E40FF51F808190E0982F88272181FB
:102B5000822BB5E096958795BA95E1F7782E88C0D7
:102B60008F3181F4F901E40FF51F808190E0982FF7
:102B700088272181822B55E0969587955A95E1F714
:102B8000682E76C0833229F4F901E40FF51F4080E6
:102B900079C08D3231F4F901E40FF51F30813B83A8
:102BA00071C08E3279F4F901E40FF51F808190E055
:102BB000982F88272181822B6B877C870E94F614AF
:102BC000A82E54C08F3279F4F901E40FF51F8081EB
:102BD00090E0982F88272181822B6B877C870E9429
:102BE000F614B82E43C0803379F4F901E40FF51FD1
:102BF000808190E0982F88272181822B6B877C87AA
:102C00000E94F6148F8332C0813379F4F901E40F06
:102C1000F51F808190E0982F88272181822B6B8778
:102C20007C870E94F6148E8321C0823379F4F901E7
:102C3000E40FF51F808190E0982F88272181822B57
:102C40006B877C870E94F6148D8310C0833399F4C0
:102C5000F901E40FF51F808190E0982F88272181EA
:102C6000822B6B877C870E94F6148C836B857C8516
:102C70006D5F7F4FF1CE823109F04CC0F901E40F56
:102C8000F51F50806E5F7F4FE7CE1B964C921B97CF
:102C900029851C962C931C973A851D963C931D976D
:102CA00028851E962C931E9750963C922E921F9725
:102CB0005296DC92CE9251975496FC92EE92539794
:102CC00055968C92559756969C92569757967C920D
:102CD000579758966C9258975996AC9259975A961E
:102CE000BC925A973F815B963C935B972E815C9692
:102CF0002C935C973D815D963C935D972C815E960D
:102D00002C935E973B815F963C935F9790965C9285
:102D100081E001C080E02C960FB6F894DEBF0FBEB4
:102D2000CDBFDF91CF911F910F91FF90EF90DF907A
:102D3000CF90BF90AF909F908F907F906F905F905B
:102D40004F903F902F900895CF92DF92EF92FF9295
:102D50000F931F93CF93DF931F92CDB7DEB78C01F4
:102D600093E0E92EF12C22E0C22ED12CD8018D91D6
:102D70009C91DC01ED91FC910480F581E02D199589
:102D8000181619060CF07AC041E050E0BE016F5FE2
:102D90007F4FD8018D919C910E94E52C8130910547
:102DA00009F06CC0F801218532852115310539F40F
:102DB00029812331D9F6F80192878187D7CF213035
:102DC000310569F48981D80115968C9390E00E94B1
:102DD000F534F80197838683D286C186C7CF223027
:102DE0003105F9F4D8011696ED91FC9117971896D4
:102DF0008C91189791E0980F18969C931897998149
:102E0000E80FF11D908318969C91189715968C9158
:102E10001597981708F4AACF1A96FC92EE92199774
:102E2000A5CF2330310509F0A1CFF801258130E08D
:102E3000C90143964981840F911D46815781FA014A
:102E4000BF01641B750B6217730720F46191860F35
:102E5000911DF6CF811103C0C8010E940815D80149
:102E600015961C92159716968D919C9117970E9416
:102E70008D35F80110861286118678CF0F90DF917C
:102E8000CF911F910F91FF90EF90DF90CF90089519
:102E90008F929F92AF92BF92CF92DF92EF92FF926A
:102EA0000F931F93CF93DF931F921F92CDB7DEB77F
:102EB0008C01962E61E0892D0E94783361E0892D86
:102EC0000E94B13364E670E080E090E00E94BF3180
:102ED00060E0892D0E94B1334AE0E42EF12C52E0EB
:102EE000A52EB12C88248A94F801138664E670E03C
:102EF00080E090E00E94BF31C8010E948613BA8230
:102F0000A982BE016F5F7F4FC8010E94C613F801FE
:102F100083828482C8010E94581461E0C8010E9423
:102F2000A21434E1C32ED12CC8010E94A416F801CA
:102F30008385811115C064E670E080E090E00E9416
:102F4000BF31F1E0CF1AD108C114D10469F7C8012B
:102F50000E94A61381E0E81AF108E114F10421F6B9
:102F600061E0892D0E94B1330F900F90DF91CF91D6
:102F70001F910F91FF90EF90DF90CF90BF90AF9097
:102F80009F908F900895CF93DF93EC018881998172
:102F9000DC01ED91FC910680F781E02D1995181662
:102FA00019061CF00E94D704F1CFDF91CF9108954C
:102FB000FC01A081B181FB018D919491891305C021
:102FC00031968111F9CF81E0089580E00895CF9284
:102FD000DF92EF92FF920F931F93CF93DF93CDB7C2
:102FE000DEB727970FB6F894DEBF0FBECDBF8C01BA
:102FF000BC01CE0101960E94E006CE0101960E941E
:10300000A02F6B017C016115710581059105B1F45B
:1030100060E070E0CE0101960E94182FFC018081D3
:10302000803361F08BEE91E0F80194838383BE01DD
:103030006F5F7F4FC80105960E947A2ECE010196E0
:103040000E94F52DC701B60127960FB6F894DEBF92
:103050000FBECDBFDF91CF911F910F91FF90EF90E9
:10306000DF90CF900895E0916004F091610480E0DA
:1030700090E0309729F001960680F781E02DF9CF96
:103080000895CF93DF93C0916004D091610420979D
:10309000B1F06A817B8181E796E00E94152B67EA97
:1030A00073E081E796E00E946F2B6C817D8181E760
:1030B00096E00E948C2B0E80DF81C02DE8CFDF913F
:1030C000CF9108950F931F93CF93DF938C01C091FD
:1030D0006004D0916104209759F06A817B81C80116
:1030E0000E94D817811107C00E80DF81C02DF3CF59
:1030F00080E090E001C0CE01DF91CF911F910F9150
:103100000895EF92FF920F931F93CF93DF93CDB764
:10311000DEB727970FB6F894DEBF0FBECDBF8C0188
:10312000E62EFC01F280F11004C00E94C317F82EB5
:1031300002C0FC011282FE1431F168EA73E0CE0194
:1031400001960E94632E6E2DCE0101960E94E52EFF
:103150006CE973E0CE0101960E94D52E6F2DCE0151
:1031600001960E94E52E8AE394E0F801948383831C
:10317000BE016F5F7F4FC80105960E947A2ECE0177
:1031800001960E94F52D27960FB6F894DEBF0FBE6C
:10319000CDBFDF91CF911F910F91FF90EF900895D8
:1031A000EF92FF920F931F93CF93DF938C01FC015B
:1031B000E080F180E701BE016E197F09F80182818C
:1031C000938168177907E8F44AE050E081E796E0D8
:1031D0000E94AB2C66EA73E081E796E00E946F2BB9
:1031E000499150E060E070E02AE030E081E796E04D
:1031F0000E941B2C67EA73E081E796E00E946F2B28
:10320000DACF81E796E0DF91CF911F910F91FF9088
:10321000EF900C94782BAF92BF92CF92DF92EF9207
:10322000FF920F931F93CF93DF93CDB7DEB76597D0
:103230000FB6F894DEBF0FBECDBF81E796E09A834C
:1032400089831B821D821C8268EA73E0CE01069688
:103250000E94632EBE016F5F7F4FCE010D960E94CC
:10326000E006CE010D960E9462187C01009709F4D9
:1032700045C068E2CE0101960E9481188C819D8133
:10328000892B09F040C1D701ED91FC910480F581B3
:10329000E02DBE016F5F7F4FC70119958C819D8125
:1032A000892B09F030C169E2CE0101960E94811894
:1032B0008C819D81892B09F026C16BE3CE0101969B
:1032C0000E9481188C819D81892B09F01CC16AE2C2
:1032D00074E081E796E00E94152BBE01635F7F4F8B
:1032E00081E796E00E949E2B68E174E0CE010D9686
:1032F0000E94D817882309F406C14DC16FE074E01D
:10330000CE010D960E94D817882319F06AEF73E05A
:10331000C0C061EF73E0CE010D960E94D8178823DC
:1033200049F06DEE73E081E796E00E94152B8EE682
:1033300094E010C063EE73E0CE010D960E94D817A2
:10334000882359F06FED73E081E796E00E94152B1A
:103350008AE694E00E94D018D6C06BED73E0CE01EF
:103360000D960E94D8178823A1F1CE0101960E94E4
:10337000E7176B017C01CE0101960E94E717162F1B
:10338000072F8C819D81892B09F0BDC0E0916A04D3
:10339000F0916B04EC0DFD1D108365EC73E081E78B
:1033A00096E00E94152B4AE050E0B60181E796E0D6
:1033B0000E94652C6AEB73E081E796E00E94152B72
:1033C0004AE050E0612F702F81E796E00E946D2C5B
:1033D0009AC064EB73E0CE010D960E94D817882343
:1033E000D9F1CE0101960E94E7176B017C01CE0155
:1033F00001960E94E7178B015C012C813D81232BF4
:1034000009F081C0E0916A04F0916B04EC0DFD1DA0
:103410006083E0916A04F0916B04EC0DFD1D118353
:1034200067E973E081E796E00E94152B4AE050E0DF
:10343000B60181E796E00E94652C6CE873E081E7B5
:1034400096E00E94152B2AE030E0A801B50181E743
:1034500096E00E94852C57C067E873E0CE010D9678
:103460000E94D8178823D1F0BE016C5E7F4F8091F7
:10347000DA089091DB08009711F48EED98E0681B54
:10348000790B4AE050E081E796E00E94652C6BE7FB
:1034900073E081E796E00E948C2B35C066E773E00D
:1034A000CE010D960E94D817882361F00E94331830
:1034B0004AE050E0BC0181E796E00E946D2C0E943A
:1034C000411821C060E070E0CE010D960E94182FD7
:1034D000FC0180818F3309F462C060E070E0CE01AE
:1034E0000D960E94182FDC018C91883609F457C084
:1034F0006CEC72E0CE010D960E94D817882379F10A
:10350000E0E0F0E019958C819D81892B09F445C09C
:1035100060EB72E081E796E00E94152B6C817D8163
:1035200081E796E00E94152B6DEA72E081E796E054
:103530000E94152BBE016A5F7F4F81E796E00E94D3
:103540003A2B68E972E081E796E00E94152BBE01F4
:10355000635F7F4F81E796E00E949E2B1EC066EC62
:1035600072E0CE010D960E94D817882319F1609160
:103570006C0470916D044AE050E081E796E00E948F
:103580006D2C60917004709171044AE050E081E705
:1035900096E00E946D2C10E019C011E017C06EE299
:1035A00073E081E796E00E948C2B0E94411863ED46
:1035B00072E06FCF8AEB92E09D838C83BE01635FE4
:1035C0007F4FCE0106960E947A2E9DCFCE010D969A
:1035D0000E94F52DCE0106960E94F52D812F65964D
:1035E0000FB6F894DEBF0FBECDBFDF91CF911F9114
:1035F0000F91FF90EF90DF90CF90BF90AF90089524
:103600000E949A0440E051EE60E070E081E796E0AD
:103610000E94D72862E772E081E796E00E948C2B37
:103620000E940B198111FCCF089522E332E0FC01C6
:1036300031832083089522E332E0FC01318320832B
:103640000C94BA2FCF93DF9382E392E090936304BC
:1036500080936204CAE6D4E0888199810E948D3506
:103660001982188210926D0410926C04CEE6D4E098
:10367000888199810E948D35198218821092710477
:1036800010927004DF91CF910895CF93DF93EC01F6
:1036900089EB93E0998388838FA598A9009721F0FF
:1036A0000E948D3518AA1FA680E192E09983888335
:1036B000DF91CF910895CF93DF93EC010E94451BDA
:1036C000CE01DF91CF910C94BA2F81E796E00E9452
:1036D000782B4AE050E06FEF7FEF81E796E00E94A1
:1036E0006D2C8EE390E00E94B82FFC0189EB93E0F3
:1036F0009183808381E796E0958384839783868393
:10370000118E138E128E158E148E178E168E12AA8F
:1037100011AA10AA17A613AA15AA14AA17AA16AABC
:1037200011AE10AE1092720413AE12AE15AE14AEFE
:10373000A4EFB3E08D919C91119793838283ED93D5
:10374000FC930895CF92DF92EF92FF920F931F9315
:10375000CF93DF931F92CDB7DEB78C017A01690159
:10376000F90120E030E0CF018C199D098E159F05ED
:1037700024F48191280F311DF6CFC701860F971FC2
:10378000820F931F44E0359527954A95E1F7820F04
:10379000931F8F70992720E1629F800D11248983E8
:1037A0009FE0E916F10434F590EA9E0DD8011296D7
:1037B0009C93F60120E030E02E153F054CF42F5F7E
:1037C0003F4F9191D801A20FB31F12969C93F4CF53
:1037D000F801EE0DFF1D8383F80181919191BF01E6
:1037E000DC01ED91FC91A7014E5F5F4F0280F381F8
:1037F000E02D2BC08FEAF8018283E382D8018D91FE
:103800009D91BD01DC01ED91FC910280F381E02DE1
:1038100042E050E01995F80180819181DC01ED9141
:10382000FC910280F381E02DA701B6011995F80102
:1038300080819181DC01ED91FC910280F381E02D8A
:1038400041E050E0BE016F5F7F4F19950F90DF910F
:10385000CF911F910F91FF90EF90DF90CF9008953F
:10386000DF92EF92FF920F931F93CF93DF93EC01C0
:1038700088819981DC01ED91FC910480F581E02D36
:103880001995892B09F49DC0F2E0EF2EA3E0FA2EE2
:103890008E01045E1F4FDD24D3948A819B81DC015D
:1038A000ED91FC910480F581E02D1995892B09F4A7
:1038B000ACC08A819B81DC01ED91FC910680F7818F
:1038C000E02D19958F3FBFEF9B0709F49EC01FA6FF
:1038D0002D89213001F130F0223079F1233009F4C3
:1038E00046C06DC09C01207F3327203A3105A9F6E0
:1038F000198E188E1B8E1A8E8F7099279F8B8E8B28
:103900008F30910511F4DD8AC8CF892B71F1ED8AD2
:103910001EA70DA7C2CF9F8B8E8BBC018BA59CA52C
:103920000E941C369CA78BA79EA78DA7ED8A8E8927
:103930009F89892B09F0B1CF18C02A8D3B8D280FA4
:10394000391F3B8F2A8FEDA5FEA5288D398DE20FFB
:10395000F31F8083888D998D0196998F888F2E898A
:103960003F89821793070CF498CFFD8A96CF1D8A62
:103970009C0154E0359527955A95E1F739AB28AB72
:103980004E895F896A8D7B8D8F709927240F351F33
:10399000260F371FE4E075956795EA95E1F7260F46
:1039A000371F2F7033278217930779F581E08FA790
:1039B0005BAB4AAB8DA59EA59DAB8CAB26C01D8A8B
:1039C0006CCF8091FC039091FD0328AD39ADAC0123
:1039D000421B530B9A01293E3340A8F099AF88AFA0
:1039E0001D8A1F8A1E8A198E188E1B8E1A8E29EA2E
:1039F00033E044E050E060E070E0CE0102960E94C7
:103A0000A21B1092720480E00EC08FA58823C9F219
:103A10008091FC039091FD0399AF88AF9FAB8EAB73
:103A200081E080937204DF91CF911F910F91FF90FD
:103A3000EF90DF9008950F931F93CF93DF93EC01E6
:103A400004960E94301C882309F443C08CA99DA9C8
:103A50008C30910539F54EA95FA980916C04909145
:103A60006D048E010A5F1F4F4817590739F02EEA7F
:103A700033E044E050E06EE070E012C068AD79AD34
:103A800080916A0490916B040E94343720916E04F7
:103A900030916F0440917004509171046CE070E0BB
:103AA000C80111C00B9739F4E0E0F0E0DF91CF914D
:103AB0001F910F91199423EB33E041E050E06EE049
:103AC00070E0CE010696DF91CF911F910F910C947B
:103AD000A21BDF91CF911F910F91089510926F0457
:103AE00010926E04109271041092700410926B0484
:103AF00010926A0410926D0410926C0484E494E0B5
:103B0000909365048093640486E594E09093670441
:103B1000809366048091600490916104909369049D
:103B200080936804E2E6F4E0F0936104E0936004BB
:103B300083EC93E09183808308950C94221BCF92B1
:103B4000DF92EF92FF920F931F93CF93DF936C015D
:103B50008B017A01EC01CC58DB4F888187FF04C0D0
:103B6000FB011182108223C02CE02C9DC0012D9DF1
:103B7000900D11242881AC01420F511D27FD5A954B
:103B80002091730430E0421753078CF42881AC0174
:103B9000420F511D27FD5A959A01FA01EE0FFF1FA2
:103BA000E20FF31FE858FB4F208126FD19C08881E2
:103BB0008F5F88838CE08C9D90018D9D300D11244A
:103BC0008881A901480F511D87FD5A958091730482
:103BD00090E048175907B4F488818C303CF112C04A
:103BE0002881820F911D27FD9A95FC01EE0FFF1F82
:103BF000E80FF91FE858FB4F808160E08F730E9447
:103C0000B133D5CFF80180819181049680349C49ED
:103C100018F480E49CE904C0F80180819181049645
:103C2000F701918380838FEF888341C0F801808101
:103C300091814881B901640F711D47FD7A95AB01EF
:103C4000FB01EE0FFF1FE40FF51FE858FB4F41810A
:103C50005281840F951FF701918380838881A90188
:103C6000480F511D87FD5A95FA01EE0FFF1FE40F13
:103C7000F51FE858FB4F808186FF19C08881280F07
:103C8000311D87FD3A95F901EE0FFF1FE20FF31F7B
:103C9000E858FB4F808161E08F73DF91CF911F91D6
:103CA0000F91FF90EF90DF90CF900C94B133DF91A4
:103CB000CF911F910F91FF90EF90DF90CF900895DB
:103CC0001F920F920FB60F9211240BB60F922F93E3
:103CD0003F934F935F936F937F938F939F93AF9394
:103CE000BF93EF93FF9348E850E064E870E081E011
:103CF00090E00E949F1DFF91EF91BF91AF919F9126
:103D00008F917F916F915F914F913F912F910F9084
:103D10000BBE0F900FBE0F901F9018951F920F9221
:103D20000FB60F9211240BB60F922F933F934F9320
:103D30005F936F937F938F939F93AF93BF93EF9313
:103D4000FF9348E950E064E970E082E090E00E946F
:103D50009F1DFF91EF91BF91AF919F918F917F91A7
:103D60006F915F914F913F912F910F900BBE0F90EC
:103D70000FBE0F901F9018951F920F920FB60F92C3
:103D800011240BB60F922F933F934F935F936F9332
:103D90007F938F939F93AF93BF93EF93FF9348EAE3
:103DA00050E064EA70E083E090E00E949F1DFF9184
:103DB000EF91BF91AF919F918F917F916F915F91A3
:103DC0004F913F912F910F900BBE0F900FBE0F9010
:103DD0001F9018951F920F920FB60F9211240BB6D9
:103DE0000F922F933F934F935F936F937F938F9394
:103DF0009F93AF93BF93EF93FF9348E251E064E248
:103E000071E080E090E00E949F1DFF91EF91BF91D3
:103E1000AF919F918F917F916F915F914F913F9162
:103E20002F910F900BBE0F900FBE0F901F90189503
:103E3000209173042033A0F431E0320F30937304E7
:103E4000FC012083822F90E0FC01EE0FFF1FE80FA2
:103E5000F91FE858FB4F88EB9BE09283818308951C
:103E60002FEFFC0120830895DF92EF92FF920F93D2
:103E70001F93CF93DF93EC01D62E7A0189018881BD
:103E8000803308F068C061E08D2D0E94783388810E
:103E9000A82FB0E0FD01EE0FFF1FEA0FFB1FE8584F
:103EA000FB4F2D2D2F739081907C922B908360E29D
:103EB00072E06E197F0977FF02C06D5F7F4F7595C5
:103EC000679575956795698340E659E0401B510BEE
:103ED00057FF02C04D5F5F4F5595479555954795E4
:103EE0004A836CE00E9402349CE0899FB001112457
:103EF00020E030E0A901460F571FFA01EE0FFF1F27
:103F0000E40FF51FE858FB4F908196FD18C02F5F16
:103F10003F4F2C30310571F790E08130910521F54C
:103F20001092800082E080938100109285001092B0
:103F30008400B19A80916F00826080936F008881C5
:103F400090E0FC01EE0FFF1FE80FF91FE858FB4F50
:103F50008081806480838881DF91CF911F910F9150
:103F6000FF90EF90DF9008958230910569F41092F0
:103F7000900082E08093910010929500109294003E
:103F800088BB80937100DBCF8330910569F4109278
:103F9000A00082E08093A1001092A5001092A400DE
:103FA00089BB80937200CBCF892B49F610922001F8
:103FB00082E08093210110922501109224018ABB96
:103FC00080937300BCCF20E639E040E252E00C94CD
:103FD000341FFC012081203308F03DC0318188E886
:103FE00090E0831B910937FD9395880F991F880FE7
:103FF000991F681779077CF0328188E592E0831B6E
:10400000910937FD9395880F991F880F991F68179D
:1040100079070CF4CB0102974FB7F89430E0F9011F
:10402000EE0FFF1FE20FF31FE858FB4FAA2797FD83
:10403000A095BA2F64E0880F991FAA1FBB1F6A952D
:10404000D1F773E0B695A795979587957A95D1F7AF
:10405000928381834FBF08954F925F926F927F92B8
:10406000AF92BF92CF92DF92EF92FF920F931F9386
:10407000CF93DF93EC01603282E078070CF040C010
:1040800077FD06C0653B71052CF064EB70E002C063
:1040900060E070E0898128E830E0281B310987FD65
:1040A0003395220F331F220F331F5901CC24B7FC45
:1040B000C094DC2C882777FD8095982F2A8148E5CD
:1040C00052E0421B510927FD5395440F551F440FE1
:1040D000551F2A01662457FC6094762C7F926F92BC
:1040E0005F924F9214EBE12EF12C00E010E020E003
:1040F00030E0A9010E94AE2D0F900F900F900F900D
:10410000CE01DF91CF911F910F91FF90EF90DF9043
:10411000CF90BF90AF907F906F905F904F900C9436
:10412000E91F20E001972FEF8F3F9207D9F70895FD
:10413000EF92FF920F931F93CF93DF93EC018B8D40
:10414000EE85FF859D8581FF04C08081892329F448
:1041500047C08081892309F043C08B899C890E94D4
:10416000912008E010E0EE24E394F12C8D899E89E3
:104170000E949120EE85FF8580819D85892311F025
:10418000FE2803C08E2D8095F822EE0C01501109F7
:104190000115110559F78F89988D0E9491208B8DFB
:1041A00081FDF094809109052091080590E0019629
:1041B0008F73992730E08217930779F0E091090512
:1041C000F0E0E65FFA4FF0828091090590E00196F9
:1041D0008F7399278093090503C08B8D81608B8F26
:1041E000DF91CF911F910F91FF90EF9008958091F3
:1041F0004A0590914B05009711F00C949820089572
:104200001F920F920FB60F9211240BB60F922F939D
:104210003F934F935F936F937F938F939F93AF934E
:10422000BF93EF93FF930E94F720FF91EF91BF910F
:10423000AF919F918F917F916F915F914F913F913E
:104240002F910F900BBE0F900FBE0F901F901895DF
:104250001F920F920FB60F9211240BB60F922F934D
:104260003F934F935F936F937F938F939F93AF93FE
:10427000BF93EF93FF930E94F720FF91EF91BF91BF
:10428000AF919F918F917F916F915F914F913F91EE
:104290002F910F900BBE0F900FBE0F901F9018958F
:1042A0001F920F920FB60F9211240BB60F922F93FD
:1042B0003F934F935F936F937F938F939F93AF93AE
:1042C000BF93EF93FF930E94F720FF91EF91BF916F
:1042D000AF919F918F917F916F915F914F913F919E
:1042E0002F910F900BBE0F900FBE0F901F9018953F
:1042F00080917B0590E020917C05821B91090895B7
:1043000020917C0580917B05281750F4E22FF0E086
:10431000E358FA4F808190E02F5F20937C05089549
:104320008FEF9FEF0895E0917C0580917B05E81762
:1043300030F4F0E0E358FA4F808190E008958FEF79
:104340009FEF08950895CF92DF92EF92FF920F931F
:104350001F93CF93DF937C01CB018A0120915805F5
:10436000222389F0EB016B01C40ED51ECC15DD05AF
:1043700069F06991D701ED91FC910190F081E02DF8
:10438000C7011995F3CF642F0E94C722C801DF919E
:10439000CF911F910F91FF90EF90DF90CF900895F4
:1043A000CF93DF931F92CDB7DEB769832091580575
:1043B0002223D1F020915905203240F021E030E055
:1043C000FC013383228380E090E015C080915A0580
:1043D000E82FF0E0E55AFA4F998190838F5F809340
:1043E0005A058093590505C061E0CE0101960E94EF
:1043F000C72281E090E00F90DF91CF910895FC01FA
:104400001382128248EE53E060E070E044835583EB
:10441000668377838DEC93E0918380830895109277
:104420007C0510927B0510925A05109259050C9448
:104430002C22862F413208F040E26DE775E00E94A1
:104440004A2210927C0580937B0508950C941922D2
:104450008CE495E00C94FF2110920A0681E0809391
:1044600008061092070661E084E10E94B13361E022
:1044700085E10E94B133E9EBF0E080818E7F80839B
:1044800080818D7F808388E48093B80085E4809369
:10449000BC0008959F92AF92BF92CF92DF92EF92AD
:1044A000FF92CF93DF93A82ED62FC72FB42E922E34
:1044B00080E2841710F480E060C00E948F316B01AD
:1044C0007C0180910A06882361F00E948F316C196B
:1044D0007D098E099F096B3071058105910588F36F
:1044E000EACF91E090930A06909208068FEF8093AE
:1044F0009D051092E2058B0D8093E10590930906CE
:10450000909109068A2D880F892B80930906809146
:104510000706813041F410920706809109068093C6
:10452000BB0085EC01C085EE8093BC000E948F31FA
:104530006B017C0180910A06813061F40E948F3109
:104540006C197D098E099F096B30710581059105F4
:1045500088F3B1CF8091E2058B1510F4B090E2059D
:1045600083EE95E0ED2FFC2FDC012A2F281B2B1565
:1045700018F42D912193F9CF8B2DDF91CF91FF90DE
:10458000EF90DF90CF90BF90AF909F9008956132F1
:1045900098F420910A06243089F46093BF05FC0149
:1045A00081EC95E0DC012A2F281B261718F42191B5
:1045B0002D93F9CF80E0089581E0089582E0089579
:1045C00085ED8093BC008091BC0084FDFCCF1092EF
:1045D0000A06089585EC8093BC0010920A0608959F
:1045E0001F920F920FB60F9211240BB60F922F93BA
:1045F0003F934F935F936F937F938F939F93AF936B
:10460000BF93EF93FF938091B900887F803609F4C0
:104610009CC068F5883209F45BC090F4803109F4DD
:1046200054C038F4882309F4F5C0883009F44DC02B
:10463000F5C0883109F44CC0803209F45DC0EEC089
:10464000803409F468C048F4803309F455C08833D5
:1046500009F0E4C080939D05A8C0803509F44FC0DF
:10466000883509F45DC0883409F0D8C0D5C08839D0
:1046700009F4C6C0A8F4883709F467C038F488364E
:1046800009F463C0803709F460C0C8C0883809F4F1
:10469000B7C0803909F45FC0803809F0BFC05BC083
:1046A000803B09F485C038F4803A09F466C0883A42
:1046B00009F47EC0B3C0803C09F4A6C0883C09F46C
:1046C000A3C0883B09F489C0A9C08091090610C025
:1046D0009091E2058091E105981770F5E091E2056F
:1046E00081E08E0F8093E205F0E0ED51FA4F80817A
:1046F0008093BB0085EC85C080939D058DC0E091C3
:10470000E20581E08E0F8093E2058091BB00F0E02E
:10471000ED51FA4F80839091E2058091E1056DC0E3
:10472000E091E20581E08E0F8093E2058091BB006D
:10473000F0E0ED51FA4F80838091080681116CC042
:1047400081E08093070684EA60C083E080930A06D4
:1047500010929E05CFCF80919E05803208F050C008
:10476000E0919E0581E08E0F80939E058091BB00B5
:10477000F0E0E156FA4F8083BDCF80919E058032F4
:1047800030F4E0919E05F0E0E156FA4F10820E946D
:10479000E02260919E0570E0E0910306F09104062E
:1047A0008FE995E0199510929E050E94EA2236C085
:1047B00084E080930A061092C0051092BF05E09134
:1047C0000506F091060619958091BF05811105C077
:1047D00081E08093BF051092C105E091C00581E0A2
:1047E0008E0F8093C005F0E0EF53FA4F80818093E5
:1047F000BB009091C0058091BF05981708F47ACF4F
:1048000085E88093BC000AC085EC8093BC001092C0
:104810000A0604C010929D050E94E022FF91EF91CC
:10482000BF91AF919F918F917F916F915F914F91C8
:104830003F912F910F900BBE0F900FBE0F901F90C6
:104840001895CF93DF93EC0188859985009711F037
:104850000E948D358E8187FD05C060E0DF91CF918C
:104860000C947833DF91CF910895CF93DF93EC01CF
:104870008E8187FD07C061E00E94783360E08E8101
:104880000E94B13381E08983DF91CF910895EF9247
:10489000FF920F931F93CF93DF93EC017B018885E9
:1048A0009985009711F00E948D359D858A85981312
:1048B00003C083E090E002C084E090E08E9D800120
:1048C0008F9D100D9E9D100D11241D830C83C8011A
:1048D0000E94F53499878887009741F0A80160E02D
:1048E00070E00E943D37FB82EA8204C01D821C8278
:1048F0001B821A82DF91CF911F910F91FF90EF9051
:104900000895FC0141E095858285981340E0562F7B
:1049100052955695569553705587862F90E09C0179
:1049200074E0359527957A95E1F723702287959560
:10493000879595958795837083876370648781E0F9
:10494000808380859185892B51F081E0521380E02E
:10495000841729F062817381CF010C944724089554
:10496000CF92DF92EF92FF920F931F93CF93DF933B
:10497000CDB7DEB729970FB6F894DEBF0FBECDBF17
:104980008C01DC0118968D919C911997892B09F463
:104990009AC00E949B31F801C684D784E088F188D0
:1049A0006C197D098E099F09623371058105910596
:1049B00080F3F894848195819A838983A085B18559
:1049C0007D01EFEFEE1AFE0A8C918987D8019C9148
:1049D00052960D90BC91A02DF8018489992309F479
:1049E0002EC09C91982B98879C91809589238F83CA
:1049F0008F818E8388E08D8358856F8149853D81C5
:104A00002E8189819A81F7015C9347FD252F3A9584
:104A10002C93262F39F0441F00C000006C93000037
:104A200000C0F2CF38E041916C930000019761F72C
:104A3000F801B38BA28B49873D832E8338C09C91AC
:104A4000982B98879C91809589238F838F818C8365
:104A500088E08B8358856F8149853B812C818981D2
:104A60009A81F7015C9347FD252F00C000C02C936D
:104A700000C000C000C000C000C06C930000262F22
:104A80003A9541F0441F000000C000C000C000C0C3
:104A900000C0E8CF38E0419100C06C9300C001979E
:104AA00009F7F801B38BA28B49873B832C839A8348
:104AB000898378940E949B31D8011E966D937D93D3
:104AC0008D939C93519729960FB6F894DEBF0FBE35
:104AD000CDBFDF91CF911F910F91FF90EF90DF90AD
:104AE000CF9008951F93CF93DF93EC01162F898108
:104AF000882331F08E8187FD03C060E00E94783307
:104B00001E838981882341F061E0812F0E947833E0
:104B100060E0812F0E94B133812F90E0FC01EC51C5
:104B2000FB4FE491F0E0EE0FFF1FE65DFA4F259199
:104B300034913B8B2A8BFC01E256FB4F84918C8B8A
:104B4000DF91CF911F910895EF92FF920F931F93E2
:104B5000CF93DF931F92CDB7DEB77C018B01FC01B1
:104B6000118217821186108616861786108A118A7E
:104B7000622F49830E948124B801C7010E94472403
:104B80004981642FC7010F90DF91CF911F910F9141
:104B9000FF90EF900C947225CF92DF92EF92FF92EC
:104BA0000F931F93CF93DF93FC018281938168174A
:104BB000790708F04DC0CA01AA27BB27182FC32EBA
:104BC000D42EE52EFF24DC2DC22F0781002361F0B7
:104BD000809FC0011124192FC09E60011124DD2D7A
:104BE000209FC0011124C92FF5848285A085B1853D
:104BF000F81208C0CB01880F991F860F971F8A0FE4
:104C00009B1F17C0CB01880F991F880F991F8A0F10
:104C10009B1F452F552766277727DC01AF0DB11D58
:104C2000002329F0409F90011124232F01C0242F3D
:104C30002C932285DC01A20FB11D1C932385DC017E
:104C4000A20FB11DDC932485FC01E20FF11DC0838E
:104C5000DF91CF911F910F91FF90EF90DF90CF9058
:104C60000895962F50E060E070E0592B682BCB013F
:104C7000BA010895FC0124853585F901E05CFF4FF8
:104C800080819181F901EE5BFF4F20813181821B90
:104C9000930B8F7399270895FC0184859585FC01FA
:104CA000E05CFF4F40815181FC01EE5BFF4F2081B2
:104CB00031814217530741F00190F081E02DE80F58
:104CC000F91F808190E008958FEF9FEF0895FC0118
:104CD00084859585FC01E05CFF4F40815181FC019A
:104CE000EE5BFF4F208131814217530779F0A0819D
:104CF000B181A80FB91F8C91208131812F5F3F4F67
:104D00002F7333273183208390E008958FEF9FEF37
:104D10000895FC0181A1882329F0A489B5898C918B
:104D200086FFFBCF11A20895CF93DF93FC01268568
:104D30003785D901A05CBF4F8D919C911197019649
:104D40008F739927E901CE5BDF4F48815981841722
:104D50009507D9F30D90BC91A02DA20FB31F6C93B2
:104D6000A685B785A05CBF4F11969C938E93A689AC
:104D7000B7892C9181E090E0078C02C0880F991FC1
:104D80000A94E2F7282B2C9381E081A30488F5890B
:104D9000E02D80818064808381E090E0DF91CF917D
:104DA0000895FB01E05CFF4F208131812F5F3F4F71
:104DB0002F733327DB01AE5BBF4F4D915C912417FE
:104DC000350739F0A081B181A60FB71F8C933183CD
:104DD0002083089508951F920F920FB60F92112409
:104DE0000BB60F922F933F934F935F936F937F93E5
:104DF0008F939F93AF93BF93EF93FF938091C000E6
:104E000082FD07C08091C6006FE678E00E94D1263F
:104E100002C08091C600FF91EF91BF91AF919F9129
:104E20008F917F916F915F914F913F912F910F9053
:104E30000BBE0F900FBE0F901F90189508951F92F4
:104E40000F920FB60F9211240BB60F922F933F9330
:104E50004F935F936F937F938F939F93AF93BF9382
:104E6000EF93FF938091C80082FD07C08091CE0030
:104E700067EE77E00E94D12602C08091CE00FF91BC
:104E8000EF91BF91AF919F918F917F916F915F91C2
:104E90004F913F912F910F900BBE0F900FBE0F902F
:104EA0001F90189508951F920F920FB60F9211241C
:104EB0000BB60F922F933F934F935F936F937F9314
:104EC0008F939F93AF93BF93EF93FF938091D00005
:104ED00082FD07C08091D6006FE577E00E94D12661
:104EE00002C08091D600FF91EF91BF91AF919F9149
:104EF0008F917F916F915F914F913F912F910F9083
:104F00000BBE0F900FBE0F901F90189508951F9223
:104F10000F920FB60F9211240BB60F922F933F935F
:104F20004F935F936F937F938F939F93AF93BF93B1
:104F3000EF93FF938091300182FD07C0809136018D
:104F400067ED76E00E94D12602C080913601FF9184
:104F5000EF91BF91AF919F918F917F916F915F91F1
:104F60004F913F912F910F900BBE0F900FBE0F905E
:104F70001F90189581E796E00E943A26892B11F040
:104F80000E94EA268FE496E00E943A26892B11F0CF
:104F90000E941E278DE296E00E943A26892B11F08E
:104FA0000E9452278BE096E00E943A26892B11F04E
:104FB0000C94862708951F920F920FB60F9211241A
:104FC0000BB60F922F933F938F939F93EF93FF9383
:104FD00020916B0830916C0880916D0890916E085B
:104FE0002817390731F48091C1008F7D8093C1006B
:104FF00014C0E0916D08F0916E08E55DF74F2081D7
:1050000080916D0890916E0801968F739927909307
:105010006E0880936D082093C600FF91EF919F91D9
:105020008F913F912F910F900BBE0F900FBE0F905D
:105030001F9018951F920F920FB60F9211240BB666
:105040000F922F933F938F939F93EF93FF93209112
:10505000E3073091E4078091E5079091E607281770
:10506000390731F48091C9008F7D8093C90014C045
:10507000E091E507F091E607ED55F84F208180912A
:10508000E5079091E60701968F7399279093E607BD
:105090008093E5072093CE00FF91EF919F918F9130
:1050A0003F912F910F900BBE0F900FBE0F901F904E
:1050B00018951F920F920FB60F9211240BB60F92F4
:1050C0002F933F938F939F93EF93FF9320915B07D1
:1050D00030915C0780915D0790915E072817390732
:1050E00031F48091D1008F7D8093D10014C0E09184
:1050F0005D07F0915E07E55EF84F208180915D07C6
:1051000090915E0701968F73992790935E07809325
:105110005D072093D600FF91EF919F918F913F9172
:105120002F910F900BBE0F900FBE0F901F901895F0
:105130001F920F920FB60F9211240BB60F922F935E
:105140003F938F939F93EF93FF932091D3063091DA
:10515000D4068091D5069091D6062817390731F4E8
:10516000809131018F7D8093310114C0E091D5068B
:10517000F091D606ED56F94F20818091D506909199
:10518000D60601968F7399279093D6068093D506FD
:1051900020933601FF91EF919F918F913F912F9135
:1051A0000F900BBE0F900FBE0F901F901895CF92CF
:1051B000DF92EF92FF92CF93DF93EC016A017B01C4
:1051C000411581EE580761057105F9F0EC89FD89FB
:1051D00081E090E008A002C0880F991F0A94E2F7CE
:1051E000808360E079E08DE390E0A70196010E9462
:1051F0003634215031094109510956954795379563
:105200002795211580E1380798F0EC89FD891082F7
:1052100060E874E88EE190E0A70196010E943634C0
:1052200021503109410951095695479537952795E0
:10523000E889F9893083EA89FB89208319A2EE89FC
:10524000FF89408181E090E09C010C8C02C0220F1C
:10525000331F0A94E2F7422B4083EE89FF89408195
:105260009C010D8C02C0220F331F0A94E2F7422BDF
:105270004083EE89FF8940819C010E8C02C0220F81
:10528000331F0A94E2F7422B4083EE89FF89208185
:105290000F8C02C0880F991F0A94E2F78095822331
:1052A0008083DF91CF91FF90EF90DF90CF900895B2
:1052B000CF93109274061092730688EE93E0A0E0EC
:1052C000B0E08093750690937606A0937706B0932E
:1052D00078062DED33E030937206209371064FE689
:1052E00058E050937E0640937D064BE258E0509381
:1052F000800640937F0645EC50E050938206409331
:10530000810644EC50E0509384064093830640ECC1
:1053100050E0509386064093850641EC50E0509350
:1053200088064093870642EC50E050938A064093EB
:10533000890646EC50E050938C0640938B06C4E0FF
:10534000C0938D06F3E0F0938E06E7E0E0938F06BE
:1053500075E07093900661E060939106109252069A
:10536000109251068093530690935406A0935506CD
:10537000B09356063093500620934F0647EE57E001
:1053800050935C0640935B0643EA57E050935E06F9
:1053900040935D064DEC50E05093600640935F06ED
:1053A0004CEC50E0509362064093610648EC50E0AC
:1053B000509364064093630649EC50E050936606B0
:1053C000409365064AEC50E05093680640936706A8
:1053D0004EEC50E050936A0640936906C0936B060A
:1053E000F0936C06E0936D0670936E0660936F0603
:1053F0001092300610922F06809331069093320659
:10540000A0933306B093340630932E0620932D06D6
:105410004FE557E050933A06409339064BE157E089
:1054200050933C0640933B0645ED50E050933E06BA
:1054300040933D0644ED50E05093400640933F06B4
:1054400040ED50E0509342064093410641ED50E05C
:10545000509344064093430642ED50E05093460675
:105460004093450646ED50E050934806409347066A
:10547000C0934906F0934A06E0934B0670934C069E
:1054800060934D0610920E0610920D0680930F0643
:1054900090931006A0931106B093120630930C0659
:1054A00020930B0687ED96E09093180680931706DD
:1054B00083E996E090931A068093190685E391E0BC
:1054C00090931C0680931B0684E391E090931E0644
:1054D00080931D0680E391E09093200680931F0641
:1054E00081E391E0909322068093210682E391E08C
:1054F000909324068093230686E391E090932606FA
:1055000080932506C0932706F0932806E09329068A
:1055100070932A0660932B06CF910895AF92BF92A5
:10552000CF92DF92EF92FF920F931F93CF93DF936F
:105530006C017B01C0E0D0E000E010E0F601EC0F70
:10554000FD1F4AE050E06281C7010E94A42C5C016B
:105550006EE2C7010E94712B8A0D9B1D080F191F57
:105560002196C330D10551F74AE050E0F60165813C
:10557000C7010E94A42C800F911FDF91CF911F9132
:105580000F91FF90EF90DF90CF90BF90AF90089574
:105590008DEE93E09093B4088093B3081092B50811
:1055A0001092B6081092B7081092B8080895CF92DA
:1055B000DF92EF92FF920F931F93CF93DF936C01D3
:1055C0007A01EB01E60EF71E00E010E0CE15DF05D4
:1055D00061F06991D601ED91FC910190F081E02D8F
:1055E000C6011995080F191FF1CFC801DF91CF919E
:1055F0001F910F91FF90EF90DF90CF90089561156C
:10560000710581F0DB010D900020E9F7AD014150FB
:105610005109461B570BDC01ED91FC910280F3818F
:10562000E02D199480E090E00895EF92FF920F939F
:105630001F93CF93DF938C01FB01C0E0D0E0649116
:105640007F018FEFE81AF80A662361F0D801ED9127
:10565000FC910190F081E02DC8011995C80FD91F68
:10566000F701EDCFCE01DF91CF911F910F91FF9008
:10567000EF900895AF92BF92CF92DF92EF92FF9298
:105680000F931F93CF93DF937C016B01C0E0D0E0B9
:1056900000E010E0D60114968D919C911597C817E3
:1056A000D90788F4D701ED91FC91A080B180BE01AB
:1056B000C6010E942A2F682FC701F5011995080F0E
:1056C000191F2196E7CFC801DF91CF911F910F914C
:1056D000FF90EF90DF90CF90BF90AF9008950C9423
:1056E000FF2ADC01ED91FC910190F081E02D1994ED
:1056F0000F931F93CF93DF93EC016DE00E94712B0A
:105700008C016AE0CE010E94712B800F911FDF9106
:10571000CF911F910F9108950F931F93CF93DF9314
:10572000EC010E94152B8C01CE010E94782B800F7A
:10573000911FDF91CF911F910F9108950F931F93A8
:10574000CF93DF93EC010E943A2B8C01CE010E9493
:10575000782B800F911FDF91CF911F910F910895AA
:105760000F931F93CF93DF93EC010E94FF2A8C01CC
:10577000CE010E94782B800F911FDF91CF911F9156
:105780000F9108958F929F92AF92BF92CF92DF9226
:10579000EF92FF920F931F93CF93DF93CDB7DEB7B6
:1057A000A1970FB6F894DEBF0FBECDBF7C01C42E0B
:1057B000E52FCB01D22E19A221E02D1510F02AE001
:1057C000D22E8E010F5D1F4F8D2C912CA12CB12C50
:1057D0006C2D7E2FA50194010E9436348C2DD29E13
:1057E00080191124015011098A3014F4805D01C020
:1057F000895CF8018083211531054105510521F0AF
:10580000C22EE32FCA01E4CFB801C7010E94FF2ACC
:10581000A1960FB6F894DEBF0FBECDBFDF91CF913A
:105820001F910F91FF90EF90DF90CF90BF90AF90BE
:105830009F908F900895CF92DF92EF92FF920F93F7
:105840001F93CF93DF93EC016A017B012115310592
:1058500079F4E881F9810190F081E02D642FDF91E6
:10586000CF911F910F91FF90EF90DF90CF901994FF
:105870002A303105E9F477FF1AC06DE20E94712BDE
:105880008C0144275527BA014C195D096E097F091F
:105890002AE0CE010E94C22B800F911FDF91CF9191
:1058A0001F910F91FF90EF90DF90CF9008952AE025
:1058B000B701A601CE01DF91CF911F910F91FF900B
:1058C000EF90DF90CF900C94C22B9A01AB0166272A
:1058D00057FD6095762F0C941B2C0F931F93CF933D
:1058E000DF93EC019A01AB01662757FD6095762F97
:1058F0000E941B2C8C01CE010E94782B800F911FDF
:10590000DF91CF911F910F9108950F931F93CF9324
:10591000DF93EC010E941B2C8C01CE010E94782B9E
:10592000800F911FDF91CF911F910F910895211545
:10593000310541F4DC01ED91FC910190F081E02D05
:10594000642F19940C94C22B9A01462F50E060E00A
:1059500070E00C94972C9A01AB0160E070E00C941D
:10596000972C0F931F93CF93DF93EC010E948F31FD
:10597000688779878A879B87E881F9810680F78124
:10598000E02DCE01199597FF15C00E948F31088533
:1059900019852A853B85601B710B820B930B0C814B
:1059A0001D812E813F81601771078207930720F3C5
:1059B0008FEF9FEFDF91CF911F910F910895FC0121
:1059C00044835583668377830895CF92DF92EF9265
:1059D000FF920F931F93CF93DF937C016A01EB013A
:1059E00000E010E00C151D0549F0C7010E94B12C24
:1059F00097FD04C089930F5F1F4FF4CFC801DF915B
:105A0000CF911F910F91FF90EF90DF90CF9008956D
:105A10008230A9F028F4882349F0813051F00895AC
:105A2000843009F1E8F0853009F1089510926E0094
:105A3000089580916F008D7F80936F00089580910D
:105A400070008D7F8093700081E08093B000809122
:105A5000B100887F84608093B1001092B3000895F4
:105A600010927100089510927200089510927300C0
:105A70000895CF93C82F80910A028C1307C0E7E5E1
:105A8000F4E084919FEF90930A0201C08FEF0E948F
:105A9000082D60E08C2FCF910C94B1331F920F92A0
:105AA0000FB60F9211240BB60F922F933F934F9383
:105AB0005F936F937F938F939F93AF93BF93EF9376
:105AC000FF938091BC089091BD08A091BE08B09151
:105AD000BF08892B8A2B8B2B51F19091B908E0914B
