:100000000C94E4030C94492C0C947A2C0C94AB2C97
:100010000C94DC2C0C940D2D0C943E2D0C946F2D17
:100020000C94A02D0C94E31F0C940B200C94332003
:100030000C9415040C94DA290C9415040C941504F2
:100040000C9415040C94431D0C9415040C94150485
:100050000C9415040C9415040C9415040C94D12DD7
:100060000C9415040C947D230C946D240C941504AD
:100070000C9415040C9415040C9415040C9415049C
:100080000C94711D0C9415040C9415040C94150417
:100090000C94B1230C94AC240C9415040C949B2167
:1000A0000C9415040C9415040C949F1D0C941504C9
:1000B0000C9415040C9415040C9415040C94CD1D8B
:1000C0000C9415040C9415040C9415040C94E5235D
:1000D0000C94EB240C9415040C9419240C942A25EC
:1000E0000C9415049608AB08DF08E608F108F1083F
:1000F000F108F10857095A091E2F232F282F322FF4
:10010000AB2F3C2F442F4C2F562F602F6A2F792F67
:10011000832FAB2F8D2F972FA12FC92FCC2FBF2F20
:10012000C32F0330D02FD42FDA2FDE2FE22FE82F6A
:10013000EC2FF02F0330F62FFA2FFE2F6E6561742F
:100140006F005350006C6174656E637900006865E0
:10015000617274626561740000626D730000616EAB
:10016000616C6F6700500070776D005000736572AE
:10017000766F005000626164204D65676120736591
:100180007269616C20003A20002073656E736F7293
:1001900020003220696E6465782000616E616C6FAA
:1001A0006720696E7075742076616C756520667263
:1001B0006F6D203020746F203130323300737472D1
:1001C000656E6774682066726F6D203020286F66D8
:1001D000662920746F2032353520286F6E29003A49
:1001E000200020636F6D6D616E6420003320696EA6
:1001F00064657820006261642070696E200062612D
:100200006420616E616C6F672070696E2000636F9F
:100210006D6D616E646564206F7269656E74617482
:10022000696F6E20696E206465677265657300632F
:100230007265617465320053007361626572746F38
:100240006F7468320053007361626572746F6F740B
:1002500068310053006274730050505050003920D0
:10026000456E74657220796F757220746162756C69
:100270006120646576696365206E616D6573206ECB
:100280006F773A0062616420696E74002720776896
:10029000696C6520636F6E6669677572696E672049
:1002A0000020270030204552524F523A2000626110
:1002B0006420636F6D6D616E64006C6F6F70210000
:1002C00072657365742100417267756D656E742087
:1002D000666F726D61743A205320697320612053F8
:1002E000657269616C20706F72742C206C696B652B
:1002F00020583320666F72205458332F5258332EB3
:1003000020205020697320612050696E2C206C6978
:100310006B652070696E2031332C206F7220413361
:100320002E005468697320697320686F7720796F95
:100330007520636F6E66696775726520796F757277
:100340002041726475696E6F2061742072756E74DD
:10035000696D652E202052656769737465726564E6
:1003600020646576696365733A006C697374002074
:10037000627974657320667265650072616D3F0015
:1003800020746F2076616C756520003120207365C4
:10039000742031362062697420636F6D6D616E6404
:1003A00020696E6465782000636D643136002074C6
:1003B0006F2076616C756520003120207365742094
:1003C000636F6D6D616E6420696E64657820006393
:1003D0006D640031202000636F6D6D616E64733F4A
:1003E000003120200073656E736F72733F003120FF
:1003F000323031352D30372D303320436875676901
:10040000616B0076657273696F6E3F007365726928
:10041000616C5F636F6E74726F6C6C65720031201B
:10042000416464656420646576696365200045788D
:10043000706563746564200073657269616C5F63E5
:100440006F6E74726F6C6C65720000020000090AB6
:1004500002080B0C0D070603040100000000000059
:10046000000000000000000000000000000000008C
:10047000000000000000000011100F00000000004C
:10048000000000000000000000000000000000006C
:100490000000010210202008081020401020408099
:1004A0000201020108040201010204081020408038
:1004B00080402010080402018004020180402010C6
:1004C000080402010804020101020408102040800F
:1004D00001020408102040800505050507050808ED
:1004E0000808020202020A0A0808040404040101BE
:1004F00001010101010103030303030303030407D3
:1005000007070C0C0C0C0C0C0C0C02020202060669
:100510000606060606060B0B0B0B0B0B0B0B00005F
:100520002200250028002B002E003100340002019B
:100530000000050108010B01000021002400270034
:100540002A002D00300033000101000004010701E2
:100550000A010C943C2F0C94420E0C945E0E0C94E9
:1005600069270C945E050C94090E0C9425050C94D7
:100570002B050C946B040C94322F0C94EA250C94EC
:10058000602F0C9486200C94700D0C944C240C94C9
:100590001E2F0C94CB100C9473050C944F0F0C94DD
:1005A000AB080C94442F0C94FF100C94F5040C949D
:1005B00057050C94F8190C941B0E0C94801C0C9489
:1005C000490E0C94A4050C9496050C94E1040C942B
:1005D000562F0C9450050C94E7040C946C050C9465
:1005E0004B0D0C94F9220C94972F0C947A050C94D3
:1005F00023040C9420270C9417040C94270E0C94BD
:100600000F0E0C949D050C948F050C9419050C94F9
:100610006A2F0C943B0E0C94430C0C94792F0C9481
:1006200026230C94E5110C94030C0C94B3200C9429
:10063000FD0D0C94A12F0C94150E0C94CC2F0C9442
:10064000482C0C94CD0B0C9407050C94910C0C9435
:1006500085200C9437050C94FB040C9457070C94DC
:10066000C9050C9401050C948C0D0C94C10E0C94CE
:10067000E6080C94DE220C94E22F0C94570E0C9496
:1006800096080C945B200C94FE1B0C9457090C9458
:1006900074100C94DA2F0C94440A0C9463200C947C
:1006A00043050C9454120C94F1080C94AB2F0C9449
:1006B000E82F0C940D050C94340E0C94DF080C9468
:1006C000281A0C9413050C94A6110C946C0E0C941F
:1006D000AF0D0C94DF040C94B2050C94CC220C9456
:1006E0001F050C9431050C948D2F0C94700B0C94F9
:1006F000BF2F0C94650E0C940C210C94C92F0C94F4
:1007000049050C94920D0C94D30D0C9481050C9416
:100710001B230C94282F0C941D040C9403300C9470
:100720005A270C94FE190C9465050C94D42F0C9444
:10073000210E0C944C2F0C94511C0C94030E0C9411
:10074000EC2F0C94481A0C94F02F0C94FC070C948A
:1007500030060C94B9050C943D050C94D6040C9409
:1007600088050C9458060C945A090C94F62F0C9496
:10077000AB050C943E1A0C94232F0C94C32F0C94AD
:10078000DE2F0C94500E0C942A040C944D0D0C94F6
:1007900060060C94AB0B0C94FE2F0C94832F0C94DE
:1007A000EF040C942D0E0C9476200C94D02F0C9406
:1007B000FA2FD604910CE511511C0C21EA255A2779
:1007C000DF044B0D5412801C11241FBECFEFD1E269
:1007D000DEBFCDBF00E00CBF13E0A0E0B2E0E0E080
:1007E000F8E600E00BBF02C007900D92AC3DB107E8
:1007F000D9F718E0ACEDB3E001C01D92A23CB107FF
:10080000E1F717E0C0ECD7E000E006C0229701094D
:10081000FE010BBF0E941831C23BD10780E00807E0
:10082000A9F70E94372C0C94EE330C94000020E1C1
:1008300032E0FC0131832083089520E132E0FC01A5
:1008400031832083089520E132E0FC01318320834D
:100850000C94462C20E132E0FC01318320830C947F
:10086000462C0F931F93CF93DF93C8EED3E0BA913A
:10087000AA91109781F012960C91129713961C91E1
:100880001397ED91FC9111970280F381E02DCD013A
:100890001995D801EECF1982188283E0CC3DD80794
:1008A00031F7DF91CF911F910F910895CF93DF938F
:1008B000FC01C081D181209759F0E881F981048041
:1008C000F581E02DCE0119950A80DB81C02DF3CF93
:1008D000DF91CF910895CF93DF93EC018091E803EE
:1008E0009091E9032E813F81821B930B2C813D81E6
:1008F0008217930750F0888599850E94560480914D
:10090000E8039091E9039F838E83DF91CF9108954F
:10091000DF92EF92FF920F931F93CF93DF93C0E08C
:10092000D0E001E010E08AE1E82E82E0F82E9AE0C3
:10093000D92E8AE090E00E94442CFC01F182E082F2
:100940001583048317821682CE0182529C4F9187B1
:1009500080878091DC039091DD0393838283F09301
:10096000DD03E093DC03C801D89E8001D99E100D01
:1009700011242296CA30D105E1F6DF91CF911F9163
:100980000F91FF90EF90DF9008950E94272E2AE0AC
:1009900096958795779567952A95D1F77093E90392
:1009A0006093E8038CED93E00C945604ECEDF3E0D7
:1009B0001192119283E0E83EF807D1F708950C9464
:1009C000310422E332E0FC01318320830895DC010D
:1009D0001496ED91FC91159715821482089522E3E7
:1009E00032E0FC0131832083089520E132E0FC01F4
:1009F00031832083089522E332E0FC013183208398
:100A0000089520E132E0FC0131832083089520E144
:100A100032E0FC0131832083089522E332E0FC01BF
:100A200031832083089520E132E0FC01318320836B
:100A3000089522E332E0FC0131832083089520E110
:100A400032E0FC0131832083089522E332E0FC018F
:100A500031832083089520E132E0FC01318320833B
:100A6000089522E332E0FC0131832083089520E1E0
:100A700032E0FC0131832083089522E332E0FC015F
:100A800031832083089520E132E0FC01318320830B
:100A9000089522E332E0FC01318320830C94462C3C
:100AA00022E332E0FC01318320830C94462C20E1C8
:100AB00032E0FC01318320830C94462C22E332E0A7
:100AC000FC01318320830C94462C20E132E0FC01B0
:100AD000318320830C94462C20E132E0FC013183E9
:100AE00020830C94462C22E332E0FC0131832083E6
:100AF0000C94462C20E132E0FC01318320830C94DD
:100B0000462C22E332E0FC01318320830C94462CF6
:100B100020E132E0FC01318320830C94462C22E357
:100B200032E0FC01318320830C94462C20E132E03A
:100B3000FC01318320830C94462C22E332E0FC013B
:100B4000318320830C94462C20E132E0FC01318378
:100B500020830C94462C22E332E0FC013183208375
:100B60000C94462C20E132E0FC01318320830C946C
:100B7000462CE0914E04F0914F04DC0117962D9124
:100B80003C911897E20FF31F608170E004960C947B
:100B90000F1FE0914E04F0914F04DC0116962D9149
:100BA0003C911797E20FF31F608170E014968C91CF
:100BB0000C94F82ECF92DF92EF92FF920F931F9337
:100BC000CF93DF93EC017B018A0169016CEE71E048
:100BD000888199810E94A7274AE050E0B601888168
:100BE00099810E94F72862EE71E0888199810E94C4
:100BF000A727B701888199810E9401286FED71E0D4
:100C0000888199810E94A727B80188819981DF9105
:100C1000CF911F910F91FF90EF90DF90CF900C94A8
:100C20001E2882E392E09093EB038093EA03909373
:100C3000F3038093F2039093FB038093FA03909362
:100C400003048093020490930B0480930A0490930E
:100C500013048093120490931B0480931A04089544
:100C6000CF93DF93EC018C810E94D32EE09152044C
:100C7000F09153042E813F81E20FF31F9183808313
:100C8000DF91CF910895E0915204F0915304DC017B
:100C90002D913C911197E20FF31F6083E091520474
:100CA000F09153048D919C91E80FF91F8081089574
:100CB000FC01648121E0260F248305960C944306F1
:100CC000CF93DF93EC010E94272E2AE0969587951B
:100CD000779567952A95D1F72E813F81AB01421B0D
:100CE000530B9A014C815D814217530710F43D83E9
:100CF0002C837F836E836C81CE010896DF91CF9128
:100D00000C9443060F931F93CF93DF93EC018B0159
:100D100064E973E00E94EF2AD80112966C91129751
:100D2000662319F012961C9211C0F80180819181FE
:100D3000DC01ED91FC910680F781E02D19951816E4
:100D400019061CF00E94C504F0CF682F623221F30F
:100D5000673211F388ED860F603251F06A3041F04E
:100D60006D3031F0823020F06C3211F06B3399F439
:100D7000823010F06B3311F4F801628364E973E0A0
:100D8000CE010E94852B8111C7CFCE01DF91CF917B
:100D90001F910F910895CE010E94712BBDCFBF927C
:100DA000CF92DF92EF92FF920F931F93CF93DF9337
:100DB000CDB7DEB72E970FB6F894DEBF0FBECDBF0E
:100DC0008C01BC01CE0108960E948206CE010896D5
:100DD0000E94182C60E070E0CE0108960E94A42BBF
:100DE000FC0180818134B9F441E050E0BE01685FCC
:100DF0007F4FCE0101960E940C2CBE016F5F7F4F8A
:100E0000CE0108960E94062BCE0101960E94812AEF
:100E1000BB24B39401C0B12CCE0108960E942C2CA7
:100E2000BB2081F0613171058105910544F46B01AE
:100E30007C01F6E3CF0ED11CE11CF11C22C08EEF29
:100E400091E00FC06B017C01F1E0CF1AD108E108FD
:100E5000F10825E3C216D104E104F10480F085EF26
:100E600091E0F80194838383BE01685F7F4FC801DE
:100E700005960E94062BC12CD12C760102C06B0175
:100E80007C01CE0108960E94812AC701B6012E96E8
:100E90000FB6F894DEBF0FBECDBFDF91CF911F918B
:100EA0000F91FF90EF90DF90CF90BF9008958F92B9
:100EB0009F92AF92BF92CF92DF92EF92FF920F93E9
:100EC0001F93CF93DF93EB01CB010E94CF066B0101
:100ED0007C0188E090E00E94442C8C0188E0D801DD
:100EE0001D928A95E9F7F8011382128284E692E056
:100EF00091838083E4E5F4E0A080B180B5016E5F6A
:100F00007F4F7183608332E5832E34E0932ED401CA
:100F10008D919C910E94A832F40191838083FC0101
:100F2000EA0DFB1D11821082D8011796BC92AE9279
:100F300016971596DC92CE92149762E971E088813B
:100F400099810E94A7274AE050E0B50188819981E4
:100F50000E94F72869E871E0888199810E94A7279B
:100F600060E272E0888199810E94012866E871E060
:100F7000888199810E94A7276BE971E08881998116
:100F80000E941E28E0EEF3E080819181D801139643
:100F90009C938E93129711830083DF91CF911F91C1
:100FA0000F91FF90EF90DF90CF90BF90AF909F9008
:100FB0008F9008952091440430914504FC013783BB
:100FC000268390934504809344040895FC018FEF99
:100FD000808383E081831382128220E030E03496A4
:100FE000DF01A20FB31F1C9211961C922E5F3F4F80
:100FF00028313105A9F708952F923F924F925F92C1
:101000006F927F928F929F92AF92BF92CF92DF9218
:10101000EF92FF920F931F93CF93DF9300D000D0F6
:10102000CDB7DEB73C01A9EE2A2EA3E03A2E2C0163
:1010300022E5420E511C8C010C5A1F4F9C01205C72
:101040003F4F3E832D836C0136E5C30ED11C5C01FE
:1010500062E4A60EB11C7C0174E4E70EF11C4C01A5
:1010600086E4880E911C9301285B3F4F3A832983C5
:10107000D301DC968D919C91DD97DC01ED91FC9183
:101080000480F581E02D1995892B09F489C1F301BC
:1010900084AD95ADDC01ED91FC910680F781E02DEA
:1010A00019958F3FBFEF9B0709F47AC1F2012081A8
:1010B0003181232B31F0D8018D939C9311821082C2
:1010C00028C0382F2227F80140815181242B352B4D
:1010D00031832083AD81BE814D915C9149305105B2
:1010E00099F0F6014081518162817381440F551F4F
:1010F000661F771F420F531F611D711DD6014D934F
:101100005D936D937C93139721E030E0F20131837E
:101110002083AD81BE812D913C912A30310508F0AC
:1011200038C1F901EE58FF4F0C94EF308A3F91051A
:1011300009F02FC1F6011082118212821382D801A8
:101140008D939C93F20111821082D5011D921C9205
:1011500081E090E023C0805A91098A35910518F505
:10116000880F991F880F991FD301DF969C938E9348
:10117000DE9714962C91149715964C911597342F51
:10118000337031FF09C014968C9314979370842F99
:101190008C7F892B15968C9382E090E0ED81FE8107
:1011A00091838083F6C0D30115968C9115978C5F3F
:1011B00015968C93ED81FE8111821082EAC083E046
:1011C00090E0AD81BE818D939C93E3C0F801808156
:1011D0009181D30117969C938E93169784E090E0AB
:1011E000DDCFD5018D919C918130910541F0833007
:1011F000910559F4F80140815181D40104C0F801EE
:1012000040815181D7014D935C930196F501918303
:101210008083049709F0BDC0D7018D919C911197EF
:1012200097FF02C01D921C92F7018081918196FF69
:1012300003C09F739183808380E090E0F40140813C
:1012400051814115510549F0569547955695479559
:10125000D4014D935C930196F1CF8830910510F045
:1012600087E090E0D4018D939C93F7019081A98150
:10127000BA819C9391818295880F807E9F71982B73
:1012800011969C931197F9017F96EE0FFF1FE60DC3
:10129000F71D8D919C9195838483F50111821082B5
:1012A0002F5F3F4FAD81BE812D933C9372C089E08B
:1012B00090E074CFAD81BE811D921C92F6018081B9
:1012C0009181A281B381AC01BD012FE07695679534
:1012D000579547952A95D1F7840F951F9F77D80189
:1012E0002D913C91F30146AD57AD8217930721F044
:1012F00085818C5F858338C080E090E093012C5F0E
:101300003F4F3C832B83FC01E40FF51FD301149660
:101310002C91149715966C91362F3370A6E0220FFE
:10132000331FAA95E1F7B6E035952795BA95E1F711
:10133000E21BF30BEC30F10598F43296EE0FFF1F31
:10134000E60DF71D9C01220F331F6B817C81260F58
:10135000371F2A5B3F4FD9012D913C913583248360
:1013600001968430910579F6CA0104966CE070E02C
:101370000E949A30892B69F48CE1F3013496D301F1
:10138000909601900D928A95E1F7C30104960E9410
:10139000E607F1E02F1A31082114310409F068CE74
:1013A000A0915204B0915304F301E65AFF4F80819B
:1013B0009181A80FB91F8CE1F301B09601900D92B5
:1013C0008A95E1F77301BCE5EB0EF11C61E0F701D2
:1013D00080810E94043080915604882391F1D301CA
:1013E00092960D911C919397B80180E090E00E9435
:1013F0001C3120E030E048E453E40E947D311816AF
:101400002CF546E0169507954A95E1F708511140ED
:101410002AE0209FC001219F900D1124823EBFEF42
:101420009B0764F0823E910564F426EF2003B0012F
:10143000219F700D11246F517F4F05C06FEF70E039
:1014400002C060E070E0F701808104C06FEF70E0DF
:10145000D7018C9126960FB6F894DEBF0FBECDBF94
:10146000DF91CF911F910F91FF90EF90DF90CF9080
:10147000BF90AF909F908F907F906F905F904F90B4
:101480003F902F900C94F82EAF92BF92CF92DF92A4
:10149000EF92FF920F931F93CF93DF93CDB7DEB7F9
:1014A000C455D1090FB6F894DEBF0FBECDBF8B0176
:1014B000CE0101960E948206CE0101960E94182C50
:1014C00060E070E0CE0101960E94A42BFC018081B7
:1014D000883501F561E070E0CE0101960E94A42BF1
:1014E000FC018081823371F0833339F0813391F4D0
:1014F00093E3A92E96E0B92E09C08FEEA82E85E0C1
:10150000B82E04C0B1E1AB2EB6E0BB2EA114B104DD
:1015100009F0B3C085E791E0F80194838383BE01AD
:101520006F5F7F4FC80105960E94062BA12CB12C3E
:10153000CE0101960E94812AC8010E94CF066B014C
:101540007C018EE590E00E94442C8C01FC0113820A
:1015500012828EEB92E091838083C80104960E94F0
:10156000E607C80180960E94E607F801B5AEA4AE72
:10157000E05CFF4F11821082F801EA5AFF4F10829F
:10158000118212821382F801EC5AFF4F11821082ED
:10159000F801EE5AFF4F81E090E091838083F801DB
:1015A000EE5BFF4F11821082F801EC5BFF4F11825E
:1015B0001082F801EA5BFF4F11821082F80117AE2A
:1015C00016AECE01C9960E94E6078CE1FE01F9969F
:1015D000DE015D9601900D928A95E1F78CE1FE01A6
:1015E0007D96DE01119601900D928A95E1F7A0900B
:1015F0005404B0905504B501645E7F4F7093550458
:101600006093540480915204909153040E94A83234
:101610009093530480935204DC01AA0DBB1D8CE10E
:10162000FE01319601900D928A95E1F7F801E65A94
:10163000FF4FB182A082F801E45AFF4FD182C082ED
:101640008091DE039091DF03F801938382831093EE
:10165000DF030093DE03CC5ADF4F0FB6F894DEBFF2
:101660000FBECDBFDF91CF911F910F91FF90EF90F3
:10167000DF90CF90BF90AF90089540E052EC61E0D2
:1016800070E0C5010E94692553CFFF920F931F930D
:10169000CF93DF93EC01F62E0A811B81B8016F5FB7
:1016A0007F4F7B836A83888199810E94A8329983C6
:1016B0008883FC01E00FF11FF082C801DF91CF9118
:1016C0001F910F91FF900895CF93DF93EC0182E576
:1016D00094E00E94450B99838883DF91CF91089510
:1016E000EF92FF920F931F93CF93DF9380E395E0E8
:1016F0000E94F22088E090E00E94442CEC011B82C2
:101700001A8288E792E0998388837E0184E0E80E5C
:10171000F11C60E0C7010E94640B8E010A5F1F4F3D
:1017200060E0C8010E94640B62E3C7010E944306A7
:1017300060E0C8010E944306E4EEF3E080819181FD
:101740009B838A83D183C083DF91CF911F910F91B7
:10175000FF90EF900895CF93DF9387E090E00E9491
:10176000442CEC0187E0FE0111928A95E9F71B8277
:101770001A828CE892E09983888360E0CE01059616
:101780000E94640BE2EEF3E0808191819B838A8367
:10179000D183C083DF91CF910895CF93DF938AE007
:1017A00090E00E94442CEC018AE0FE0111928A959F
:1017B000E9F71B821A8280EA92E09983888360E0CD
:1017C000CE0108960E94640BEEEDF3E080819181DA
:1017D0009B838A83D183C08386E090E00E94442C5F
:1017E000FC018AEA92E091838083D583C483A4EECE
:1017F000B3E08D919C91119793838283ED93FC9339
:10180000DF91CF910895CF92DF92EF92FF920F93E5
:101810001F93CF93DF938B01CB010E94CF066B0107
:101820007C0188E090E00E94442CEC0188E0FE01FD
:1018300011928A95E9F71B821A8280E592E09983DA
:10184000888360E08EE494E00E94450B9F838E8342
:10185000DD82CC829C014DEB51E066E272E0C80172
:101860000E94DA05E0EEF3E0808191819B838A8318
:10187000D183C083DF91CF911F910F91FF90EF90A3
:10188000DF90CF900895AF92BF92CF92DF92EF9208
:10189000FF920F931F93CF93DF938B01CB010E9495
:1018A000CF066B017C0189E090E00E94442CEC01A2
:1018B00089E0FE0111928A95E9F71B821A828CE376
:1018C00092E0998388835E01F4E0AF0EB11CC501FC
:1018D0000E94FB1D60E08EE494E00E94450B988717
:1018E0008F83B601C5010E94C61E2F8138854EE048
:1018F00052E06AE272E0C8010E94DA05E0EEF3E02D
:10190000808191819B838A83D183C083DF91CF9132
:101910001F910F91FF90EF90DF90CF90BF90AF900D
:1019200008950F931F93CF93DF930AE114E0C2E36E
:10193000D2E0F801D183C0838DE691E090931D043D
:1019400080931C0483E791E090931F0480931E040E
:10195000C8010E94DA0786E492E0F801918380834F
:1019600002E114E0F801D183C08387E691E090930F
:101970001504809314048BE691E0909317048093F0
:101980001604C8010E94DA078AE592E0F801918303
:1019900080830AE014E0F801D183C0838EE591E0F2
:1019A00090930D0480930C0485E691E090930F04CE
:1019B00080930E04C8010E94DA078EE692E0F801D7
:1019C0009183808302E014E0F801D183C08389E52C
:1019D00091E090930504809304048DE591E0909349
:1019E000070480930604C8010E94DA0782E892E0A7
:1019F000F801918380830AEF13E0F801D183C0835B
:101A00008EE491E09093FD038093FC0388E591E0E0
:101A10009093FF038093FE03C8010E94DA0786E9D2
:101A200092E0F8019183808302EF13E0F801D18303
:101A3000C08385E491E09093F5038093F4038DE4F3
:101A400091E09093F7038093F603C8010E94DA07B0
:101A500084EB92E0F801918380830AEE13E0F801B1
:101A6000D183C0838CE391E09093ED038093EC03EA
:101A700082E491E09093EF038093EE03C8010E940B
:101A8000DA0788EC92E0F80191838083DF91CF91AF
:101A90001F910F9108950C941106CF93DF93EC01E1
:101AA00042E050E062E070E080E395E00E940921AE
:101AB00080E395E00E946320682FCE0104960E9487
:101AC000430680E395E00E946320682FCE010696CE
:101AD000DF91CF910C9443060C94E3190C94C50448
:101AE000CF93DF9320914E0430914F04EC01A881F5
:101AF000B981EE81FF81E20FF31F40815181EC81BA
:101B0000FD81E20FF31F608171811696ED91FC91CA
:101B10001797DF91CF91199420E132E0FC013183D6
:101B2000208308950F931F93CF93DF93EC019B01C4
:101B30008A01E881F9810084F185E02D46E060E8C2
:101B40001995E881F9810084F185E02D980147E03D
:101B500060E8CE01DF91CF911F910F911994CF933F
:101B6000DF931F92CDB7DEB735952795359527952D
:101B7000473011F0205C01C020542983DC01189605
:101B80008D919C911997DC01ED91FC910280F3817C
:101B9000E02D41E050E0BE016F5F7F4F19950F903F
:101BA000DF91CF910895CF93DF9300D01F92CDB7EF
:101BB000DEB73595279535952795205C69834A834F
:101BC0002B83460F420F4F774C83DC0118968D9183
:101BD0009C911997DC01ED91FC910280F381E02D3D
:101BE00044E050E0BE016F5F7F4F19950F900F905A
:101BF0000F900F90DF91CF91089522E332E0FC0126
:101C000031832083089520E132E0FC013183208379
:101C1000089522E332E0FC0131832083089522E31A
:101C200032E0FC0131832083089522E332E0FC019D
:101C300031832083089520E132E0FC013183208349
:101C4000089520E132E0FC0131832083089520E1F2
:101C500032E0FC0131832083089520E132E0FC0171
:101C6000318320830C94462C22E332E0FC01318343
:101C700020830C94462C20E132E0FC013183208348
:101C80000C94462C22E332E0FC01318320830C9437
:101C9000462C22E332E0FC01318320830C94462C55
:101CA00022E332E0FC01318320830C94462C20E1B6
:101CB00032E0FC01318320830C94462C20E132E099
:101CC000FC01318320830C94462C20E132E0FC019E
:101CD000318320830C94462CCF92DF92FF920F9396
:101CE0001F93CF93DF931F92CDB7DEB76C01F62E13
:101CF0008A0160E0FC01808579830E943D3060E0CC
:101D0000F60184850E943D3060E0F60182850E94E4
:101D10003D3060E0F60186850E943D308F2D79814F
:101D2000972F97FF03C0919581959109A72FA095B3
:101D3000AA1FAA27AA1FB0E01496AA0FBB1FAC0DBA
:101D4000BD1DBC018C910E94F82EB80117FF03C085
:101D5000719561957109E12FE095EE1FEE27EE1F59
:101D6000F0E03696EE0FFF1FEC0DFD1D80810F9009
:101D7000DF91CF911F910F91FF90DF90CF900C9446
:101D8000F82EEF92FF920F931F93CF93DF931F9242
:101D90001F92CDB7DEB78C01FC01808591850E9432
:101DA0008715F801808591850E94D713A091520470
:101DB000B0915304F80124853585A20FB31F26E1A5
:101DC000FC0101900D922A95E1F780915604882339
:101DD00019F081E080932304F801808591850E94A9
:101DE000D713FC01858980FD58C0F8018085918555
:101DF0000E94D713FC01858982FD4FC080E090913D
:101E00005604911108C090912304992321F081E098
:101E10008093220402C0882351F01A821982BE01E5
:101E20006F5F7F4FF801808591850E94A912809194
:101E30005604882369F080912204882349F0109287
:101E40002204F80162857385808591850E942B1696
:101E500081E0F8018687E12CF12CF80180859185DD
:101E60000E94D7138E0D9F1DFC018285833010F4D4
:101E7000F8011686FFEFEF1AFF0A84E0E816F10476
:101E800061F7C8010E94700D0F900F90DF91CF9104
:101E90001F910F91FF90EF90089581E0B0CFFC016A
:101EA000268521110AC0161617061CF014161506F1
:101EB00024F440E050E060E070E0440F551F660FEE
:101EC000771FFC01808591850C94D61282E392E005
:101ED000909325048093240490932D0480932C04E4
:101EE000909335048093340490933D0480933C0494
:101EF0000895AF92BF92CF92DF92EF92FF920F932D
:101F00001F93CF93DF93CDB7DEB727970FB6F89423
:101F1000DEBF0FBECDBF5C016A017B01BC01CE01FB
:101F200001960E948206CE0101960E94182C60E064
:101F300070E0CE0101960E94A42BFC0180818835BF
:101F4000C9F461E070E0CE0101960E94A42BFC016F
:101F50008081823351F0833329F0813359F403E3D4
:101F600016E005C00FEE15E002C001E116E0011514
:101F7000110579F485E791E0F50194838383BE012F
:101F80006F5F7F4FC50105960E94062B00E010E0B1
:101F90000AC01C141D041E041F042CF4B701A60162
:101FA000C8010E946925CE0101960E94812AC801BC
:101FB00027960FB6F894DEBF0FBECDBFDF91CF914D
:101FC0001F910F91FF90EF90DF90CF90BF90AF9057
:101FD0000895CF92DF92EF92FF920F931F93CF93CA
:101FE000DF93EC011B821A8281E193E0998388835D
:101FF00000E514E0F801C080D180B6016E5F7F4F2C
:1020000071836083FEE4EF2EF4E0FF2EF701808100
:1020100091810E94A832F70191838083FC01EC0D2D
:10202000FD1D11821082DD82CC82F801C080D1803A
:10203000B6016E5F7F4F718360830E94A832F70103
:1020400091838083FC01EC0DFD1D11821082DF82E3
:10205000CE82DF91CF911F910F91FF90EF90DF9093
:10206000CF900895EF92FF920F931F93CF93DF933A
:10207000EC017B018A010E94E90F8DE193E09983D5
:102080008883F7018081918199878887F801808111
:1020900091819D878C87F701828193819B878A87B5
:1020A000F801828193819F878E8702E010E061E0D2
:1020B00088850E94043061E08C850E94043060E0D5
:1020C00088850E943D3060E08C850E943D30015043
:1020D000110922960115110551F7DF91CF911F913A
:1020E0000F91FF90EF9008950F931F93CF93DF937D
:1020F000CDB7DEB728970FB6F894DEBF0FBECDBFC1
:102100008B01CB010E94CF067E836D83C8010E94A4
:10211000CF0678876F83C8010E94CF067A836983D0
:10212000C8010E94CF067C836B8380E190E00E940F
:10213000442C8C01AE014F5F5F4FBE016B5F7F4F40
:102140000E943210E0EEF3E080819181D801139675
:102150009C938E9312971183008328960FB6F89460
:10216000DEBF0FBECDBFDF91CF911F910F910895BC
:102170000F931F93CF93DF93EC018B010E94E90F24
:102180001987088789E293E099838883DF91CF914B
:102190001F910F9108950F931F93CF93DF93CB015E
:1021A00040E855E260E070E00E94790F8C018AE01F
:1021B00090E00E94442CEC01B8010E94B810E0EEBF
:1021C000F3E0808191819B838A83D183C083DF91F7
:1021D000CF911F910F9108950F931F93CF93DF938A
:1021E000EC018B010E94E90F1987088787E393E0D0
:1021F00099838883DF91CF911F910F9108950F9359
:102200001F93CF93DF93CB0140E855E260E070E08D
:102210000E94790FEC0160ED77E080E090E00E9491
:102220004B2EE881F9810190F081E02D6AEACE0120
:1022300019956AE070E080E090E00E944B2E8AE001
:1022400090E00E94442C8C01BE010E94EC10E0EE54
:10225000F3E080819181D80113969C938E9312971D
:1022600011830083DF91CF911F910F910895CF9239
:10227000DF92EF92FF920F931F93CF93DF93CDB72F
:10228000DEB7C254D1090FB6F894DEBF0FBECDBF82
:102290008C016B017A010E94E90F83E693E0D8017B
:1022A00011969C938E931996DC92CE9218971B965A
:1022B000FC92EE921A97FE01BD9686E1DF011D9217
:1022C0008A95E9F786E1DE01579601900D928A958D
:1022D000E1F786E1FE017796DE01119601900D92FD
:1022E0008A95E1F7E4E5F4E0E080F180B7016A5E09
:1022F0007F4F71836083A2E5CA2EA4E0DA2EF60137
:10230000808191810E94A832D6018D939C93DC013B
:10231000AE0DBF1D86E1FE01319601900D928A95AA
:10232000E1F7F801F586E48681E08687CE5BDF4F32
:102330000FB6F894DEBF0FBECDBFDF91CF911F91D6
:102340000F91FF90EF90DF90CF9008950F931F9320
:10235000CF93DF93CB0140E052EC61E070E00E944C
:10236000790F8C0181E290E00E94442CEC01B801CD
:102370000E9456126EEC72E085E596E00E944228BB
:1023800062E070E0CE010E942B1660E073E085E50C
:1023900096E00E9442288FE090E00E94442C8C013D
:1023A00042E050E0BE010E943711E0EEF3E0808190
:1023B0009181D80113969C938E9312971183008379
:1023C000DF91CF911F910F9108950F931F93CF939A
:1023D000DF930CE314E0C2E3D2E0F801D183C083C1
:1023E00085E592E090933F0480933E0489E592E076
:1023F0009093410480934004C8010E94DA0785E469
:1024000093E0F8019183808304E314E0F801D18321
:10241000C08387E492E0909337048093360483E589
:1024200092E09093390480933804C8010E94DA073F
:102430008FE493E0F801918380830CE214E0F801CB
:10244000D183C08389E392E090932F0480932E047C
:1024500085E492E09093310480933004C8010E9497
:10246000DA0789E593E0F8019183808304E214E0C0
:10247000F801D183C0838FE292E090932704809388
:10248000260487E392E09093290480932804C801EE
:102490000E94DA078FE693E0F80191838083DF9151
:1024A000CF911F910F9108950C94660FFC017183D9
:1024B000608312821382148215821782168210861C
:1024C000128611863B9686E1DF011D928A95E9F717
:1024D0000895CF93DF931F92CDB7DEB720E829830D
:1024E000DC018D919C91DC01ED91FC910280F381E6
:1024F000E02D41E050E0BE016F5F7F4F199564E62B
:1025000070E080E090E00E944B2E0F90DF91CF9121
:102510000895CF93DF931F92CDB7DEB727E02983CD
:10252000DC018D919C91DC01ED91FC910280F381A5
:10253000E02D41E050E0BE016F5F7F4F199568E8E4
:1025400073E180E090E00E944B2E0F90DF91CF91DD
:102550000895CF93DF931F92CDB7DEB725E8298387
:10256000DB012D913C912130310511F423E804C0A9
:102570002230310511F424E82983FC018081918106
:10258000DC01ED91FC910280F381E02D41E050E00F
:10259000BE016F5F7F4F199564E670E080E090E0C8
:1025A0000E944B2E0F90DF91CF9108950F931F93B0
:1025B000CF93DF9300D01F921F92CDB7DEB78C016F
:1025C0007B836A835D834C8381E98983D8018D9104
:1025D0009C91DC01ED91FC910280F381E02D41E0C2
:1025E00050E0BE016F5F7F4F1995F80180819181A6
:1025F000DC01ED91FC910280F381E02D41E050E09F
:10260000BE016B5F7F4F1995F80180819181DC01DC
:10261000ED91FC910280F381E02D41E050E0BE019C
:102620006C5F7F4F1995F80180819181DC01ED91FC
:10263000FC910280F381E02D41E050E0BE016D5F2E
:102640007F4F1995F80180819181DC01ED91FC911A
:102650000280F381E02D41E050E0BE016E5F7F4FCC
:1026600019950F900F900F900F900F90DF91CF91D1
:102670001F910F9108950F931F93CF93DF931F9294
:10268000CDB7DEB78C018BE88983D8018D919C9101
:10269000DC01ED91FC910280F381E02D41E050E0FE
:1026A000BE016F5F7F4F1995F80181919191BF0134
:1026B000DC01ED91FC910280F381E02D41E050E0DE
:1026C0001995F80180819181DC01ED91FC91B801AF
:1026D0006D5F7F4F0280F381E02D41E050E019955E
:1026E000F80180819181DC01ED91FC91B8016C5F72
:1026F0007F4F0280F381E02D41E050E019950F906B
:10270000DF91CF911F910F9108950F931F93CF9356
:10271000DF931F921F92CDB7DEB78C01FC01A08121
:10272000B181662371F184E98A8383E18983ED9124
:10273000FC9111970280F381E02D41E050E0BE0151
:102740006E5F7F4FCD011995D8018D919C91DC0171
:10275000ED91FC910280F381E02D41E050E0BE015B
:102760006F5F7F4F1995F80180819181DC01ED91B8
:10277000FC910280F381E02D43E150E065E773E0D6
:102780000EC086E98983ED91FC9111970280F38157
:10279000E02D41E050E0BE016F5F7F4FCD01199504
:1027A0000F900F90DF91CF911F910F9108950B968D
:1027B00008958038910570F0805891099695879515
:1027C0009695879580589F4F8F3F910519F010F08F
:1027D0008FEF90E008952F923F924F925F926F9209
:1027E0007F928F929F92AF92BF92CF92DF92EF92A1
:1027F000FF920F931F93CF93DF93CDB7DEB72C9744
:102800000FB6F894DEBF0FBECDBF8C01DC0115966C
:102810008C91282F30E03A83298360E070E0298191
:102820003A81D8016217730708F012C116962D91EC
:102830003C911797AB014F5F5F4FF901E60FF71F10
:102840008081873031F4F901E40FF51F2081298759
:10285000FCC0853131F4F901E40FF51F30813A876E
:10286000F4C0883131F4F901E40FF51F2081288785
:10287000ECC0893151F4F901E40FF51F2080312CAF
:10288000322C22248181282AD6C08B3251F4F901BE
:10289000E40FF51F808190E0D82ECC248181C82AD6
:1028A000CAC08C3251F4F901E40FF51F808190E029
:1028B000F82EEE248181E82ABEC08C3181F4F90122
:1028C000E40FF51F808190E0982F88272181822BCB
:1028D00055E0969587955A95E1F7882EACC08D31D5
:1028E00081F4F901E40FF51F808190E0982F88278B
:1028F0002181822B35E0969587953A95E1F7982EC0
:102900009AC08E3181F4F901E40FF51F808190E0C7
:10291000982F88272181822BB5E096958795BA95C7
:10292000E1F7782E88C08F3181F4F901E40FF51FAB
:10293000808190E0982F88272181822B55E0969501
:1029400087955A95E1F7682E76C0833229F4F9010C
:10295000E40FF51F408079C08D3231F4F901E40FA6
:10296000F51F30813B8371C08E3279F4F901E40F99
:10297000F51F808190E0982F88272181822B6B871B
:102980007C870E94D913A82E54C08F3279F4F901A4
:10299000E40FF51F808190E0982F88272181822BFA
:1029A0006B877C870E94D913B82E43C0803379F49B
:1029B000F901E40FF51F808190E0982F882721818D
:1029C000822B6B877C870E94D9138F8332C081331F
:1029D00079F4F901E40FF51F808190E0982F8827A2
:1029E0002181822B6B877C870E94D9138E8321C023
:1029F000823379F4F901E40FF51F808190E0982F7C
:102A000088272181822B6B877C870E94D9138D8335
:102A100010C0833399F4F901E40FF51F808190E031
:102A2000982F88272181822B6B877C870E94D9135E
:102A30008C836B857C856D5F7F4FF1CE823109F091
:102A40004CC0F901E40FF51F50806E5F7F4FE7CE59
:102A50001B964C921B9729851C962C931C973A85A4
:102A60001D963C931D9728851E962C931E97509675
:102A70003C922E921F975296DC92CE92519754968A
:102A8000FC92EE92539755968C92559756969C923F
:102A9000569757967C92579758966C925897599696
:102AA000AC9259975A96BC925A973F815B963C9349
:102AB0005B972E815C962C935C973D815D963C9351
:102AC0005D972C815E962C935E973B815F963C933D
:102AD0005F9790965C9281E001C080E02C960FB6E3
:102AE000F894DEBF0FBECDBFDF91CF911F910F9144
:102AF000FF90EF90DF90CF90BF90AF909F908F901E
:102B00007F906F905F904F903F902F900895CF925D
:102B1000DF92EF92FF920F931F93CF93DF931F9259
:102B2000CDB7DEB78C0193E0E92EF12C22E0C22E66
:102B3000D12CD8018D919C91DC01ED91FC91048008
:102B4000F581E02D1995181619060CF07AC041E0B0
:102B500050E0BE016F5F7F4FD8018D919C910E9424
:102B600071298130910509F06CC0F8012185328509
:102B70002115310539F429812331D9F6F8019287DD
:102B80008187D7CF2130310569F48981D801159625
:102B90008C9390E00E948131F80197838683D286DE
:102BA000C186C7CF22303105F9F4D8011696ED91D0
:102BB000FC91179718968C91189791E0980F18969A
:102BC0009C9318979981E80FF11D908318969C911A
:102BD000189715968C911597981708F4AACF1A96FE
:102BE000FC92EE921997A5CF2330310509F0A1CFC1
:102BF000F801258130E0C90143964981840F911D78
:102C000046815781FA01BF01641B750B6217730778
:102C100020F46191860F911DF6CF811103C0C80188
:102C20000E94EB13D80115961C92159716968D915C
:102C30009C9117970E941932F8011086128611860E
:102C400078CF0F90DF91CF911F910F91FF90EF9070
:102C5000DF90CF9008958F929F92AF92BF92CF92C4
:102C6000DF92EF92FF920F931F93CF93DF931F9208
:102C70001F92CDB7DEB78C01962E61E0892D0E94A0
:102C8000043061E0892D0E943D3064E670E080E010
:102C900090E00E944B2E60E0892D0E943D304AE07A
:102CA000E42EF12C52E0A52EB12C88248A94F80150
:102CB000138664E670E080E090E00E944B2EC8012D
:102CC0000E946912BA82A982BE016F5F7F4FC8015C
:102CD0000E94A912F80183828482C8010E943B13DA
:102CE00061E0C8010E94851334E1C32ED12CC801D4
:102CF0000E948715F8018385811115C064E670E094
:102D000080E090E00E944B2EF1E0CF1AD108C11470
:102D1000D10469F7C8010E94891281E0E81AF1081C
:102D2000E114F10421F661E0892D0E943D300F90FD
:102D30000F90DF91CF911F910F91FF90EF90DF9057
:102D4000CF90BF90AF909F908F900895CF93DF93D7
:102D5000EC0188819981DC01ED91FC910680F7817D
:102D6000E02D1995181619061CF00E94C504F1CF24
:102D7000DF91CF910895FC01A081B181FB018D917C
:102D80009491891305C031968111F9CF81E008959E
:102D900080E00895CF92DF92EF92FF920F931F93FE
:102DA000CF93DF93CDB7DEB727970FB6F894DEBF8A
:102DB0000FBECDBF8C01BC01CE0101960E948206E0
:102DC000CE0101960E942C2C6B017C0161157105CE
:102DD00081059105B1F460E070E0CE0101960E949A
:102DE000A42BFC018081803361F084E892E0F8013B
:102DF00094838383BE016F5F7F4FC80105960E9455
:102E0000062BCE0101960E94812AC701B6012796A2
:102E10000FB6F894DEBF0FBECDBFDF91CF911F91EB
:102E20000F91FF90EF90DF90CF900895E0914404D0
:102E3000F091450480E090E0309729F001960680FB
:102E4000F781E02DF9CF0895CF93DF93C09144042B
:102E5000D09145042097B1F06A817B8185E596E0A9
:102E60000E94A72763E973E085E596E00E940128A8
:102E70006C817D8185E596E00E941E280E80DF81B1
:102E8000C02DE8CFDF91CF9108950F931F93CF937B
:102E9000DF938C01C0914404D0914504209759F0F0
:102EA0006A817B81C8010E94BB16811107C00E8018
:102EB000DF81C02DF3CF80E090E001C0CE01DF9133
:102EC000CF911F910F910895EF92FF920F931F934F
:102ED000CF93DF93CDB7DEB727970FB6F894DEBF59
:102EE0000FBECDBF8C01E62EFC01F280F11004C0B4
:102EF0000E94A616F82E02C0FC011282FE1431F1C7
:102F000064E973E0CE0101960E94EF2A6E2DCE0196
:102F100001960E94712B68E873E0CE0101960E9431
:102F2000612B6F2DCE0101960E94712B8EE294E0F1
:102F3000F80194838383BE016F5F7F4FC8010596BC
:102F40000E94062BCE0101960E94812A27960FB679
:102F5000F894DEBF0FBECDBFDF91CF911F910F91CF
:102F6000FF90EF900895EF92FF920F931F93CF93EE
:102F7000DF938C01FC01E080F180E701BE016E1956
:102F80007F09F8018281938168177907E8F44AE0A4
:102F900050E085E596E00E943D2962E973E085E511
:102FA00096E00E940128499150E060E070E02AE03C
:102FB00030E085E596E00E94AD2863E973E085E5A1
:102FC00096E00E940128DACF85E596E0DF91CF9167
:102FD0001F910F91FF90EF900C940A28AF92BF922F
:102FE000CF92DF92EF92FF920F931F93CF93DF93D5
:102FF000CDB7DEB765970FB6F894DEBF0FBECDBF75
:1030000085E596E09A8389831B821D821C8264E990
:1030100073E0CE0106960E94EF2ABE016F5F7F4FDC
:10302000CE010D960E948206CE010D960E94451794
:103030007C01009709F445C068E2CE0101960E9428
:1030400064178C819D81892B09F040C1D701ED91D6
:10305000FC910480F581E02DBE016F5F7F4FC701B9
:1030600019958C819D81892B09F030C169E2CE01CF
:1030700001960E9464178C819D81892B09F026C1DD
:103080006BE3CE0101960E9464178C819D81892B90
:1030900009F01CC16EE174E085E596E00E94A72767
:1030A000BE01635F7F4F85E596E00E9430286CE0AB
:1030B00074E0CE010D960E94BB16882309F406C168
:1030C0004DC163E074E0CE010D960E94BB168823CB
:1030D00019F06EEE73E0C0C065EE73E0CE010D96A0
:1030E0000E94BB16882349F061EE73E085E596E007
:1030F0000E94A72782E594E010C067ED73E0CE013F
:103100000D960E94BB16882359F063ED73E085E5A8
:1031100096E00E94A7278EE494E00E94B317D6C0E1
:103120006FEC73E0CE010D960E94BB168823A1F1CF
:10313000CE0101960E94CA166B017C01CE01019658
:103140000E94CA16162F072F8C819D81892B09F0AA
:10315000BDC0E0914E04F0914F04EC0DFD1D1083B5
:1031600069EB73E085E596E00E94A7274AE050E00E
:10317000B60185E596E00E94F7286EEA73E085E5E2
:1031800096E00E94A7274AE050E0612F702F85E566
:1031900096E00E94FF289AC068EA73E0CE010D967F
:1031A0000E94BB168823D9F1CE0101960E94CA164F
:1031B0006B017C01CE0101960E94CA168B015C0155
:1031C0002C813D81232B09F081C0E0914E04F091C8
:1031D0004F04EC0DFD1D6083E0914E04F0914F040F
:1031E000EC0DFD1D11836BE873E085E596E00E9410
:1031F000A7274AE050E0B60185E596E00E94F7284F
:1032000060E873E085E596E00E94A7272AE030E0B9
:10321000A801B50185E596E00E94172957C06BE724
:1032200073E0CE010D960E94BB168823D1F0BE013B
:103230006C5E7F4F8091BE089091BF08009711F49B
:1032400082EC98E0681B790B4AE050E085E596E057
:103250000E94F7286FE673E085E596E00E941E283D
:1032600035C06AE673E0CE010D960E94BB16882336
:1032700061F00E9416174AE050E0BC0185E596E037
:103280000E94FF280E94241721C060E070E0CE0158
:103290000D960E94A42BFC0180818F3309F462C03B
:1032A00060E070E0CE010D960E94A42BDC018C91B1
:1032B000883609F457C060EC72E0CE010D960E948A
:1032C000BB16882379F1E0E0F0E019958C819D81AF
:1032D000892B09F445C064EA72E085E596E00E9416
:1032E000A7276C817D8185E596E00E94A72761EA8A
:1032F00072E085E596E00E94A727BE016A5F7F4FD6
:1033000085E596E00E94CC276CE872E085E596E0C2
:103310000E94A727BE01635F7F4F85E596E00E946C
:1033200030281EC06AEB72E0CE010D960E94BB16DB
:10333000882319F160915004709151044AE050E0E3
:1033400085E596E00E94FF28609154047091550431
:103350004AE050E085E596E00E94FF2810E019C0A1
:1033600011E017C062E273E085E596E00E941E2836
:103370000E94241767EC72E06FCF8EEA92E09D8383
:103380008C83BE01635F7F4FCE0106960E94062BA1
:103390009DCFCE010D960E94812ACE0106960E94F5
:1033A000812A812F65960FB6F894DEBF0FBECDBF80
:1033B000DF91CF911F910F91FF90EF90DF90CF9011
:1033C000BF90AF9008950E94880440E051EE60E005
:1033D00070E085E596E00E9469256EE572E085E57E
:1033E00096E00E941E280E94EE178111FCCF0895DE
:1033F00022E332E0FC0131832083089522E332E0AE
:10340000FC01318320830C94462CCF93DF9382E31D
:1034100092E09093470480934604CEE4D4E0888100
:1034200099810E94193219821882109251041092C7
:103430005004C2E5D4E0888199810E941932198232
:1034400018821092550410925404DF91CF91089580
:10345000CF93DF93EC0185EA93E0998388838FA56E
:1034600098A9009721F00E94193218AA1FA680E19E
:1034700092E099838883DF91CF910895CF93DF9372
:10348000EC010E94281ACE01DF91CF910C94462CBA
:1034900085E596E00E940A284AE050E06FEF7FEF52
:1034A00085E596E00E94FF288EE390E00E94442C80
:1034B000FC0185EA93E09183808385E596E095831E
:1034C000848397838683118E138E128E158E148EAD
:1034D000178E168E12AA11AA10AA17A613AA15AA39
:1034E00014AA17AA16AA11AE10AE1092560413AE63
:1034F00012AE15AE14AEA0EEB3E08D919C91119773
:1035000093838283ED93FC930895CF92DF92EF92A1
:10351000FF920F931F93CF93DF931F92CDB7DEB728
:103520008C017A016901F90120E030E0CF018C19AA
:103530009D098E159F0524F48191280F311DF6CF2A
:10354000C701860F971F820F931F44E0359527957B
:103550004A95E1F7820F931F8F70992720E1629FB0
:10356000800D112489839FE0E916F10434F590EA77
:103570009E0DD80112969C93F60120E030E02E15A6
:103580003F054CF42F5F3F4F9191D801A20FB31F1D
:1035900012969C93F4CFF801EE0DFF1D8383F80182
:1035A00081919191BF01DC01ED91FC91A7014E5FEA
:1035B0005F4F0280F381E02D2BC08FEAF8018283F8
:1035C000E382D8018D919D91BD01DC01ED91FC91CB
:1035D0000280F381E02D42E050E01995F8018081EE
:1035E0009181DC01ED91FC910280F381E02DA70136
:1035F000B6011995F80180819181DC01ED91FC9172
:103600000280F381E02D41E050E0BE016F5F7F4F0B
:1036100019950F90DF91CF911F910F91FF90EF902F
:10362000DF90CF900895DF92EF92FF920F931F9358
:10363000CF93DF93EC0188819981DC01ED91FC91BE
:103640000480F581E02D1995892B09F49DC0F2E0E5
:10365000EF2EA3E0FA2E8E01045E1F4FDD24D394DB
:103660008A819B81DC01ED91FC910480F581E02D44
:103670001995892B09F4ACC08A819B81DC01ED91FD
:10368000FC910680F781E02D19958F3FBFEF9B07D6
:1036900009F49EC01FA62D89213001F130F022309F
:1036A00079F1233009F446C06DC09C01207F332797
:1036B000203A3105A9F6198E188E1B8E1A8E8F703E
:1036C00099279F8B8E8B8F30910511F4DD8AC8CF9F
:1036D000892B71F1ED8A1EA70DA7C2CF9F8B8E8B10
:1036E000BC018BA59CA50E94A8329CA78BA79EA776
:1036F0008DA7ED8A8E899F89892B09F0B1CF18C0DB
:103700002A8D3B8D280F391F3B8F2A8FEDA5FEA5F3
:10371000288D398DE20FF31F8083888D998D019656
:10372000998F888F2E893F89821793070CF498CF41
:10373000FD8A96CF1D8A9C0154E0359527955A95B0
:10374000E1F739AB28AB4E895F896A8D7B8D8F702D
:103750009927240F351F260F371FE4E075956795CD
:10376000EA95E1F7260F371F2F703327821793074B
:1037700079F581E08FA75BAB4AAB8DA59EA59DAB8C
:103780008CAB26C01D8A6CCF8091E8039091E90331
:1037900028AD39ADAC01421B530B9A01293E334091
:1037A000A8F099AF88AF1D8A1F8A1E8A198E188EBD
:1037B0001B8E1A8E25E933E044E050E060E070E0B3
:1037C000CE0102960E94851A1092560480E00EC027
:1037D0008FA58823C9F28091E8039091E90399AFFE
:1037E00088AF9FAB8EAB81E080935604DF91CF9181
:1037F0001F910F91FF90EF90DF9008950F931F930B
:10380000CF93DF93EC0104960E94131B882309F4E5
:1038100043C08CA99DA98C30910539F54EA95FA9AB
:1038200080915004909151048E010A5F1F4F4817F8
:10383000590739F02AE933E044E050E06EE070E0E7
:1038400012C068AD79AD80914E0490914F040E94F2
:10385000C03320915204309153044091540450914C
:1038600055046CE070E0C80111C00B9739F4E0E03A
:10387000F0E0DF91CF911F910F9119942FE933E080
:1038800041E050E06EE070E0CE010696DF91CF910E
:103890001F910F910C94851ADF91CF911F910F9179
:1038A00008951092530410925204109255041092ED
:1038B000540410924F0410924E041092510410922E
:1038C000500488E394E090934904809348048AE488
:1038D00094E090934B0480934A0480914404909127
:1038E000450490934D0480934C04E6E4F4E0F09397
:1038F0004504E09344048FEA93E091838083089524
:103900000C94051ACF92DF92EF92FF920F931F93C0
:10391000CF93DF936C018B017A01EC01C85ADB4F26
:10392000888187FF04C0FB011182108223C02CE034
:103930002C9DC0012D9D900D11242881AC01420FBA
:10394000511D27FD5A952091570430E04217530727
:103950008CF42881AC01420F511D27FD5A959A0124
:10396000FA01EE0FFF1FE20FF31FE45AFB4F208115
:1039700026FD19C088818F5F88838CE08C9D900123
:103980008D9D300D11248881A901480F511D87FD9F
:103990005A958091570490E048175907B4F48881EC
:1039A0008C303CF112C02881820F911D27FD9A9521
:1039B000FC01EE0FFF1FE80FF91FE45AFB4F808157
:1039C00060E08F730E943D30D5CFF80180819181F6
:1039D000049680349C4918F480E49CE904C0F80102
:1039E000808191810496F701918380838FEF888392
:1039F00041C0F801808191814881B901640F711D36
:103A000047FD7A95AB01FB01EE0FFF1FE40FF51F99
:103A1000E45AFB4F41815281840F951FF701918336
:103A200080838881A901480F511D87FD5A95FA01AD
:103A3000EE0FFF1FE40FF51FE45AFB4F808186FF56
:103A400019C08881280F311D87FD3A95F901EE0FC5
:103A5000FF1FE20FF31FE45AFB4F808161E08F7379
:103A6000DF91CF911F910F91FF90EF90DF90CF905A
:103A70000C943D30DF91CF911F910F91FF90EF900B
:103A8000DF90CF9008951F920F920FB60F921124DE
:103A90000BB60F922F933F934F935F936F937F9348
:103AA0008F939F93AF93BF93EF93FF9348E850E0BA
:103AB00064E870E081E090E00E94821CFF91EF9149
:103AC000BF91AF919F918F917F916F915F914F9136
:103AD0003F912F910F900BBE0F900FBE0F901F9034
:103AE00018951F920F920FB60F9211240BB60F92DA
:103AF0002F933F934F935F936F937F938F939F93F6
:103B0000AF93BF93EF93FF9348E950E064E970E00F
:103B100082E090E00E94821CFF91EF91BF91AF91F3
:103B20009F918F917F916F915F914F913F912F91D5
:103B30000F900BBE0F900FBE0F901F9018951F9205
:103B40000F920FB60F9211240BB60F922F933F9343
:103B50004F935F936F937F938F939F93AF93BF9395
:103B6000EF93FF9348EA50E064EA70E083E090E06E
:103B70000E94821CFF91EF91BF91AF919F918F9115
:103B80007F916F915F914F913F912F910F900BBE5D
:103B90000F900FBE0F901F9018951F920F920FB6A7
:103BA0000F9211240BB60F922F933F934F935F9375
:103BB0006F937F938F939F93AF93BF93EF93FF93F5
:103BC00048E251E064E271E080E090E00E94821CF3
:103BD000FF91EF91BF91AF919F918F917F916F91E5
:103BE0005F914F913F912F910F900BBE0F900FBEA1
:103BF0000F901F901895209157042033A0F431E0C6
:103C0000320F30935704FC012083822F90E0FC0197
:103C1000EE0FFF1FE80FF91FE45AFB4F88EB9BE004
:103C20009283818308952FEFFC0120830895DF9212
:103C3000EF92FF920F931F93CF93DF93EC01D62E59
:103C40007A0189018881803308F068C061E08D2D98
:103C50000E9404308881A82FB0E0FD01EE0FFF1F05
:103C6000EA0FFB1FE45AFB4F2D2D2F739081907CA0
:103C7000922B908360E272E06E197F0977FF02C099
:103C80006D5F7F4F7595679575956795698340E67C
:103C900059E0401B510B57FF02C04D5F5F4F5595D8
:103CA0004795559547954A836CE00E948E309CE07D
:103CB000899FB001112420E030E0A901460F571F71
:103CC000FA01EE0FFF1FE40FF51FE45AFB4F90813E
:103CD00096FD18C02F5F3F4F2C30310571F790E0F3
:103CE0008130910521F51092800082E0809381005F
:103CF0001092850010928400B19A80916F008260CA
:103D000080936F00888190E0FC01EE0FFF1FE80FA9
:103D1000F91FE45AFB4F8081806480838881DF91A2
:103D2000CF911F910F91FF90EF90DF900895823017
:103D3000910569F41092900082E0809391001092B6
:103D400095001092940088BB80937100DBCF833084
:103D5000910569F41092A00082E08093A100109276
:103D6000A5001092A40089BB80937200CBCF892B51
:103D700049F61092200182E08093210110922501E2
:103D8000109224018ABB80937300BCCF20E639E0F7
:103D900040E252E00C94171EFC012081203308F011
:103DA0003DC0318188E890E0831B910937FD9395F0
:103DB000880F991F880F991F681779077CF0328147
:103DC00088E592E0831B910937FD9395880F991F31
:103DD000880F991F681779070CF4CB0102974FB72A
:103DE000F89430E0F901EE0FFF1FE20FF31FE45AE1
:103DF000FB4FAA2797FDA095BA2F64E0880F991F63
:103E0000AA1FBB1F6A95D1F773E0B695A795979542
:103E100087957A95D1F7928381834FBF08954F920A
:103E20005F926F927F92AF92BF92CF92DF92EF92AA
:103E3000FF920F931F93CF93DF93EC01603282E0E8
:103E400078070CF040C077FD06C0653B71052CF08B
:103E500064EB70E002C060E070E0898128E830E047
:103E6000281B310987FD3395220F331F220F331F83
:103E70005901CC24B7FCC094DC2C882777FD8095B1
:103E8000982F2A8148E552E0421B510927FD53959E
:103E9000440F551F440F551F2A01662457FC609498
:103EA000762C7F926F925F924F9214EBE12EF12C61
:103EB00000E010E020E030E0A9010E943A2A0F90D3
:103EC0000F900F900F90CE01DF91CF911F910F9126
:103ED000FF90EF90DF90CF90BF90AF907F906F906A
:103EE0005F904F900C94CC1E20E001972FEF8F3FF6
:103EF0009207D9F70895EF92FF920F931F93CF93F4
:103F0000DF93EC018B8DEE85FF859D8581FF04C0DD
:103F10008081892329F447C08081892309F043C027
:103F20008B899C890E94741F08E010E0EE24E394C2
:103F3000F12C8D899E890E94741FEE85FF858081FA
:103F40009D85892311F0FE2803C08E2D8095F822CF
:103F5000EE0C015011090115110559F78F89988D43
:103F60000E94741F8B8D81FDF0948091ED0420914F
:103F7000EC0490E001968F73992730E08217930745
:103F800079F0E091ED04F0E0E251FB4FF082809196
:103F9000ED0490E001968F7399278093ED0403C0A0
:103FA0008B8D81608B8FDF91CF911F910F91FF904F
:103FB000EF90089580912E0590912F05009711F0B4
:103FC0000C947B1F08951F920F920FB60F9211242D
:103FD0000BB60F922F933F934F935F936F937F9303
:103FE0008F939F93AF93BF93EF93FF930E94DA1F3A
:103FF000FF91EF91BF91AF919F918F917F916F91C1
:104000005F914F913F912F910F900BBE0F900FBE7C
:104010000F901F9018951F920F920FB60F921124B8
:104020000BB60F922F933F934F935F936F937F93B2
:104030008F939F93AF93BF93EF93FF930E94DA1FE9
:10404000FF91EF91BF91AF919F918F917F916F9170
:104050005F914F913F912F910F900BBE0F900FBE2C
:104060000F901F9018951F920F920FB60F92112468
:104070000BB60F922F933F934F935F936F937F9362
:104080008F939F93AF93BF93EF93FF930E94DA1F99
:10409000FF91EF91BF91AF919F918F917F916F9120
:1040A0005F914F913F912F910F900BBE0F900FBEDC
:1040B0000F901F90189580915F0590E0209160050A
:1040C000821B910908952091600580915F05281752
:1040D00050F4E22FF0E0EF59FA4F808190E02F5F2B
:1040E0002093600508958FEF9FEF0895E09160059C
:1040F00080915F05E81730F4F0E0EF59FA4F8081C6
:1041000090E008958FEF9FEF08950895CF92DF928A
:10411000EF92FF920F931F93CF93DF937C01CB011C
:104120008A0120913C05222389F0EB016B01C40E2A
:10413000D51ECC15DD0569F06991D701ED91FC9193
:104140000190F081E02DC7011995F3CF642F0E94F3
:104150007221C801DF91CF911F910F91FF90EF90D5
:10416000DF90CF900895CF93DF931F92CDB7DEB746
:10417000698320913C052223D1F020913D05203216
:1041800040F021E030E0FC013383228380E090E0C6
:1041900015C080913E05E82FF0E0E15CFA4F99816F
:1041A00090838F5F80933E0580933D0505C061E05D
:1041B000CE0101960E94722181E090E00F90DF9184
:1041C000CF910895FC011382128248EE53E060E023
:1041D00070E0448355836683778389EB93E0918312
:1041E000808308951092600510925F0510923E053D
:1041F00010923D050C941021862F413208F040E2C8
:1042000061E675E00E942E211092600580935F05A3
:10421000089521E00C94FC2080E395E00C94E220CA
:104220001092EE0581E08093EC051092EB0561E0C1
:1042300084E10E943D3061E085E10E943D30E9EB80
:10424000F0E080818E7F808380818D7F808388E411
:104250008093B80085E48093BC000895413208F053
:104260003FC09091EE059111FCCF91E09093EE0547
:104270002093EC052FEF209381051092C605240FA3
:104280002093C5059093ED059091ED05880F892B3E
:104290008093ED058091EB05813041F41092EB05A0
:1042A0008091ED058093BB0085EC01C085EE809385
:1042B000BC008091EE058130E1F38091C605841742
:1042C00010F44091C60527EC35E0FB01D9018A2F97
:1042D000821B841718F48D918193F9CF842F089550
:1042E00080E00895613298F42091EE05243089F43D
:1042F0006093A305FC0185EA95E0DC012A2F281BC9
:10430000261718F421912D93F9CF80E0089581E0CC
:10431000089582E0089585ED8093BC008091BC00F3
:1043200084FDFCCF1092EE05089585EC8093BC00CF
:104330001092EE0508951F920F920FB60F9211245E
:104340000BB60F922F933F934F935F936F937F938F
:104350008F939F93AF93BF93EF93FF938091B90097
:10436000887F803609F49CC068F5883209F45BC008
:1043700090F4803109F454C038F4882309F4F5C06E
:10438000883009F44DC0F5C0883109F44CC0803242
:1043900009F45DC0EEC0803409F468C048F480338D
:1043A00009F455C0883309F0E4C080938105A8C0A2
:1043B000803509F44FC0883509F45DC0883409F0B0
:1043C000D8C0D5C0883909F4C6C0A8F4883709F424
:1043D00067C038F4883609F463C0803709F460C0D8
:1043E000C8C0883809F4B7C0803909F45FC0803884
:1043F00009F0BFC05BC0803B09F485C038F4803A47
:1044000009F466C0883A09F47EC0B3C0803C09F460
:10441000A6C0883C09F4A3C0883B09F489C0A9C0A0
:104420008091ED0510C09091C6058091C505981743
:1044300070F5E091C60581E08E0F8093C605F0E02F
:10444000E953FA4F80818093BB0085EC85C080934F
:1044500081058DC0E091C60581E08E0F8093C60571
:104460008091BB00F0E0E953FA4F80839091C6053C
:104470008091C5056DC0E091C60581E08E0F8093E7
:10448000C6058091BB00F0E0E953FA4F808380912C
:10449000EC0581116CC081E08093EB0584EA60C07B
:1044A00083E08093EE0510928205CFCF8091820544
:1044B000803208F050C0E091820581E08E0F809339
:1044C00082058091BB00F0E0ED57FA4F8083BDCFAD
:1044D00080918205803230F4E0918205F0E0ED5762
:1044E000FA4F10820E948B216091820570E0E0916A
:1044F000E705F091E80583E895E0199510928205AB
:104500000E94952136C084E08093EE051092A405A8
:104510001092A305E091E905F091EA0519958091C3
:10452000A305811105C081E08093A3051092A50524
:10453000E091A40581E08E0F8093A405F0E0EB5597
:10454000FA4F80818093BB009091A4058091A305D0
:10455000981708F47ACF85E88093BC000AC085ECF0
:104560008093BC001092EE0504C0109281050E9459
:104570008B21FF91EF91BF91AF919F918F917F918F
:104580006F915F914F913F912F910F900BBE0F90C4
:104590000FBE0F901F901895FC0124853585F901F9
:1045A000E05CFF4F80819181F901EE5BFF4F20813C
:1045B0003181821B930B8F7399270895FC018485A9
:1045C0009585FC01E05CFF4F40815181FC01EE5B71
:1045D000FF4F208131814217530741F00190F08154
:1045E000E02DE80FF91F808190E008958FEF9FEF95
:1045F0000895FC0184859585FC01E05CFF4F4081B6
:104600005181FC01EE5BFF4F20813181421753073E
:1046100079F0A081B181A80FB91F8C9120813181DF
:104620002F5F3F4F2F7333273183208390E008950E
:104630008FEF9FEF0895FC0181A1882329F0A489C1
:10464000B5898C9186FFFBCF11A20895CF93DF939C
:10465000FC0126853785D901A05CBF4F8D919C91C7
:10466000119701968F739927E901CE5BDF4F48813F
:10467000598184179507D9F30D90BC91A02DA20FF5
:10468000B31F6C93A685B785A05CBF4F11969C9312
:104690008E93A689B7892C9181E090E0078C02C0A7
:1046A000880F991F0A94E2F7282B2C9381E081A3AD
:1046B0000488F589E02D80818064808381E090E02A
:1046C000DF91CF910895FB01E05CFF4F20813181A4
:1046D0002F5F3F4F2F733327DB01AE5BBF4F4D91F1
:1046E0005C912417350739F0A081B181A60FB71F5F
:1046F0008C9331832083089508951F920F920FB6F3
:104700000F9211240BB60F922F933F934F935F9309
:104710006F937F938F939F93AF93BF93EF93FF9389
:104720008091C00082FD07C08091C60063E578E0FB
:104730000E94632302C08091C600FF91EF91BF9158
:10474000AF919F918F917F916F915F914F913F9129
:104750002F910F900BBE0F900FBE0F901F901895CA
:1047600008951F920F920FB60F9211240BB60F925D
:104770002F933F934F935F936F937F938F939F9369
:10478000AF93BF93EF93FF938091C80082FD07C062
:104790008091CE006BEC77E00E94632302C0809191
:1047A000CE00FF91EF91BF91AF919F918F917F913B
:1047B0006F915F914F913F912F910F900BBE0F9092
:1047C0000FBE0F901F90189508951F920F920FB66D
:1047D0000F9211240BB60F922F933F934F935F9339
:1047E0006F937F938F939F93AF93BF93EF93FF93B9
:1047F0008091D00082FD07C08091D60063E477E00D
:104800000E94632302C08091D600FF91EF91BF9177
:10481000AF919F918F917F916F915F914F913F9158
:104820002F910F900BBE0F900FBE0F901F901895F9
:1048300008951F920F920FB60F9211240BB60F928C
:104840002F933F934F935F936F937F938F939F9398
:10485000AF93BF93EF93FF938091300182FD07C028
:10486000809136016BEB76E00E94632302C0809159
:104870003601FF91EF91BF91AF919F918F917F9101
:104880006F915F914F913F912F910F900BBE0F90C1
:104890000FBE0F901F90189585E596E00E94CC22E0
:1048A000892B11F00E947C2383E396E00E94CC22A6
:1048B000892B11F00E94B02381E196E00E94CC2266
:1048C000892B11F00E94E4238FEE95E00E94CC2208
:1048D000892B11F00C94182408951F920F920FB693
:1048E0000F9211240BB60F922F933F938F939F93A8
:1048F000EF93FF9320914F08309150088091510819
:10490000909152082817390731F48091C1008F7DAA
:104910008093C10014C0E0915108F0915208E15F0A
:10492000F74F2081809151089091520801968F7322
:10493000992790935208809351082093C600FF91C5
:10494000EF919F918F913F912F910F900BBE0F9000
:104950000FBE0F901F9018951F920F920FB60F92D7
:1049600011240BB60F922F933F938F939F93EF9346
:10497000FF932091C7073091C8078091C907909194
:10498000CA072817390731F48091C9008F7D8093B9
:10499000C90014C0E091C907F091CA07E957F84F60
:1049A00020818091C9079091CA0701968F7399273A
:1049B0009093CA078093C9072093CE00FF91EF918F
:1049C0009F918F913F912F910F900BBE0F900FBE33
:1049D0000F901F9018951F920F920FB60F921124EF
:1049E0000BB60F922F933F938F939F93EF93FF9369
:1049F00020913F07309140078091410790914207F5
:104A00002817390731F48091D1008F7D8093D10030
:104A100014C0E0914107F0914207E150F94F208125
:104A2000809141079091420701968F739927909347
:104A30004207809341072093D600FF91EF919F9109
:104A40008F913F912F910F900BBE0F900FBE0F9043
:104A50001F9018951F920F920FB60F9211240BB64C
:104A60000F922F933F938F939F93EF93FF932091F8
:104A7000B7063091B8068091B9069091BA0628170A
:104A8000390731F4809131018F7D8093310114C059
:104A9000E091B906F091BA06E958F94F208180916A
:104AA000B9069091BA0601968F7399279093BA062A
:104AB0008093B90620933601FF91EF919F918F91DA
:104AC0003F912F910F900BBE0F900FBE0F901F9034
:104AD0001895CF92DF92EF92FF92CF93DF93EC0184
:104AE0006A017B01411581EE580761057105F9F0F6
:104AF000EC89FD8981E090E008A002C0880F991F31
:104B00000A94E2F7808360E079E08DE390E0A7010A
:104B100096010E94AE302150310941095109569544
:104B2000479537952795211580E1380798F0EC894E
:104B3000FD89108260E874E88EE190E0A70196019B
:104B40000E94AE30215031094109510956954795CF
:104B500037952795E889F9893083EA89FB8920838D
:104B600019A2EE89FF89408181E090E09C010C8CC4
:104B700002C0220F331F0A94E2F7422B4083EE89D2
:104B8000FF8940819C010D8C02C0220F331F0A94C3
:104B9000E2F7422B4083EE89FF8940819C010E8C15
:104BA00002C0220F331F0A94E2F7422B4083EE89A2
:104BB000FF8920810F8C02C0880F991F0A94E2F7A9
:104BC000809582238083DF91CF91FF90EF90DF90DB
:104BD000CF900895CF93109258061092570688EE02
:104BE00093E0A0E0B0E08093590690935A06A0931A
:104BF0005B06B0935C0629EC33E0309356062093B5
:104C0000550643E558E050936206409361064FE035
:104C100058E0509364064093630645EC50E050938F
:104C200066064093650644EC50E050936806409356
:104C3000670640EC50E050936A064093690641ECE9
:104C400050E050936C0640936B0642EC50E050935A
:104C50006E0640936D0646EC50E05093700640930C
:104C60006F06C4E0C0937106F3E0F0937206E7E0CC
:104C7000E093730675E07093740661E060937506C7
:104C800010923606109235068093370690933806B8
:104C9000A0933906B0933A06309334062093330636
:104CA0004BEC57E05093400640933F0647E857E0EF
:104CB00050934206409341064DEC50E05093440619
:104CC000409343064CEC50E0509346064093450613
:104CD00048EC50E0509348064093470649EC50E0BA
:104CE00050934A06409349064AEC50E050934C06D4
:104CF00040934B064EEC50E050934E0640934D06C9
:104D0000C0934F06F0935006E093510670935206FD
:104D100060935306109214061092130680931506A2
:104D200090931606A0931706B093180630931206B8
:104D30002093110643E457E050931E0640931D064E
:104D40004FEF56E05093200640931F0645ED50E08C
:104D5000509322064093210644ED50E050932406E0
:104D60004093230640ED50E05093260640932506DD
:104D700041ED50E0509328064093270642ED50E065
:104D800050932A064093290646ED50E050932C0696
:104D900040932B06C0932D06F0932E06E0932F062A
:104DA00070933006609331061092F2051092F1056F
:104DB0008093F3059093F405A093F505B093F60561
:104DC0003093F0052093EF058BEB96E09093FC0574
:104DD0008093FB0587E796E09093FE058093FD05A1
:104DE00085E391E0909300068093FF0584E391E0D2
:104DF000909302068093010680E391E0909304066D
:104E00008093030681E391E0909306068093050664
:104E100082E391E0909308068093070686E391E091
:104E200090930A0680930906C0930B06F0930C0634
:104E3000E0930D0670930E0660930F06CF910895D0
:104E4000AF92BF92CF92DF92EF92FF920F931F9398
:104E5000CF93DF936C017B01C0E0D0E000E010E075
:104E6000F601EC0FFD1F4AE050E06281C7010E948D
:104E700036295C016EE2C7010E9403288A0D9B1D42
:104E8000080F191F2196C330D10551F74AE050E0B1
:104E9000F6016581C7010E943629800F911FDF91BD
:104EA000CF911F910F91FF90EF90DF90CF90BF9027
:104EB000AF90089589ED93E09093980880939708B8
:104EC0001092990810929A0810929B0810929C08D0
:104ED0000895CF92DF92EF92FF920F931F93CF939B
:104EE000DF936C017A01EB01E60EF71E00E010E0A3
:104EF000CE15DF0561F06991D601ED91FC9101902D
:104F0000F081E02DC6011995080F191FF1CFC801D6
:104F1000DF91CF911F910F91FF90EF90DF90CF9095
:104F200008956115710581F0DB010D900020E9F70E
:104F3000AD0141505109461B570BDC01ED91FC912D
:104F40000280F381E02D199480E090E00895EF92C3
:104F5000FF920F931F93CF93DF938C01FB01C0E06F
:104F6000D0E064917F018FEFE81AF80A662361F0C0
:104F7000D801ED91FC910190F081E02DC8011995C7
:104F8000C80FD91FF701EDCFCE01DF91CF911F914F
:104F90000F91FF90EF900895AF92BF92CF92DF9262
:104FA000EF92FF920F931F93CF93DF937C016B01DE
:104FB000C0E0D0E000E010E0D60114968D919C9105
:104FC0001597C817D90788F4D701ED91FC91A080F7
:104FD000B180BE01C6010E94B62B682FC701F50142
:104FE0001995080F191F2196E7CFC801DF91CF91BE
:104FF0001F910F91FF90EF90DF90CF90BF90AF90F7
:1050000008950C949127DC01ED91FC910190F081C1
:10501000E02D19940F931F93CF93DF93EC016DE074
:105020000E9403288C016AE0CE010E940328800FB1
:10503000911FDF91CF911F910F9108950F931F93AF
:10504000CF93DF93EC010E94A7278C01CE010E9431
:105050000A28800F911FDF91CF911F910F91089522
:105060000F931F93CF93DF93EC010E94CC278C0109
:10507000CE010E940A28800F911FDF91CF911F91CE
:105080000F9108950F931F93CF93DF93EC010E942C
:1050900091278C01CE010E940A28800F911FDF9179
:1050A000CF911F910F9108958F929F92AF92BF92CF
:1050B000CF92DF92EF92FF920F931F93CF93DF93E4
:1050C000CDB7DEB7A1970FB6F894DEBF0FBECDBF48
:1050D0007C01C42EE52FCB01D22E19A221E02D1583
:1050E00010F02AE0D22E8E010F5D1F4F8D2C912CD7
:1050F000A12CB12C6C2D7E2FA50194010E94AE3005
:105100008C2DD29E80191124015011098A3014F47B
:10511000805D01C0895CF80180832115310541055E
:10512000510521F0C22EE32FCA01E4CFB801C70117
:105130000E949127A1960FB6F894DEBF0FBECDBF97
:10514000DF91CF911F910F91FF90EF90DF90CF9063
:10515000BF90AF909F908F900895CF92DF92EF9283
:10516000FF920F931F93CF93DF93EC016A017B01B2
:105170002115310579F4E881F9810190F081E02D64
:10518000642FDF91CF911F910F91FF90EF90DF90EF
:10519000CF9019942A303105E9F477FF1AC06DE2F7
:1051A0000E9403288C0144275527BA014C195D0938
:1051B0006E097F092AE0CE010E945428800F911FBA
:1051C000DF91CF911F910F91FF90EF90DF90CF90E3
:1051D00008952AE0B701A601CE01DF91CF911F917A
:1051E0000F91FF90EF90DF90CF900C9454289A018C
:1051F000AB01662757FD6095762F0C94AD280F9371
:105200001F93CF93DF93EC019A01AB01662757FD03
:105210006095762F0E94AD288C01CE010E940A284D
:10522000800F911FDF91CF911F910F9108950F93E0
:105230001F93CF93DF93EC010E94AD288C01CE0128
:105240000E940A28800F911FDF91CF911F910F912B
:1052500008952115310541F4DC01ED91FC91019097
:10526000F081E02D642F19940C9454289A01462F54
:1052700050E060E070E00C9429299A01AB0160E0F5
:1052800070E00C9429290F931F93CF93DF93EC01C7
:105290000E941B2E688779878A879B87E881F9811E
:1052A0000680F781E02DCE01199597FF15C00E9469
:1052B0001B2E088519852A853B85601B710B820B87
:1052C000930B0C811D812E813F816017710782072E
:1052D000930720F38FEF9FEFDF91CF911F910F91F5
:1052E0000895CF92DF92EF92FF920F931F93CF9387
:1052F000DF937C016A01EB0100E010E00C151D0555
:1053000049F0C7010E94432997FD04C089930F5FAC
:105310001F4FF4CFC801DF91CF911F910F91FF90E4
:10532000EF90DF90CF9008958230A9F028F4882381
:1053300049F0813051F00895843009F1E8F085306A
:1053400009F1089510926E00089580916F008D7F8D
:1053500080936F000895809170008D7F809370001E
:1053600081E08093B0008091B100887F8460809359
:10537000B1001092B3000895109271000895109238
:1053800072000895109273000895CF93C82F8091F2
:105390000A028C1307C0EBE4F4E084919FEF909332
:1053A0000A0201C08FEF0E94942960E08C2FCF91F8
:1053B0000C943D301F920F920FB60F9211240BB632
:1053C0000F922F933F934F935F936F937F938F939E
:1053D0009F93AF93BF93EF93FF938091A008909119
:1053E000A108A091A208B091A308892B8A2B8B2B2E
:1053F00051F190919D08E0919E08F0919F08808165
:10540000892780838091A0089091A108A091A2088B
:10541000B091A308181619061A061B06C4F4809149
:10542000A0089091A108A091A208B091A3080197AB
:10543000A109B1098093A0089093A108A093A208A4
:10544000B093A30804C080910A020E94C529FF916D
:10545000EF91BF91AF919F918F917F916F915F91EC
:105460004F913F912F910F900BBE0F900FBE0F9059
:105470001F9018954F925F926F927F92AF92BF925A
:10548000CF92DF92EF92FF920F931F93CF93DF9310
:10549000CDB7DEB729013A01621B730B840B950B64
:1054A0002A893B894C895D892A193B094C095D0988
:1054B0002A8B3B8B4C8B5D8B9B01AC016A897B8972
:1054C0008C899D890E947E30E418F5080609170929
:1054D000A80197010E94D0302A0D3B1D4C1D5D1D77
:1054E000CA01B901DF91CF911F910F91FF90EF9009
:1054F000DF90CF90BF90AF907F906F905F904F9074
:105500000895FC01808191810C941932CF93DF932F
:10551000EC0188819981009711F00E94193219825B
:1055200018821D821C821B821A82DF91CF910895FE
:105530000F931F93CF93DF93EC018B016F5F7F4F2E
:10554000888199810E94A832009731F099838883DD
:105550001B830A8381E001C080E0DF91CF911F911E
:105560000F910895CF93DF93EC0188819981892B66
:1055700029F08A819B818617970760F4CE010E94EB
:10558000982A882341F08C819D81892B19F4E88128
:10559000F981108281E0DF91CF910895EF92FF921F
:1055A0000F931F93CF93DF93EC017B018A01BA0124
:1055B0000E94B22A811104C0CE010E94862A07C02F
:1055C0001D830C83B701888199810E94D233CE015B
:1055D000DF91CF911F910F91FF90EF900895FC0103
:1055E0001182108213821282158214821682611532
:1055F000710559F0FB0101900020E9F7AF0141501E
:105600005109461B570B0C94CE2A0895CF93DF9374
:10561000EC01FB018617970761F0608171816115CC
:10562000710529F0448155810E94CE2A02C00E9452
:10563000862ACE01DF91CF910895CF93DF93EC01BD
:105640006115710561F0FB0101900020E9F7AF01E0
:1056500041505109461B570B0E94CE2A02C00E949E
:10566000862ACE01DF91CF910895EF92FF920F939A
:105670001F93CF93DF93EC017B010C811D8161159A
:10568000710511F480E016C04115510591F0040F29
:10569000151FB8010E94B22A8823A1F328813981FD
:1056A0008C819D81B701820F931F0E94D2331D838D
:1056B0000C8381E0DF91CF911F910F91FF90EF90CC
:1056C00008956115710559F0FB0101900020E9F77B
:1056D000AF0141505109461B570B0C94352B80E00C
:1056E0000895CF93DF931F921F92CDB7DEB76983E2
:1056F0001A8241E050E0BE016F5F7F4F0E94352B60
:105700000F900F90DF91CF910895FC012481358196
:10571000232B31F421E061157105A1F0FB0108C0D4
:10572000FC01808191816115710531F421E0FC015A
:105730008081882339F005C00E94C93321E0892B7C
:1057400009F020E0822F0895FC018481958168177B
:10575000790720F480819181009729F41092A408A0
:1057600084EA98E00895860F971F0895FC0124812C
:1057700035816217730748F480819181009729F081
:10578000FC01E60FF71F8081089580E00895BF9225
:10579000CF92DF92EF92FF920F931F93CF93DF93FD
:1057A0006C017B01EA0189012417350720F48D2F54
:1057B000E901042F182F64E973E0C6010E94EF2A63
:1057C000D70114968D919C9115978C179D07C8F061
:1057D0008017910708F48C01D701ED91FC91119786
:1057E000E00FF11FB08010826D917C916C0F7D1FD6
:1057F000C6010E941D2BD701ED91FC91E00FF11F16
:10580000B082C601DF91CF911F910F91FF90EF9071
:10581000DF90CF90BF900895CF93DF93EC01FB0111
:10582000248135810E94C72BCE01DF91CF9108954D
:10583000CF93DF93FC01C081D181209751F0888103
:10584000882339F0992787FD90950E94B833899372
:10585000F6CFDF91CF910895FC018081918100976F
:1058600011F00C94913360E070E0CB0108950E9438
:10587000712E0E946C0DCCE4D4E20E946E0D209734
:10588000E1F30E944C24F9CF0C9481310C9419322D
:1058900008951F920F920FB60F9211240BB60F921C
:1058A0002F933F934F935F936F937F938F939F9328
:1058B000AF93BF93EF93FF938091A9089091AA08AB
:1058C000892B29F0E091A908F091AA081995FF9178
:1058D000EF91BF91AF919F918F917F916F915F9168
:1058E0004F913F912F910F900BBE0F900FBE0F90D5
:1058F0001F9018951F920F920FB60F9211240BB69E
:105900000F922F933F934F935F936F937F938F9358
:105910009F93AF93BF93EF93FF938091AB089091C8
:10592000AC08892B29F0E091AB08F091AC081995EF
:10593000FF91EF91BF91AF919F918F917F916F9167
:105940005F914F913F912F910F900BBE0F900FBE23
:105950000F901F9018951F920F920FB60F9211245F
:105960000BB60F922F933F934F935F936F937F9359
:105970008F939F93AF93BF93EF93FF938091AD0865
:105980009091AE08892B29F0E091AD08F091AE0816
:105990001995FF91EF91BF91AF919F918F917F9159
:1059A0006F915F914F913F912F910F900BBE0F9090
:1059B0000FBE0F901F9018951F920F920FB60F9267
:1059C00011240BB60F922F933F934F935F936F93D6
:1059D0007F938F939F93AF93BF93EF93FF938091A8
:1059E000AF089091B008892B29F0E091AF08F091B1
:1059F000B0081995FF91EF91BF91AF919F918F9151
:105A00007F916F915F914F913F912F910F900BBEBE
:105A10000F900FBE0F901F9018951F920F920FB608
:105A20000F9211240BB60F922F933F934F935F93D6
:105A30006F937F938F939F93AF93BF93EF93FF9356
:105A40008091A5089091A608892B29F0E091A508DE
:105A5000F091A6081995FF91EF91BF91AF919F9199
:105A60008F917F916F915F914F913F912F910F9007
:105A70000BBE0F900FBE0F901F9018951F920F92A4
:105A80000FB60F9211240BB60F922F933F934F93A3
:105A90005F936F937F938F939F93AF93BF93EF9396
:105AA000FF938091A7089091A808892B29F0E09195
:105AB000A708F091A8081995FF91EF91BF91AF91B8
:105AC0009F918F917F916F915F914F913F912F9116
:105AD0000F900BBE0F900FBE0F901F9018951F9246
