:100000000C944B020C9458290C9485290C946E1E68
:100010000C94921E0C94B61E0C9473020C94EE2653
:100020000C9473020C9473020C9473020C94FB1ADC
:100030000C9473020C9473020C9473020C9473026C
:100040000C94B2290C9473020C94F0220C94332378
:100050000C9473020C9473020C9473020C9473024C
:100060000C942B210C947302F5060A073E074507F2
:100070005007500750075007B607B9076E656174FF
:100080006F005350006C6174656E637900006865A1
:10009000617274626561740000626D730000616E6C
:1000A000616C6F6700500070776D0050007365726F
:1000B000766F005000626164207377207365726907
:1000C000616C20003A20002073656E736F7220000F
:1000D0003220696E6465782000616E616C6F672004
:1000E000696E7075742076616C75652066726F6DCF
:1000F000203020746F203130323300737472656E9B
:100100006774682066726F6D203020286F666629DC
:1001100020746F2032353520286F6E29003A200078
:1001200020636F6D6D616E6420003320696E6465BD
:100130007820006261642070696E20006261642032
:10014000616E616C6F672070696E2000636F6D6D0A
:10015000616E646564206F7269656E746174696F45
:100160006E20696E206465677265657300637265F1
:10017000617465320053007361626572746F6F74ED
:1001800068320053007361626572746F6F74683116
:100190000053006274730050505050003920456E77
:1001A00074657220796F757220746162756C61205C
:1001B000646576696365206E616D6573206E6F7727
:1001C0003A0062616420696E740027207768696C68
:1001D0006520636F6E6669677572696E67200020BF
:1001E000270030204552524F523A2000626164206D
:1001F000636F6D6D616E64006C6F6F70210072656E
:100200007365742100417267756D656E7420666F49
:10021000726D61743A2053206973206120536572B6
:1002200069616C20706F72742C206C696B6520584A
:100230003320666F72205458332F5258332E2020AB
:100240005020697320612050696E2C206C696B65A9
:100250002070696E2031332C206F722041332E00C4
:100260005468697320697320686F7720796F7520EF
:10027000636F6E66696775726520796F757220416C
:10028000726475696E6F2061742072756E74696D29
:10029000652E2020526567697374657265642064F9
:1002A0006576696365733A006C69737400206279DE
:1002B00074657320667265650072616D3F0020741D
:1002C0006F2076616C756520003120207365742085
:1002D00031362062697420636F6D6D616E642069D0
:1002E0006E6465782000636D6431360020746F2081
:1002F00076616C7565200031202073657420636F12
:100300006D6D616E6420696E6465782000636D6454
:100310000031202000636F6D6D616E64733F0031AA
:1003200020200073656E736F72733F00312032308E
:1003300031352D30372D3033204368756769616B57
:100340000076657273696F6E3F0073657269616CE8
:100350005F636F6E74726F6C6C6572003120416404
:10036000646564206465766963652000457870651E
:1003700063746564200073657269616C5F636F6E9E
:1003800074726F6C6C6572000000C2010001001194
:100390000011000C0000E100000A002500250021EA
:1003A00000009600001900390039003600127A006A
:1003B000001F004600460044008070000022004DEF
:1003C000004D004A00004B000036007500750072B9
:1003D00000403800004A009C009C009900802500E5
:1003E000007200EC00EC00E900C0120000E900DA45
:1003F00001DA01D70160090000D701B603B603B3E3
:1004000003B0040000B3036E076E076B07580200C9
:10041000006E07DC0EDC0ED80E2C010000DC0EC1D5
:100420001DC11DBE1D0200000007000201000003E7
:100430000406000000000000000001020408102073
:100440004080010204081020010204081020040466
:10045000040404040404020202020202030303036C
:100460000303000000002300260029000000000014
:10047000250028002B0000000000240027002A008F
:100480003403FD0A6010CA1A9C20EF237F243D0329
:10049000B70BCF10F91A11241FBECFEFD8E0DEBF83
:1004A000CDBF12E0A0E0B1E0EAE7FEE502C00590B2
:1004B0000D92A03FB107D9F715E0A0EFB2E001C05F
:1004C0001D92AD35B107E1F714E0CEE8D4E004C0E9
:1004D0002297FE010E941F2CC038D107C9F70E9445
:1004E00046290C94302F0C94000020E131E0FC01EF
:1004F00031832083089520E131E0FC0131832083A2
:10050000089520E131E0FC01318320830C945529CA
:1005100020E131E0FC01318320830C9455290F93B5
:100520001F93CF93DF93CCEFD2E0BA91AA911097AB
:1005300081F012960C91129713961C911397ED91DE
:10054000FC9111970280F381E02DCD010995D8012E
:10055000EECF1982188282E0C03FD80731F7DF91D1
:10056000CF911F910F910895CF93DF93FC01C0812C
:10057000D181209759F0E881F9810480F581E02D3F
:10058000CE0109950A80DB81C02DF3CFDF91CF9199
:100590000895CF93DF93EC018091FC029091FD02CE
:1005A0002E813F81821B930B2C813D818217930703
:1005B00050F0888599850E94B4028091FC02909148
:1005C000FD029F838E83DF91CF910895DF92EF929A
:1005D000FF920F931F93CF93DF93C0E0D0E001E031
:1005E00010E08AE1E82E81E0F82E9AE0D92E8AE028
:1005F00090E00E945329FC01F182E082158304837C
:1006000017821682CE018E509D4F918780878091F0
:10061000F0029091F10293838283F093F102E093D0
:10062000F002C801D89E8001D99E100D1124229697
:10063000CA30D105E1F6DF91CF911F910F91FF9064
:10064000EF90DF9008950E94082A2AE096958795FA
:10065000779567952A95D1F77093FD026093FC0218
:1006600080EF92E00C94B402E0EFF2E0119211926C
:1006700082E0EC3FF807D1F708950C948F0227E34E
:1006800031E0FC01318320830895DC011496ED9163
:10069000FC91159715821482089527E331E0FC013F
:1006A00031832083089520E131E0FC0131832083F0
:1006B000089527E331E0FC0131832083089520E190
:1006C00031E0FC0131832083089520E131E0FC0119
:1006D00031832083089527E331E0FC0131832083B7
:1006E000089520E131E0FC0131832083089527E360
:1006F00031E0FC0131832083089520E131E0FC01E9
:1007000031832083089527E331E0FC013183208386
:10071000089520E131E0FC0131832083089527E32F
:1007200031E0FC0131832083089520E131E0FC01B8
:1007300031832083089527E331E0FC013183208356
:10074000089520E131E0FC0131832083089527E3FF
:1007500031E0FC01318320830C94552927E331E0FB
:10076000FC01318320830C94552920E131E0FC0108
:10077000318320830C94552927E331E0FC01318338
:1007800020830C94552920E131E0FC013183208342
:100790000C94552920E131E0FC01318320830C9435
:1007A000552927E331E0FC01318320830C9455293E
:1007B00020E131E0FC01318320830C94552927E3AB
:1007C00031E0FC01318320830C94552920E131E094
:1007D000FC01318320830C94552927E331E0FC018F
:1007E000318320830C94552920E131E0FC013183D1
:1007F00020830C94552927E331E0FC0131832083C9
:100800000C94552920E131E0FC01318320830C94C4
:10081000552927E331E0FC01318320830C945529CD
:1008200020E131E0FC01318320830C945529E091D3
:100830006203F0916303DC0117962D913C911897A8
:10084000E20FF31F608170E004960C949A1CE09113
:100850006203F0916303DC0116962D913C9117978A
:10086000E20FF31F608170E014968C910C94AA2A19
:10087000CF92DF92EF92FF920F931F93CF93DF936C
:10088000EC017B018A0169016AE271E0888199814A
:100890000E94CC244AE050E0B601888199810E94F0
:1008A0001C2660E271E0888199810E94CC24B70106
:1008B000888199810E9426256DE171E08881998166
:1008C0000E94CC24B80188819981DF91CF911F913A
:1008D0000F91FF90EF90DF90CF900C94432587E32A
:1008E00091E09093FF028093FE0290930703809320
:1008F000060390930F0380930E0390931703809346
:10090000160390931F0380931E03909327038093F5
:10091000260390932F0380932E030895CF93DF93A4
:10092000EC018C810E948D2AE0916603F0916703AF
:100930002E813F81E20FF31F91838083DF91CF915E
:100940000895E0916603F0916703DC012D913C91DD
:100950001197E20FF31F6083E0916603F091670344
:100960008D919C91E80FF91F80810895FC016481AD
:1009700021E0260F248305960C94A104CF93DF93E6
:10098000EC010E94082A2AE096958795779567954D
:100990002A95D1F72E813F81AB01421B530B9A015F
:1009A0004C815D814217530710F43D832C837F8374
:1009B0006E836C81CE010896DF91CF910C94A104D7
:1009C0000F931F93CF93DF93EC018B0169E972E0E2
:1009D0000E94FF27D80112966C911297662319F096
:1009E00012961C9211C0F80180819181DC01ED9179
:1009F000FC910680F781E02D0995181619061CF068
:100A00000E942303F0CF682F623221F3673211F383
:100A100088ED860F603251F06A3041F06D3031F070
:100A2000823020F06C3211F06B3399F4823010F088
:100A30006B3311F4F801628369E972E0CE010E9420
:100A400094288111C7CFCE01DF91CF911F910F91D3
:100A50000895CE010E948128BDCFBF92CF92DF9230
:100A6000EF92FF920F931F93CF93DF93CDB7DEB733
:100A70002E970FB6F894DEBF0FBECDBF8C01BC0120
:100A8000CE0108960E94E004CE0108960E94272914
:100A900060E070E0CE0108960E94B328FC018081DE
:100AA0008134B9F441E050E0BE01685F7F4FCE0170
:100AB00001960E941B29BE016F5F7F4FCE010896F1
:100AC0000E941628CE0101960E949127BB24B39460
:100AD00001C0B12CCE0108960E943B29BB2081F0B9
:100AE000673071058105910544F46B017C01FEE0DE
:100AF000CF0ED11CE11CF11C22C08CE391E00FC091
:100B00006B017C01F1E0CF1AD108E108F1082DE07A
:100B1000C216D104E104F10480F083E391E0F8010E
:100B200094838383BE01685F7F4FC80105960E944E
:100B30001628C12CD12C760102C06B017C01CE019C
:100B400008960E949127C701B6012E960FB6F89419
:100B5000DEBF0FBECDBFDF91CF911F910F91FF90F0
:100B6000EF90DF90CF90BF9008958F929F92AF92B9
:100B7000BF92CF92DF92EF92FF920F931F93CF938A
:100B8000DF93EB01CB010E942D056B017C0188E016
:100B900090E00E9453298C0188E0D8011D928A952B
:100BA000E9F7F8011382128289E691E0918380834C
:100BB000E8E6F3E0A080B180B5016E5F7F4F7183FE
:100BC000608336E6832E33E0932ED4018D919C9181
:100BD0000E94D22DF40191838083FC01EA0DFB1D5C
:100BE00011821082D8011796BC92AE921697159674
:100BF000DC92CE92149760ED70E0888199810E941A
:100C0000CC244AE050E0B501888199810E941C26DD
:100C100067EC70E0888199810E94CC2460E271E0E9
:100C2000888199810E94262564EC70E088819981F1
:100C30000E94CC2469ED70E0888199810E9443254F
:100C4000E4EFF2E080819181D80113969C938E931A
:100C5000129711830083DF91CF911F910F91FF9025
:100C6000EF90DF90CF90BF90AF909F908F900895BE
:100C70002091580330915903FC01378326839093C8
:100C80005903809358030895FC018FEF808383E01C
:100C900081831382128220E030E03496DF01A20FBC
:100CA000B31F1C9211961C922E5F3F4F28313105C5
:100CB000A9F708952F923F924F925F926F927F9281
:100CC0008F929F92AF92BF92CF92DF92EF92FF925C
:100CD0000F931F93CF93DF9300D000D000D0CDB7F8
:100CE000DEB73C01A9EE2A2EA3E03A2E2C0122E524
:100CF000420E511C8C010C5A1F4F9C01205C3F4F2F
:100D00003E832D836C0136E5C30ED11C5C0162E489
:100D1000A60EB11C7C0174E4E70EF11C4C0186E4C4
:100D2000880E911C9301285B3F4F3A832983D3019E
:100D3000DC968D919C91DD97DC01ED91FC91048016
:100D4000F581E02D0995892B09F489C1F30184AD62
:100D500095ADDC01ED91FC910680F781E02D0995C0
:100D60008F3FBFEF9B0709F47AC1F20120813181E7
:100D7000232B31F0D8018D939C931182108228C0CF
:100D8000382F2227F80140815181242B352B3183C4
:100D90002083AD81BE814D915C914930510599F020
:100DA000F6014081518162817381440F551F661F96
:100DB000771F420F531F611D711DD6014D935D9327
:100DC0006D937C93139721E030E0F201318320830F
:100DD000AD81BE812D913C912A30310508F038C19A
:100DE000F901EC5CFF4F0C941D2C8A3F910509F032
:100DF0002FC1F6011082118212821382D8018D93C5
:100E00009C93F20111821082D5011D921C9281E007
:100E100090E023C0805A91098A35910518F5880F12
:100E2000991F880F991FD301DF969C938E93DE97AD
:100E300014962C91149715964C911597342F337066
:100E400031FF09C014968C9314979370842F8C7F74
:100E5000892B15968C9382E090E0ED81FE81918341
:100E60008083F6C0D30115968C9115978C5F1596EB
:100E70008C93ED81FE8111821082EAC083E090E0C4
:100E8000AD81BE818D939C93E3C0F80180819181F7
:100E9000D30117969C938E93169784E090E0DDCF54
:100EA000D5018D919C918130910541F08330910560
:100EB00059F4F80140815181D40104C0F801408106
:100EC0005181D7014D935C930196F5019183808305
:100ED000049709F0BDC0D7018D919C91119797FFA0
:100EE00002C01D921C92F7018081918196FF03C080
:100EF0009F739183808380E090E0F4014081518171
:100F00004115510549F05695479556954795D40199
:100F10004D935C930196F1CF8830910510F087E0F6
:100F200090E0D4018D939C93F7019081A981BA81BF
:100F30009C9391818295880F807E9F71982B11964A
:100F40009C931197F9017F96EE0FFF1FE60DF71D99
:100F50008D919C9195838483F501118210822F5F7E
:100F60003F4FAD81BE812D933C9372C089E090E0EC
:100F700074CFAD81BE811D921C92F601808191815A
:100F8000A281B381AC01BD012FE07695679557959D
:100F900047952A95D1F7840F951F9F77D8012D91FA
:100FA0003C91F30146AD57AD8217930721F085813F
:100FB0008C5F858338C080E090E093012C5F3F4FC9
:100FC0003C832B83FC01E40FF51FD30114962C9175
:100FD000149715966C91362F3370A6E0220F331FAD
:100FE000AA95E1F7B6E035952795BA95E1F7E21BAA
:100FF000F30BEC30F10598F43296EE0FFF1FE60D7F
:10100000F71D9C01220F331F6B817C81260F371F38
:101010002A5B3F4FD9012D913C9135832483019662
:101020008430910579F6CA0104966CE070E00E9464
:10103000C82B892B69F48CE1F3013496D301909687
:1010400001900D928A95E1F7C30104960E9444062F
:10105000F1E02F1A31082114310409F068CEA09173
:101060006603B0916703F301E65AFF4F80819181D7
:10107000A80FB91F8CE1F301B09601900D928A95EB
:10108000E1F77301BCE5EB0EF11C61E0F701808133
:101090000E94322B80916A03882391F1D3019296AA
:1010A0000D911C919397B80180E090E00E94462C2E
:1010B00020E030E048E453E40E94A72C18162CF5F9
:1010C00046E0169507954A95E1F7085111402AE048
:1010D000209FC001219F900D1124823EBFEF9B07EE
:1010E00064F0823E910564F426EF2003B001219F55
:1010F000700D11246F517F4F05C06FEF70E002C07B
:1011000060E070E0F701808104C06FEF70E0D7010C
:101110008C9126960FB6F894DEBF0FBECDBFDF913F
:10112000CF911F910F91FF90EF90DF90CF90BF90E4
:10113000AF909F908F907F906F905F904F903F9077
:101140002F900C94AA2AAF92BF92CF92DF92EF9287
:10115000FF920F931F93CF93DF93CDB7DEB7C855A0
:10116000D1090FB6F894DEBF0FBECDBF8B01CE0103
:1011700001960E94E004CE0101960E94272966E2B2
:1011800071E0CE0101960E9494288823B9F1C8012C
:101190000E942D056B017C01C8010E942D05AB0149
:1011A000BC01C114D104E104F104A1F141155105C0
:1011B0006105710579F18CE190E066964FAF669715
:1011C00067965FAF679768966FAF689769967FAFCE
:1011D00069970E9453295C0120E066964FAD66979F
:1011E0006C2D0E94281FA114B104B1F040E052EC14
:1011F00061E070E0C5010E94581F0EC085EB90E0D1
:10120000F80194838383BE016F5F7F4FC801059609
:101210000E941628A12CB12CCE0101960E94912784
:10122000C8010E942D056B017C018EE590E00E94B3
:1012300053298C01FC011382128283EC91E091838B
:101240008083C80104960E944406C80180960E94CB
:101250004406F801B5AEA4AEE05CFF4F11821082E7
:10126000F801EA5AFF4F1082118212821382F801AC
:10127000EC5AFF4F11821082F801EE5AFF4F81E0C5
:1012800090E091838083F801EE5BFF4F1182108222
:10129000F801EC5BFF4F11821082F801EA5BFF4F0F
:1012A00011821082F80117AE16AECE01C9960E94C7
:1012B00044068CE1FE01F996DE015D9601900D92E7
:1012C0008A95E1F78CE1FE017D96DE011196019091
:1012D0000D928A95E1F7A0906803B0906903B5017B
:1012E000645E7F4F70936903609368038091660327
:1012F000909167030E94D22D9093670380936603B9
:10130000DC01AA0DBB1D8CE1FE01319601900D920E
:101310008A95E1F7F801E65AFF4FB182A082F80101
:10132000E45AFF4FD182C0828091F2029091F30281
:10133000F801938382831093F3020093F202C85A58
:10134000DF4F0FB6F894DEBF0FBECDBFDF91CF9158
:101350001F910F91FF90EF90DF90CF90BF90AF90D3
:101360000895FF920F931F93CF93DF93EC01F62E16
:101370000A811B81B8016F5F7F4F7B836A838881FD
:1013800099810E94D22D99838883FC01E00FF11F7F
:10139000F082C801DF91CF911F910F91FF900895C6
:1013A000CF93DF93EC0186E693E00E94B109998325
:1013B0008883DF91CF910895EF92FF920F931F934F
:1013C000CF93DF9385ED93E00E94822088E090E048
:1013D0000E945329EC011B821A828DE791E09983C8
:1013E00088837E0184E0E80EF11C60E0C7010E9462
:1013F000D0098E010A5F1F4F60E0C8010E94D0092A
:1014000062E3C7010E94A10460E0C8010E94A10438
:10141000E8EFF2E0808191819B838A83D183C0834E
:10142000DF91CF911F910F91FF90EF900895CF938F
:10143000DF9387E090E00E945329EC0187E0FE01F2
:1014400011928A95E9F71B821A8281E991E09983CA
:10145000888360E0CE0105960E94D009E6EFF2E0B5
:10146000808191819B838A83D183C083DF91CF91D7
:101470000895CF93DF938AE090E00E945329EC0116
:101480008AE0FE0111928A95E9F71B821A8285EAA9
:1014900091E09983888360E0CE0108960E94D0098C
:1014A000E2EFF2E0808191819B838A83D183C083C4
:1014B00086E090E00E945329FC018FEA91E091833D
:1014C0008083D583C483A8EFB2E08D919C9111975E
:1014D00093838283ED93FC93DF91CF910895CF9214
:1014E000DF92EF92FF920F931F93CF93DF938B01C5
:1014F000CB010E942D056B017C0188E090E00E94E9
:101500005329EC0188E0FE0111928A95E9F71B82CC
:101510001A8285E591E09983888360E082E693E012
:101520000E94B1099F838E83DD82CC829C014BEFA8
:1015300050E06BE271E0C8010E943804E4EFF2E091
:10154000808191819B838A83D183C083DF91CF91F6
:101550001F910F91FF90EF90DF90CF900895AF9281
:10156000BF92CF92DF92EF92FF920F931F93CF9390
:10157000DF938B01CB010E942D056B017C0189E07B
:1015800090E00E945329EC0189E0FE0111928A95B6
:10159000E9F71B821A8281E491E0998388835E01D6
:1015A000F4E0AF0EB11CC5010E94B71B60E082E6FB
:1015B00093E00E94B10998878F83B601C5010E940C
:1015C000511C2F8138854CE451E06FE271E0C80175
:1015D0000E943804E4EFF2E0808191819B838A834A
:1015E000D183C083DF91CF911F910F91FF90EF9036
:1015F000DF90CF90BF90AF9008950F931F93CF933C
:10160000DF930EE213E0C7E3D1E0F801D183C0839A
:101610008DEA90E0909331038093300383EB90E068
:101620009093330380933203C8010E9438068BE401
:1016300091E0F8019183808306E213E0F801D18301
:10164000C08387EA90E090932903809328038BEA74
:1016500090E090932B0380932A03C8010E943806E0
:101660008FE591E0F801918380830EE113E0F801AA
:10167000D183C0838EE990E090932103809320036F
:1016800085EA90E09093230380932203C8010E948F
:10169000380683E791E0F8019183808306E113E047
:1016A000F801D183C08389E990E090931903809376
:1016B00018038DE990E090931B0380931A03C801EF
:1016C0000E94380687E891E0F801918380830EE05C
:1016D00013E0F801D183C0838EE890E0909311036A
:1016E0008093100388E990E0909313038093120392
:1016F000C8010E9438068BE991E0F801918380834C
:1017000006E013E0F801D183C08385E890E0909370
:101710000903809308038DE890E090930B03809376
:101720000A03C8010E94380689EB91E0F801918311
:1017300080830EEF12E0F801D183C0838CE790E044
:10174000909301038093000382E890E09093030359
:1017500080930203C8010E9438068DEC91E0F801E5
:1017600091838083DF91CF911F910F9108950C9405
:101770006F04CF93DF93EC0142E050E062E070E051
:1017800085ED93E00E94992085ED93E00E94F31F80
:10179000682FCE0104960E94A10485ED93E00E947B
:1017A000F31F682FCE010696DF91CF910C94A10410
:1017B0000C945C180C942303CF93DF932091620365
:1017C00030916303EC01A881B981EE81FF81E20FC2
:1017D000F31F40815181EC81FD81E20FF31F608195
:1017E00071811696ED91FC911797DF91CF91099435
:1017F00020E131E0FC013183208308950F931F9392
:10180000CF93DF93EC019B018A01E881F981008489
:10181000F185E02D46E060E80995E881F9810084D2
:10182000F185E02D980147E060E8CE01DF91CF918E
:101830001F910F910994CF93DF931F92CDB7DEB71D
:101840003595279535952795473011F0205C01C0D7
:1018500020542983DC0118968D919C911997DC0105
:10186000ED91FC910280F381E02D41E050E0BE015A
:101870006F5F7F4F09950F90DF91CF910895CF93C0
:10188000DF9300D000D0CDB7DEB7359527953595DD
:101890002795205C69834A832B83460F420F4F773D
:1018A0004C83DC0118968D919C911997DC01ED9188
:1018B000FC910280F381E02D44E050E0BE016F5FB7
:1018C0007F4F09950F900F900F900F90DF91CF9160
:1018D000089527E331E0FC0131832083089520E15E
:1018E00031E0FC0131832083089527E331E0FC01DE
:1018F00031832083089527E331E0FC013183208385
:10190000089527E331E0FC0131832083089520E12D
:1019100031E0FC0131832083089520E131E0FC01B6
:1019200031832083089520E131E0FC01318320835D
:10193000089520E131E0FC01318320830C94552986
:1019400027E331E0FC01318320830C94552920E109
:1019500031E0FC01318320830C94552927E331E0E9
:10196000FC01318320830C94552927E331E0FC01ED
:10197000318320830C94552927E331E0FC01318326
:1019800020830C94552920E131E0FC013183208330
:101990000C94552920E131E0FC01318320830C9423
:1019A000552920E131E0FC01318320830C94552935
:1019B000CF92DF92FF920F931F93CF93DF931F92EB
:1019C000CDB7DEB76C01F62E8A0160E0FC018085A0
:1019D00079830E946B2B60E0F60184850E946B2B5B
:1019E00060E0F60182850E946B2B60E0F60186853F
:1019F0000E946B2B8F2D7981972F97FF03C09195B4
:101A000081959109A72FA095AA1FAA27AA1FB0E028
:101A10001496AA0FBB1FAC0DBD1DBC018C910E947A
:101A2000AA2AB80117FF03C0719561957109E12FCA
:101A3000E095EE1FEE27EE1FF0E03696EE0FFF1F4B
:101A4000EC0DFD1D80810F90DF91CF911F910F91C3
:101A5000FF90DF90CF900C94AA2AEF92FF920F9301
:101A60001F93CF93DF9300D0CDB7DEB78C01FC017D
:101A7000808591850E940114F801808591850E94DE
:101A80005112A0916603B0916703F8012485358552
:101A9000A20FB31F26E1FC0101900D922A95E1F7F8
:101AA00080916A03882319F081E080933703F8015D
:101AB000808591850E945112FC01858980FD58C066
:101AC000F801808591850E945112FC01858982FD73
:101AD0004FC080E090916A03911108C09091370344
:101AE000992321F081E08093360302C0882351F0CE
:101AF0001A821982BE016F5F7F4FF8018085918540
:101B00000E94241180916A03882369F08091360332
:101B1000882349F010923603F80162857385808529
:101B200091850E94A51481E0F8018687E12CF12CB3
:101B3000F801808591850E9451128E0D9F1DFC0138
:101B40008285833010F4F8011686FFEFEF1AFF0A42
:101B500084E0E816F10461F7C8010E94DC0B0F90E5
:101B60000F90DF91CF911F910F91FF90EF9008950B
:101B700081E0B0CFFC01268521110AC01616170698
:101B80001CF01416150624F440E050E060E070E00C
:101B9000440F551F660F771FFC01808591850C94BB
:101BA000511187E391E09093390380933803909328
:101BB000410380934003909349038093480390939B
:101BC00051038093500308958F929F92AF92BF92DA
:101BD000CF92DF92EF92FF920F931F93CF93DF93F9
:101BE000CDB7DEB72B970FB6F894DEBF0FBECDBFD3
:101BF0008C016A017B01BC01CE0101960E94E004C8
:101C0000CE0101960E94272966E271E0CE0101967D
:101C10000E949428882331F1C8010E942D054B01B0
:101C20005C01C8010E942D05AB01BC018114910427
:101C3000A104B10479F1411551056105710551F116
:101C40008CE190E0488759876A877B870E945329F7
:101C50008C0120E04885682D0E94281F0115110580
:101C600071F41AC085EB90E0F80194838383BE0180
:101C70006F5F7F4FC80105960E9416280BC01C1489
:101C80001D041E041F0444F4B701A601C8010E94EC
:101C9000581F02C000E010E0CE0101960E9491277B
:101CA000C8012B960FB6F894DEBF0FBECDBFDF91F3
:101CB000CF911F910F91FF90EF90DF90CF90BF9049
:101CC000AF909F908F900895CF92DF92EF92FF9206
:101CD0000F931F93CF93DF93EC011B821A8286E14F
:101CE00092E09983888304E613E0F801C080D180F4
:101CF000B6016E5F7F4F71836083F2E6EF2EF3E0F3
:101D0000FF2EF701808191810E94D22DF7019183EE
:101D10008083FC01EC0DFD1D11821082DD82CC82DE
:101D2000F801C080D180B6016E5F7F4F7183608300
:101D30000E94D22DF70191838083FC01EC0DFD1DE3
:101D400011821082DF82CE82DF91CF911F910F919D
:101D5000FF90EF90DF90CF900895EF92FF920F9356
:101D60001F93CF93DF93EC017B018A010E94640EE5
:101D700082E292E099838883F7018081918199873B
:101D80008887F801808191819D878C87F701828106
:101D900093819B878A87F801828193819F878E87B1
:101DA00002E010E061E088850E94322B61E08C85C2
:101DB0000E94322B60E088850E946B2B60E08C854E
:101DC0000E946B2B0150110922960115110551F744
:101DD000DF91CF911F910F91FF90EF9008950F9396
:101DE0001F93CF93DF93CDB7DEB728970FB6F89444
:101DF000DEBF0FBECDBF8B01CB010E942D057E83C0
:101E00006D83C8010E942D0578876F83C8010E94E9
:101E10002D057A836983C8010E942D057C836B831D
:101E200080E190E00E9453298C01AE014F5F5F4F2B
:101E3000BE016B5F7F4F0E94AD0EE4EFF2E0808148
:101E40009181D80113969C938E93129711830083EE
:101E500028960FB6F894DEBF0FBECDBFDF91CF91AD
:101E60001F910F9108950F931F93CF93DF93EC0170
:101E70008B010E94640E198708878EE292E0998395
:101E80008883DF91CF911F910F9108950F931F9336
:101E9000CF93DF93CB0140E855E260E070E00E9411
:101EA000E40D8C018AE090E00E945329EC01B80116
:101EB0000E94330FE4EFF2E0808191819B838A835B
:101EC000D183C083DF91CF911F910F9108950F931C
:101ED0001F93CF93DF93EC018B010E94640E19874F
:101EE00008878CE392E099838883DF91CF911F91DB
:101EF0000F9108950F931F93CF93DF93CB0140E889
:101F000055E260E070E00E94E40DEC0160ED77E0E6
:101F100080E090E00E942C2AE881F9810190F08114
:101F2000E02D6AEACE0109956AE070E080E090E079
:101F30000E942C2A8AE090E00E9453298C01BE0165
:101F40000E94670FE4EFF2E080819181D80113963F
:101F50009C938E93129711830083DF91CF911F91F1
:101F60000F910895CF92DF92EF92FF920F931F93FC
:101F7000CF93DF93CDB7DEB7C254D1090FB6F89433
:101F8000DEBF0FBECDBF8C016B017A010E94640ED3
:101F900088E692E0D80111969C938E931996DC9274
:101FA000CE9218971B96FC92EE921A97FE01BD9660
:101FB00086E1DF011D928A95E9F786E1DE015796F9
:101FC00001900D928A95E1F786E1FE017796DE0198
:101FD000119601900D928A95E1F7E8E6F3E0E08032
:101FE000F180B7016A5E7F4F71836083A6E6CA2ED7
:101FF000A3E0DA2EF601808191810E94D22DD601D4
:102000008D939C93DC01AE0DBF1D86E1FE013196E0
:1020100001900D928A95E1F7F801F586E48681E05A
:102020008687CE5BDF4F0FB6F894DEBF0FBECDBF05
:10203000DF91CF911F910F91FF90EF90DF90CF90A4
:1020400008950F931F93CF93DF93CB0140E052ECA1
:1020500061E070E00E94E40D8C0181E290E00E945A
:102060005329EC01B8010E94D11063ED71E084E9BD
:1020700094E00E94672562E070E0CE010E94A51402
:1020800065E072E084E994E00E9467258FE090E0CB
:102090000E9453298C0142E050E0BE010E94B20F21
:1020A000E4EFF2E080819181D80113969C938E93A6
:1020B000129711830083DF91CF911F910F910895A3
:1020C0000F931F93CF93DF9300E513E0C7E3D1E0B5
:1020D000F801D183C08383E991E090935303809307
:1020E000520387E991E09093550380935403C8010C
:1020F0000E9438068AE492E0F8019183808308E424
:1021000013E0F801D183C08385E891E090934B03FD
:1021100080934A0381E991E090934D0380934C03AF
:10212000C8010E94380684E592E0F801918380831B
:1021300000E413E0F801D183C08387E791E0909336
:1021400043038093420383E891E090934503809397
:102150004403C8010E9438068EE592E0F80191839D
:10216000808308E313E0F801D183C0838DE691E01A
:1021700090933B0380933A0385E791E090933D036E
:1021800080933C03C8010E94380684E792E0F8017E
:1021900091838083DF91CF911F910F9108950C94CB
:1021A000D10DFC0171836083128213821482158227
:1021B000178216821086128611863B9686E1DF0111
:1021C0001D928A95E9F70895CF93DF931F92CDB7BB
:1021D000DEB720E82983DC018D919C91DC01ED9133
:1021E000FC910280F381E02D41E050E0BE016F5F81
:1021F0007F4F099564E670E080E090E00E942C2A11
:102200000F90DF91CF910895CF93DF931F92CDB7B9
:10221000DEB727E02983DC018D919C91DC01ED91F3
:10222000FC910280F381E02D41E050E0BE016F5F40
:102230007F4F099568E873E180E090E00E942C2AC6
:102240000F90DF91CF910895CF93DF931F92CDB779
:10225000DEB725E82983DB012D913C912130310542
:1022600011F423E804C02230310511F424E8298355
:10227000FC0180819181DC01ED91FC910280F38170
:10228000E02D41E050E0BE016F5F7F4F099564E6AD
:1022900070E080E090E00E942C2A0F90DF91CF91B7
:1022A00008950F931F93CF93DF9300D000D01F9218
:1022B000CDB7DEB78C017B836A835D834C8381E974
:1022C0008983D8018D919C91DC01ED91FC91028074
:1022D000F381E02D41E050E0BE016F5F7F4F099533
:1022E000F80180819181DC01ED91FC910280F38104
:1022F000E02D41E050E0BE016B5F7F4F0995F80192
:1023000080819181DC01ED91FC910280F381E02DCF
:1023100041E050E0BE016C5F7F4F0995F80180817C
:102320009181DC01ED91FC910280F381E02D41E08F
:1023300050E0BE016D5F7F4F0995F801808191816A
:10234000DC01ED91FC910280F381E02D41E050E051
:10235000BE016E5F7F4F09950F900F900F900F9009
:102360000F90DF91CF911F910F9108950F931F93BD
:10237000CF93DF931F92CDB7DEB78C018BE88983B3
:10238000D8018D919C91DC01ED91FC910280F3814B
:10239000E02D41E050E0BE016F5F7F4F0995F801ED
:1023A00081919191BF01DC01ED91FC910280F3815B
:1023B000E02D41E050E00995F80180819181DC0138
:1023C000ED91FC91B8016D5F7F4F0280F381E02DAC
:1023D00041E050E00995F80180819181DC01ED91A7
:1023E000FC91B8016C5F7F4F0280F381E02D41E0EA
:1023F00050E009950F90DF91CF911F910F910895B3
:102400000F931F93CF93DF9300D0CDB7DEB78C012E
:10241000FC01A081B181662371F184E98A8383E1A3
:102420008983ED91FC9111970280F381E02D41E0C9
:1024300050E0BE016E5F7F4FCD010995D8018D91AF
:102440009C91DC01ED91FC910280F381E02D41E053
:1024500050E0BE016F5F7F4F0995F8018081918147
:10246000DC01ED91FC910280F381E02D43E150E02D
:102470006AE772E00EC086E98983ED91FC911197BD
:102480000280F381E02D41E050E0BE016F5F7F4F9D
:10249000CD0109950F900F90DF91CF911F910F9172
:1024A00008950B9608958038910570F08058910931
:1024B000969587959695879580589F4F8F3F910564
:1024C00019F010F08FEF90E008952F923F924F9205
:1024D0005F926F927F928F929F92AF92BF92CF92B4
:1024E000DF92EF92FF920F931F93CF93DF93CDB7BD
:1024F000DEB72C970FB6F894DEBF0FBECDBF8C01B0
:10250000DC0115968C91282F30E03A83298360E016
:1025100070E029813A81D8016217730708F012C16F
:1025200016962D913C911797AB014F5F5F4FF901C4
:10253000E60FF71F8081873031F4F901E40FF51FB2
:1025400020812987FCC0853131F4F901E40FF51FA2
:1025500030813A87F4C0883131F4F901E40FF51F76
:1025600020812887ECC0893151F4F901E40FF51F6F
:102570002080312C322C22248181282AD6C08B3213
:1025800051F4F901E40FF51F808190E0D82ECC249E
:102590008181C82ACAC08C3251F4F901E40FF51FB9
:1025A000808190E0F82EEE248181E82ABEC08C3133
:1025B00081F4F901E40FF51F808190E0982F8827BE
:1025C0002181822B55E0969587955A95E1F7882EC3
:1025D000ACC08D3181F4F901E40FF51F808190E0EA
:1025E000982F88272181822B35E0969587953A95FB
:1025F000E1F7982E9AC08E3181F4F901E40FF51FAE
:10260000808190E0982F88272181822BB5E09695D4
:102610008795BA95E1F7782E88C08F3181F4F9015A
:10262000E40FF51F808190E0982F88272181822B6D
:1026300055E0969587955A95E1F7682E76C08332D6
:1026400029F4F901E40FF51F408079C08D3231F48F
:10265000F901E40FF51F30813B8371C08E3279F4AC
:10266000F901E40FF51F808190E0982F88272181E0
:10267000822B6B877C870E945312A82E54C08F3206
:1026800079F4F901E40FF51F808190E0982F8827F5
:102690002181822B6B877C870E945312B82E43C006
:1026A000803379F4F901E40FF51F808190E0982FD1
:1026B00088272181822B6B877C870E9453128F830E
:1026C00032C0813379F4F901E40FF51F808190E085
:1026D000982F88272181822B6B877C870E94531239
:1026E0008E8321C0823379F4F901E40FF51F8081D4
:1026F00090E0982F88272181822B6B877C870E940E
:1027000053128D8310C0833399F4F901E40FF51F40
:10271000808190E0982F88272181822B6B877C878E
:102720000E9453128C836B857C856D5F7F4FF1CE49
:10273000823109F04CC0F901E40FF51F50806E5F43
:102740007F4FE7CE1B964C921B9729851C962C93A6
:102750001C973A851D963C931D9728851E962C93B1
:102760001E9750963C922E921F975296DC92CE92D4
:1027700051975496FC92EE92539755968C9255979A
:1027800056969C92569757967C92579758966C926D
:1027900058975996AC9259975A96BC925A973F813E
:1027A0005B963C935B972E815C962C935C973D8166
:1027B0005D963C935D972C815E962C935E973B8152
:1027C0005F963C935F9790965C9281E001C080E0B9
:1027D0002C960FB6F894DEBF0FBECDBFDF91CF9120
:1027E0001F910F91FF90EF90DF90CF90BF90AF902F
:1027F0009F908F907F906F905F904F903F902F9021
:102800000895CF92DF92EF92FF920F931F93CF9391
:10281000DF931F92CDB7DEB78C0193E0E92EF12C48
:1028200022E0C22ED12CD8018D919C91DC01ED913A
:10283000FC910480F581E02D0995181619060CF01D
:102840007AC041E050E0BE016F5F7F4FD8018D91AB
:102850009C910E9496268130910509F06CC0F80188
:10286000218532852115310539F429812331D9F6A5
:10287000F80192878187D7CF2130310569F48981AA
:10288000D80115968C9390E00E94AB2CF8019783A9
:102890008683D286C186C7CF22303105F9F4D801AC
:1028A0001696ED91FC91179718968C91189791E0D8
:1028B000980F18969C9318979981E80FF11D9083B3
:1028C00018969C91189715968C911597981708F45F
:1028D000AACF1A96FC92EE921997A5CF2330310514
:1028E00009F0A1CFF801258130E0C9014396498163
:1028F000840F911D46815781FA01BF01641B750B3E
:102900006217730720F46191860F911DF6CF811134
:1029100003C0C8010E946512D80115961C92159734
:1029200016968D919C9117970E94432DF801108661
:102930001286118678CF0F90DF91CF911F910F9162
:10294000FF90EF90DF90CF9008958F929F92AF927B
:10295000BF92CF92DF92EF92FF920F931F93CF938C
:10296000DF9300D0CDB7DEB78C01962E61E0892DC4
:102970000E94322B61E0892D0E946B2B64E670E08F
:1029800080E090E00E942C2A60E0892D0E946B2B51
:102990004AE0E42EF12C52E0A52EB12C88248A9432
:1029A000F801138664E670E080E090E00E942C2A33
:1029B000C8010E94E410BA82A982BE016F5F7F4FF6
:1029C000C8010E942411F80183828482C8010E94F8
:1029D000B61161E0C8010E94001234E1C32ED12C6F
:1029E000C8010E940114F8018385811115C064E6B5
:1029F00070E080E090E00E942C2AF1E0CF1AD1082C
:102A0000C114D10469F7C8010E94041181E0E81AD9
:102A1000F108E114F10421F661E0892D0E946B2B8D
:102A20000F900F90DF91CF911F910F91FF90EF903A
:102A3000DF90CF90BF90AF909F908F900895CF93ED
:102A4000DF93EC0188819981DC01ED91FC91068096
:102A5000F781E02D0995181619061CF00E94230332
:102A6000F1CFDF91CF910895FC01A081B181FB01ED
:102A70008D919491891305C031968111F9CF81E030
:102A8000089580E00895CF92DF92EF92FF920F9326
:102A90001F93CF93DF93CDB7DEB727970FB6F89488
:102AA000DEBF0FBECDBF8C01BC01CE0101960E94DE
:102AB000E004CE0101960E943B296B017C01611567
:102AC000710581059105B1F460E070E0CE010196D9
:102AD0000E94B328FC018081803361F082EC91E098
:102AE000F80194838383BE016F5F7F4FC801059611
:102AF0000E941628CE0101960E949127C701B601B7
:102B000027960FB6F894DEBF0FBECDBFDF91CF91F1
:102B10001F910F91FF90EF90DF90CF900895E0917B
:102B20005803F091590380E090E0309729F0019626
:102B30000680F781E02DF9CF0895CF93DF93C09100
:102B40005803D09159032097B1F06A817B8184E9C1
:102B500094E00E94CC2468E972E084E994E00E9449
:102B600026256C817D8184E994E00E9443250E80B6
:102B7000DF81C02DE8CFDF91CF9108950F931F9390
:102B8000CF93DF938C01C0915803D09159032097C4
:102B900059F06A817B81C8010E943415811107C0F8
:102BA0000E80DF81C02DF3CF80E090E001C0CE0128
:102BB000DF91CF911F910F910895EF92FF920F93A4
:102BC0001F93CF93DF93CDB7DEB727970FB6F89457
:102BD000DEBF0FBECDBF8C01E62EFC01F280F110EE
:102BE00004C00E941F15F82E02C0FC011282FE14C0
:102BF00031F169E972E0CE0101960E94FF276E2D46
:102C0000CE0101960E9481286DE872E0CE01019606
:102C10000E9471286F2DCE0101960E9481288CE6BA
:102C200093E0F80194838383BE016F5F7F4FC801F7
:102C300005960E941628CE0101960E94912727969C
:102C40000FB6F894DEBF0FBECDBFDF91CF911F91BD
:102C50000F91FF90EF900895EF92FF920F931F93C3
:102C6000CF93DF938C01FC01E080F180E701BE018E
:102C70006E197F09F8018281938168177907E8F45A
:102C80004AE050E084E994E00E94622667E972E03D
:102C900084E994E00E942625499150E060E070E0CC
:102CA0002AE030E084E994E00E94D22568E972E0ED
:102CB00084E994E00E942625DACF84E994E0DF914C
:102CC000CF911F910F91FF90EF900C942F25AF9211
:102CD000BF92CF92DF92EF92FF920F931F93CF9309
:102CE000DF93CDB7DEB765970FB6F894DEBF0FBEA2
:102CF000CDBF84E994E09A8389831B821D821C8264
:102D000069E972E0CE0106960E94FF27BE016F5F5F
:102D10007F4FCE010D960E94E004CE010D960E94D9
:102D2000BE157C01009709F445C068E2CE0101960A
:102D30000E94DD158C819D81892B09F040C1D7014E
:102D4000ED91FC910480F581E02DBE016F5F7F4F16
:102D5000C70109958C819D81892B09F030C169E2F9
:102D6000CE0101960E94DD158C819D81892B09F091
:102D700026C16BE3CE0101960E94DD158C819D81F9
:102D8000892B09F01CC16CE573E084E994E00E9492
:102D9000CC24BE01635F7F4F84E994E00E945525F7
:102DA0006AE473E0CE010D960E943415882309F47D
:102DB00006C14DC161E473E0CE010D960E94341549
:102DC000882319F06CE273E0C0C063E273E0CE01C7
:102DD0000D960E943415882349F06FE173E084E971
:102DE00094E00E94CC2486E693E010C065E173E095
:102DF000CE010D960E943415882359F061E173E0ED
:102E000084E994E00E94CC2482E693E00E942C1690
:102E1000D6C06DE073E0CE010D960E943415882374
:102E2000A1F1CE0101960E9443156B017C01CE01F8
:102E300001960E944315162F072F8C819D81892BA7
:102E400009F0BDC0E0916203F0916303EC0DFD1D3C
:102E5000108367EF72E084E994E00E94CC244AE09A
:102E600050E0B60184E994E00E941C266CEE72E00A
:102E700084E994E00E94CC244AE050E0612F702F56
:102E800084E994E00E9424269AC066EE72E0CE01A6
:102E90000D960E9434158823D9F1CE0101960E9427
:102EA00043156B017C01CE0101960E9443158B01F5
:102EB0005C012C813D81232B09F081C0E0916203EC
:102EC000F0916303EC0DFD1D6083E0916203F091CE
:102ED0006303EC0DFD1D118369EC72E084E994E05D
:102EE0000E94CC244AE050E0B60184E994E00E94BC
:102EF0001C266EEB72E084E994E00E94CC242AE068
:102F000030E0A801B50184E994E00E943C2657C056
:102F100069EB72E0CE010D960E9434158823D1F042
:102F2000BE016C5E7F4F8091590590915A050097C4
:102F300011F48DE595E0681B790B4AE050E084E9D7
:102F400094E00E941C266DEA72E084E994E00E94FD
:102F5000432535C068EA72E0CE010D960E94341513
:102F6000882361F00E948F154AE050E0BC0184E99B
:102F700094E00E9424260E949D1521C060E070E02C
:102F8000CE010D960E94B328FC0180818F3309F495
:102F900062C060E070E0CE010D960E94B328DC01B3
:102FA0008C91883609F457C06EEF71E0CE010D9612
:102FB0000E943415882379F1E0E0F0E009958C81D6
:102FC0009D81892B09F445C062EE71E084E994E0AB
:102FD0000E94CC246C817D8184E994E00E94CC2401
:102FE0006FED71E084E994E00E94CC24BE016A5F39
:102FF0007F4F84E994E00E94F1246AEC71E084E957
:1030000094E00E94CC24BE01635F7F4F84E994E08A
:103010000E9455251EC068EF71E0CE010D960E94FA
:103020003415882319F160916403709165034AE0B7
:1030300050E084E994E00E94242660916803709136
:1030400069034AE050E084E994E00E94242610E0FD
:1030500019C011E017C060E672E084E994E00E94B4
:1030600043250E949D1565E072E06FCF8CEE91E0E4
:103070009D838C83BE01635F7F4FCE0106960E94C5
:1030800016289DCFCE010D960E949127CE0106965F
:103090000E949127812F65960FB6F894DEBF0FBE70
:1030A000CDBFDF91CF911F910F91FF90EF90DF90F7
:1030B000CF90BF90AF9008950E94E60240E051EE9D
:1030C00060E070E084E994E00E946E236CE971E0B6
:1030D00084E994E00E9443250E9467168111FCCF89
:1030E000089527E331E0FC0131832083089527E32D
:1030F00031E0FC01318320830C945529CF93DF9379
:1031000087E391E090935B0380935A03C2E6D3E098
:10311000888199810E94432D19821882109265033B
:1031200010926403C6E6D3E0888199810E94432D02
:10313000198218821092690310926803DF91CF916F
:103140000895CF93DF93EC018AEA92E09983888314
:103150008FA598A9009721F00E94432D18AA1FA6B9
:1031600080E191E099838883DF91CF910895CF9397
:10317000DF93EC010E94A118CE01DF91CF910C9456
:10318000552984E994E00E942F254AE050E06FEF32
:103190007FEF84E994E00E9424268EE390E00E9471
:1031A0005329FC018AEA92E09183808384E994E0C8
:1031B0009583848397838683118E138E128E158E4A
:1031C000148E178E168E12AA11AA10AA17A613AA69
:1031D00015AA14AA17AA16AA11AE10AE10926A0365
:1031E00013AE12AE15AE14AEA4EFB2E08D919C9169
:1031F000119793838283ED93FC930895CF92DF928E
:10320000EF92FF920F931F93CF93DF931F92CDB74F
:10321000DEB78C017A016901F90120E030E0CF01CD
:103220008C199D098E159F0524F48191280F311D5D
:10323000F6CFC701860F971F820F931F44E0359585
:1032400027954A95E1F7820F931F8F70992720E108
:10325000629F800D112489839FE0E916F10434F503
:1032600090EA9E0DD80112969C93F60120E030E082
:103270002E153F054CF42F5F3F4F9191D801A20FBF
:10328000B31F12969C93F4CFF801EE0DFF1D8383BC
:10329000F80181919191BF01DC01ED91FC91A701B1
:1032A0004E5F5F4F0280F381E02D2BC08FEAF80163
:1032B0008283E382D8018D919D91BD01DC01ED9166
:1032C000FC910280F381E02D42E050E00995F80185
:1032D00080819181DC01ED91FC910280F381E02DF0
:1032E000A701B6010995F80180819181DC01ED917A
:1032F000FC910280F381E02D41E050E0BE016F5F60
:103300007F4F09950F90DF91CF911F910F91FF9003
:10331000EF90DF90CF900895DF92EF92FF920F939E
:103320001F93CF93DF93EC0188819981DC01ED91AC
:10333000FC910480F581E02D0995892B09F49DC04D
:10334000F2E0EF2EA3E0FA2E8E01045E1F4FDD2483
:10335000D3948A819B81DC01ED91FC910480F581FD
:10336000E02D0995892B09F4ACC08A819B81DC0191
:10337000ED91FC910680F781E02D09958F3FBFEF1D
:103380009B0709F49EC01FA62D89213001F130F062
:10339000223079F1233009F446C06DC09C01207FB2
:1033A0003327203A3105A9F6198E188E1B8E1A8EF6
:1033B0008F7099279F8B8E8B8F30910511F4DD8A4A
:1033C000C8CF892B71F1ED8A1EA70DA7C2CF9F8BA5
:1033D0008E8BBC018BA59CA50E94D22D9CA78BA790
:1033E0009EA78DA7ED8A8E899F89892B09F0B1CF81
:1033F00018C02A8D3B8D280F391F3B8F2A8FEDA5D2
:10340000FEA5288D398DE20FF31F8083888D998D5D
:103410000196998F888F2E893F89821793070CF424
:1034200098CFFD8A96CF1D8A9C0154E0359527954B
:103430005A95E1F739AB28AB4E895F896A8D7B8D50
:103440008F709927240F351F260F371FE4E07595DD
:103450006795EA95E1F7260F371F2F7033278217FC
:10346000930779F581E08FA75BAB4AAB8DA59EA54D
:103470009DAB8CAB26C01D8A6CCF8091FC029091D5
:10348000FD0228AD39ADAC01421B530B9A01293E18
:103490003340A8F099AF88AF1D8A1F8A1E8A198E03
:1034A000188E1B8E1A8E2AE932E044E050E060E06C
:1034B00070E0CE0102960E94FE1810926A0380E02E
:1034C0000EC08FA58823C9F28091FC029091FD0265
:1034D00099AF88AF9FAB8EAB81E080936A03DF9199
:1034E000CF911F910F91FF90EF90DF9008950F9370
:1034F0001F93CF93DF93EC0104960E948C198823CD
:1035000009F443C08CA99DA98C30910539F54EA9C9
:103510005FA980916403909165038E010A5F1F4F3C
:103520004817590739F02FE932E044E050E06EE0E7
:1035300070E012C068AD79AD809162039091630331
:103540000E94CB2E2091660330916703409168035F
:10355000509169036CE070E0C80111C00B9739F419
:10356000E0E0F0E0DF91CF911F910F91099424EA00
:1035700032E041E050E06EE070E0CE010696DF916F
:10358000CF911F910F910C94FE18DF91CF911F9155
:103590000F910895109267031092660310926903C9
:1035A00010926803109263031092620310926503F5
:1035B0001092640386E793E090935D0380935C032D
:1035C00088E893E090935F0380935E0380915803B3
:1035D000909159039093610380936003EAE5F3E0CF
:1035E000F0935903E093580384EB92E09183808336
:1035F00008950C947E181F920F920FB60F9211240B
:103600002F933F934F935F936F937F938F939F93EA
:10361000AF93BF93EF93FF9380916C0387FF05C037
:1036200010928500109284001AC020916C033327F9
:1036300027FD309580916B0390E0281739077CF4C3
:1036400080916C03992787FD9095FC01EE0FFF1F79
:10365000E80FF91FE359FC4F808186FD15C080916A
:103660006C038F5F80936C0320916C03332727FDDD
:10367000309580916B0390E028173907BCF4809156
:103680006C038C305CF112C080916C03992787FD2C
:103690009095FC01EE0FFF1FE80FF91FE359FC4F57
:1036A000808160E08F730E946B2BD9CF8091840062
:1036B00090918500049680349C4918F480E49CE93C
:1036C00005C08091840090918500049690938900B4
:1036D000809388008FEF80936C0338C080918400C2
:1036E0009091850020916C03332727FD3095F901D7
:1036F000EE0FFF1FE20FF31FE359FC4F21813281D0
:10370000820F931F909389008093880080916C03AF
:10371000992787FD9095FC01EE0FFF1FE80FF91F19
:10372000E359FC4F808186FF11C080916C0399277B
:1037300087FD9095FC01EE0FFF1FE80FF91FE3597D
:10374000FC4F808161E08F730E946B2BFF91EF91A2
:10375000BF91AF919F918F917F916F915F914F91A9
:103760003F912F910F900FBE0F901F9018952091B1
:103770006B032C30A0F431E0320F30936B03FC016B
:103780002083822F90E0FC01EE0FFF1FE80FF91F4E
:10379000E359FC4F88EB9BE09283818308952FEFE0
:1037A000FC0120830895DF92EF92FF920F931F9305
:1037B000CF93DF93EC01D62E7A01890188818C307A
:1037C00008F066C061E08D2D0E94322B8881A82F01
:1037D000B0E0FD01EE0FFF1FEA0FFB1FE359FC4FA6
:1037E0002D2D2F739081907C922B908360E272E05C
:1037F0006E197F0977FF02C06D5F7F4F75956795E2
:1038000075956795698340E659E0401B510B57FF5A
:1038100002C04D5F5F4F55954795559547954A8333
:103820006CE00E94BC2B9CE0899FB001112420E039
:1038300030E0A901460F571FFA01EE0FFF1FE40FFA
:10384000F51FE359FC4F908196FD16C02F5F3F4F47
:103850002C30310571F781110FC01092800082E089
:10386000809381001092850010928400B19A80911B
:103870006F00826080936F00888190E0FC01EE0F02
:10388000FF1FE80FF91FE359FC4F8081806480839C
:103890008881DF91CF911F910F91FF90EF90DF9082
:1038A000089520E639E040E252E00C94D31BFC017D
:1038B00020812C3008F03DC0318188E890E0831BE6
:1038C000910937FD9395880F991F880F991F6817E5
:1038D00079077CF0328188E592E0831B910937FDFE
:1038E0009395880F991F880F991F681779070CF413
:1038F000CB0102974FB7F89430E0F901EE0FFF1FAC
:10390000E20FF31FE359FC4FAA2797FDA095BA2FAA
:1039100064E0880F991FAA1FBB1F6A95D1F773E057
:10392000B695A795979587957A95D1F792838183D8
:103930004FBF08954F925F926F927F92AF92BF9266
:10394000CF92DF92EF92FF920F931F93CF93DF936B
:10395000EC01603282E078070CF040C077FD06C0D1
:10396000653B71052CF064EB70E002C060E070E034
:10397000898128E830E0281B310987FD3395220F23
:10398000331F220F331F5901CC24B7FCC094DC2C09
:10399000882777FD8095982F2A8148E552E0421BC1
:1039A000510927FD5395440F551F440F551F2A01F8
:1039B000662457FC6094762C7F926F925F924F92B0
:1039C00014EBE12EF12C00E010E020E030E0A90142
:1039D0000E944A270F900F900F900F90CE01DF9119
:1039E000CF911F910F91FF90EF90DF90CF90BF90FC
:1039F000AF907F906F905F904F900C94571C2091E8
:103A0000D3033091D40328173907B9F49091910367
:103A100080919203981789F0E0919103F0E0ED56C0
:103A2000FC4F80812091910330E02F5F3F4F2F7337
:103A300033272093910390E008958FEF9FEF08952F
:103A40002091D3033091D4032817390781F4909142
:103A5000910380919203981751F0E0919103F0E067
:103A6000ED56FC4F8081992787FD909508958FEF43
:103A70009FEF08952091D3033091D403281739077D
:103A800071F4809192032091910390E0805C9F4FAC
:103A9000821B910960E470E00E94C82B089580E0C9
:103AA00090E008952091D3033091D403281739076B
:103AB00039F48FB7F89410929203109291038FBF4C
:103AC0000895DC015196ED91FC915297208150961A
:103AD0008C91809582238083089520E001972FEFB9
:103AE0008F3F9207D9F708952091D3033091D403E3
:103AF0002817390789F0FC01238D2E7F238F2FB7DC
:103B0000F89410929203109291039093D4038093AF
:103B1000D3032FBF81E0089580E00895EF92FF92D4
:103B20000F931F93CF93DF93EC018B8DEE85FF8571
:103B30009D8581FF04C08081892329F447C080814D
:103B4000892309F043C08B899C890E946D1D08E080
:103B500010E0EE24E394F12C8D899E890E946D1D66
:103B6000EE85FF8580819D85892311F0FE2803C0A5
:103B70008E2D8095F822EE0C0150110901151105CA
:103B800059F78F89988D0E946D1D8B8D81FDF09462
:103B9000809192032091910390E001968F73992771
:103BA00030E08217930779F0E0919203F0E0ED5650
:103BB000FC4FF0828091920390E001968F739927D9
:103BC0008093920303C08B8D81608B8FDF91CF91A7
:103BD0001F910F91FF90EF900895611102C00C9416
:103BE000611DDC015196ED91FC9152972081509618
:103BF0008C91282B20830895DF92EF92FF920F93F0
:103C00001F93CF93DF93EC01E62E898D9A8D892B3C
:103C100039F481E090E09B838A8380E090E04DC09E
:103C2000DFB6F8946B8D66956170CE010E94ED1D34
:103C3000898D9A8D05960E946D1D8B8D08E010E090
:103C4000FF24F39481FF19C08F2D8E2121F0CE0126
:103C50000E94611D04C061E0CE010E94ED1D898DAE
:103C60009A8D0E946D1DFF0C01501109011511055F
:103C700059F7CE010E94611D19C08F2D8E2129F0A8
:103C800061E0CE010E94ED1D03C0CE010E94611DC6
:103C9000898D9A8D0E946D1DFF0C0150110901152F
:103CA000110559F761E0CE010E94ED1DDFBE898D3F
:103CB0009A8D0E946D1D81E090E0DF91CF911F9160
:103CC0000F91FF90EF90DF9008958091D303909132
:103CD000D403009711F00C948E1D08951F920F923B
:103CE0000FB60F9211242F933F934F935F936F93CF
:103CF0007F938F939F93AF93BF93EF93FF930E9414
:103D0000651EFF91EF91BF91AF919F918F917F9130
:103D10006F915F914F913F912F910F900FBE0F9038
:103D20001F9018951F920F920FB60F9211242F9388
:103D30003F934F935F936F937F938F939F93AF9333
:103D4000BF93EF93FF930E94651EFF91EF91BF9188
:103D5000AF919F918F917F916F915F914F913F9123
:103D60002F910F900FBE0F901F9018951F920F92DA
:103D70000FB60F9211242F933F934F935F936F933E
:103D80007F938F939F93AF93BF93EF93FF930E9483
:103D9000651EFF91EF91BF91AF919F918F917F91A0
:103DA0006F915F914F913F912F910F900FBE0F90A8
:103DB0001F9018951F93CF93DF93EC01162F61E0AE
:103DC000812F0E94322B61E0812F0E946B2B812F6B
:103DD00090E0FC01E65CFB4FE491E88BFC01E25BC8
:103DE000FB4FE491F0E0EE0FFF1FE459FB4F85918C
:103DF00094919A8B898BDF91CF911F9108951F9396
:103E0000CF93DF93EC01162F60E0812F0E94322BBD
:103E10008B8D81FD04C061E0812F0E946B2B1C877C
:103E2000812F90E0FC01E65CFB4FE491ED87FC0103
:103E3000E25BFB4FE491F0E0EE0FFF1FEE59FB4F0A
:103E4000859194919F878E87DF91CF911F910895DF
:103E5000FF920F931F93CF93DF93EC01F62E522F17
:103E60001B821A8208EE13E020E030E00C831D83F1
:103E70002E833F838EEB92E0998388831C8A1B8A72
:103E80001E8A1D8A188E1F8A1A8E198E8B8D8E7F20
:103E900050FB81F98B8F642FCE010E94DA1E6F2DAB
:103EA000CE01DF91CF911F910F91FF900C94FF1ED7
:103EB0000F931F93CF93DF93EC011A8E198E188EF8
:103EC0001F8A1E8A1D8AA9E8B3E080E090E0FD0108
:103ED0000591159125913491041715072607370789
:103EE00019F54CE0489F9001499F300D1124F901CC
:103EF000E357FC4F859194919C8B8B8BF901E15793
:103F0000FC4F859194919E8B8D8BF901EF56FC4F60
:103F100085919491988F8F8B2D563C4FF901859107
:103F200094919A8F898F08C001961C968D309105C7
:103F300009F0CDCF1C8A1B8A8F89988D892B09F4B3
:103F400043C08C858631E0F520916800883050F0C0
:103F500091E08E3008F490E081E001C0880F9A95DE
:103F6000EAF701C084E0822B809368002C8528301A
:103F700038F02E3040F0263148F0E0E0F0E008C0A4
:103F8000EDE6F0E005C0EBE6F0E002C0ECE6F0E0C4
:103F90003081283030F481E001C0880F2A95EAF79B
:103FA0000DC0822F90E02E3010F4089701C00E97BC
:103FB00091E001C0990F8A95EAF7892F832B8083BE
:103FC000898D9A8D0E946D1DCE01DF91CF911F9139
:103FD0000F910C94741D8091040490E020910504CD
:103FE000821B9109089520910504809104042817EB
:103FF00050F4E22FF0E0EA5FFB4F808190E02F5F0A
:104000002093050408958FEF9FEF0895E091050434
:1040100080910404E81730F4F0E0EA5FFB4F808100
:1040200090E008958FEF9FEF08950895CF92DF926B
:10403000EF92FF920F931F93CF93DF937C01CB01FD
:104040008A012091E103222389F0EB016B01C40E68
:10405000D51ECC15DD0569F06991D701ED91FC9174
:104060000190F081E02DC7010995F3CF642F0E94E4
:104070000221C801DF91CF911F910F91FF90EF9026
:10408000DF90CF900895CF93DF931F92CDB7DEB727
:1040900069832091E1032223D1F02091E2032032B1
:1040A00040F021E030E0FC013383228380E090E0A7
:1040B00015C08091E303E82FF0E0EC51FC4F9981AB
:1040C00090838F5F8093E3038093E20305C061E0F8
:1040D000CE0101960E94022181E090E00F90DF91D5
:1040E000CF910895FC011382128248EE53E060E004
:1040F00070E044835583668377838EEC92E09183EE
:104100008083089510920504109204041092E30332
:104110001092E2030C94A020862F413208F040E276
:1041200066E074E00E94BE201092050480930404AF
:10413000089521E00C948C2085ED93E00C9472207E
:104140001092930481E0809391041092900461E0B6
:1041500082E10E946B2B61E083E10E946B2BE9EB13
:10416000F0E080818E7F808380818D7F808388E4F2
:104170008093B80085E48093BC000895413208F034
:104180003FC0909193049111FCCF91E090939304E0
:10419000209391042FEF2093260410926B04240F98
:1041A00020936A049093920490919204880F892B33
:1041B0008093920480919004813041F41092900495
:1041C000809192048093BB0085EC01C085EE8093C2
:1041D000BC00809193048130E1F380916B048417DB
:1041E00010F440916B042CE634E0FB01D9018A2FD6
:1041F000821B841718F48D918193F9CF842F089531
:1042000080E00895613298F420919304243089F479
:1042100060934804FC018AE494E0DC012A2F281B07
:10422000261718F421912D93F9CF80E0089581E0AD
:10423000089582E0089585ED8093BC008091BC00D4
:1042400084FDFCCF10929304089585EC8093BC000C
:104250001092930408951F920F920FB60F9211249B
:104260002F933F934F935F936F937F938F939F937E
:10427000AF93BF93EF93FF938091B900887F80360F
:1042800009F49CC068F5883209F45BC090F4803171
:1042900009F454C038F4882309F4F5C0883009F4CF
:1042A0004DC0F5C0883109F44CC0803209F45DC0BE
:1042B000EEC0803409F468C048F4803309F455C076
:1042C000883309F0E4C080932604A8C0803509F43F
:1042D0004FC0883509F45DC0883409F0D8C0D5C016
:1042E000883909F4C6C0A8F4883709F467C038F4DF
:1042F000883609F463C0803709F460C0C8C08838C4
:1043000009F4B7C0803909F45FC0803809F0BFC034
:104310005BC0803B09F485C038F4803A09F466C07C
:10432000883A09F47EC0B3C0803C09F4A6C0883C3A
:1043300009F4A3C0883B09F489C0A9C08091920404
:1043400010C090916B0480916A04981770F5E09109
:104350006B0481E08E0F80936B04F0E0E459FB4F17
:1043600080818093BB0085EC85C0809326048DC03E
:10437000E0916B0481E08E0F80936B048091BB0011
:10438000F0E0E459FB4F808390916B0480916A04C4
:104390006DC0E0916B0481E08E0F80936B0480917F
:1043A000BB00F0E0E459FB4F8083809191048111C0
:1043B0006CC081E08093900484EA60C083E08093C5
:1043C000930410922704CFCF80912704803208F005
:1043D00050C0E091270481E08E0F809327048091E4
:1043E000BB00F0E0E85DFB4F8083BDCF80912704E8
:1043F000803230F4E0912704F0E0E85DFB4F10825A
:104400000E941B216091270470E0E0918C04F091E0
:104410008D0488E294E00995109227040E942521DA
:1044200036C084E0809393041092490410924804AB
:10443000E0918E04F0918F040995809148048111D8
:1044400005C081E08093480410924A04E091490439
:1044500081E08E0F80934904F0E0E65BFB4F8081A2
:104460008093BB009091490480914804981708F408
:104470007ACF85E88093BC000AC085EC8093BC00AD
:104480001092930404C0109226040E941B21FF91F5
:10449000EF91BF91AF919F918F917F916F915F91BC
:1044A0004F913F912F910F900FBE0F901F90189535
:1044B000FC0124853585F901E05CFF4F8081918105
:1044C000F901EE5BFF4F20813181821B930B8F73CB
:1044D00099270895FC0184859585FC01E05CFF4FD8
:1044E00040815181FC01EE5BFF4F208131814217F9
:1044F000530741F00190F081E02DE80FF91F808112
:1045000090E008958FEF9FEF0895FC0184859585D5
:10451000FC01E05CFF4F40815181FC01EE5BFF4FED
:10452000208131814217530779F0A081B181A80F12
:10453000B91F8C91208131812F5F3F4F2F7333271B
:104540003183208390E008958FEF9FEF0895FC0161
:1045500081A1882329F0A489B5898C9186FFFBCF9E
:1045600011A20895CF93DF93FC0126853785D901E9
:10457000A05CBF4F8D919C91119701968F739927E5
:10458000E901CE5BDF4F4881598184179507D9F344
:104590000D90BC91A02DA20FB31F6C93A685B7857B
:1045A000A05CBF4F11969C938E93A689B7892C91DE
:1045B00081E090E0078C02C0880F991F0A94E2F70F
:1045C000282B2C9381E081A30488F589E02D80813C
:1045D0008064808381E090E0DF91CF910895089519
:1045E0001F920F920FB60F9211242F933F934F9368
:1045F0008F939F93EF93FF938091C00082FD1CC027
:104600004091C60080913A0590913B0501968F73C9
:10461000992720913C0530913D058217930771F051
:10462000E0913A05F0913B05E650FB4F40839093B3
:104630003B0580933A0502C08091C600FF91EF913F
:104640009F918F914F913F912F910F900FBE0F909F
:104650001F90189584E994E00E945822892B11F04C
:104660000C94EF2208951F920F920FB60F9211240F
:104670002F933F938F939F93EF93FF932091F60493
:104680003091F7048091F8049091F90428173907C4
:1046900031F48091C1008F7D8093C10014C0E091FE
:1046A000F804F091F904EA54FB4F20818091F8045A
:1046B0009091F90401968F7399279093F904809350
:1046C000F8042093C600FF91EF919F918F913F9145
:1046D0002F910F900FBE0F901F901895CF92DF92E1
:1046E000EF92FF92CF93DF93EC016A017B014115BA
:1046F00081EE580761057105F9F0EC89FD8981E0CB
:1047000090E008A002C0880F991F0A94E2F7808306
:1047100060E079E08DE390E0A70196010E94DC2B38
:1047200021503109410951095695479537952795EB
:10473000211580E1380798F0EC89FD89108260E846
:1047400074E88EE190E0A70196010E94DC2B2150D5
:104750003109410951095695479537952795E889BB
:10476000F9893083EA89FB89208319A2EE89FF89C0
:10477000408181E090E09C010C8C02C0220F331F2D
:104780000A94E2F7422B4083EE89FF8940819C0125
:104790000D8C02C0220F331F0A94E2F7422B408394
:1047A000EE89FF8940819C010E8C02C0220F331FCD
:1047B0000A94E2F7422B4083EE89FF8920810F8C17
:1047C00002C0880F991F0A94E2F7809582238083A4
:1047D000DF91CF91FF90EF90DF90CF9008951092EE
:1047E00097041092960488EE93E0A0E0B0E08093E6
:1047F000980490939904A0939A04B0939B048EED2F
:1048000092E090939504809394048AEF94E09093BF
:10481000A1048093A00486EB94E09093A30480937A
:10482000A20485EC90E09093A5048093A40484EC0A
:1048300090E09093A7048093A60480EC90E090937E
:10484000A9048093A80481EC90E09093AB0480933A
:10485000AA0482EC90E09093AD048093AC0486ECC3
:1048600090E09093AF048093AE0484E08093B00412
:1048700083E08093B10487E08093B20485E0809365
:10488000B30481E08093B4040895AF92BF92CF92B5
:10489000DF92EF92FF920F931F93CF93DF936C0100
:1048A0007B01C0E0D0E000E010E0F601EC0FFD1F5E
:1048B0004AE050E06281C7010E945B265C016EE223
:1048C000C7010E9428258A0D9B1D080F191F2196DC
:1048D000C330D10551F74AE050E0F6016581C701C8
:1048E0000E945B26800F911FDF91CF911F910F9146
:1048F000FF90EF90DF90CF90BF90AF9008958EEE35
:1049000092E090933F0580933E05109240051092EF
:10491000410510924205109243050895CF92DF920F
:10492000EF92FF920F931F93CF93DF936C017A0165
:10493000EB01E60EF71E00E010E0CE15DF0561F09A
:104940006991D601ED91FC910190F081E02DC601B5
:104950000995080F191FF1CFC801DF91CF911F9161
:104960000F91FF90EF90DF90CF9008956115710542
:1049700081F0DB010D900020E9F7AD0141505109B4
:10498000461B570BDC01ED91FC910280F381E02D79
:10499000099480E090E00895EF92FF920F931F93A7
:1049A000CF93DF938C01FB01C0E0D0E064917F01E5
:1049B0008FEFE81AF80A662361F0D801ED91FC91B7
:1049C0000190F081E02DC8010995C80FD91FF701AA
:1049D000EDCFCE01DF91CF911F910F91FF90EF901E
:1049E0000895AF92BF92CF92DF92EF92FF920F9312
:1049F0001F93CF93DF937C016B01C0E0D0E000E018
:104A000010E0D60114968D919C911597C817D9077F
:104A100088F4D701ED91FC91A080B180BE01C60160
:104A20000E94C528682FC701F5010995080F191FB5
:104A30002196E7CFC801DF91CF911F910F91FF9091
:104A4000EF90DF90CF90BF90AF9008950C94B62474
:104A5000DC01ED91FC910190F081E02D09940F9320
:104A60001F93CF93DF93EC016DE00E9428258C010A
:104A70006AE0CE010E942825800F911FDF91CF911F
:104A80001F910F9108950F931F93CF93DF93EC0124
:104A90000E94CC248C01CE010E942F25800F911FF3
:104AA000DF91CF911F910F9108950F931F93CF9393
:104AB000DF93EC010E94F1248C01CE010E942F258E
:104AC000800F911FDF91CF911F910F9108950F9348
:104AD0001F93CF93DF93EC010E94B6248C01CE018B
:104AE0000E942F25800F911FDF91CF911F910F9171
:104AF00008958F929F92AF92BF92CF92DF92EF92E2
:104B0000FF920F931F93CF93DF93CDB7DEB7A1979B
:104B10000FB6F894DEBF0FBECDBF7C01C42EE52FCB
:104B2000CB01D22E19A221E02D1510F02AE0D22EB1
:104B30008E010F5D1F4F8D2C912CA12CB12C6C2D53
:104B40007E2FA50194010E94DC2B8C2DD29E801912
:104B50001124015011098A3014F4805D01C0895C70
:104B6000F8018083211531054105510521F0C22E40
:104B7000E32FCA01E4CFB801C7010E94B624A19671
:104B80000FB6F894DEBF0FBECDBFDF91CF911F915E
:104B90000F91FF90EF90DF90CF90BF90AF909F90DC
:104BA0008F900895CF92DF92EF92FF920F931F9311
:104BB000CF93DF93EC016A017B012115310579F474
:104BC000E881F9810190F081E02D642FDF91CF9190
:104BD0001F910F91FF90EF90DF90CF9009942A30B2
:104BE0003105E9F477FF1AC06DE20E9428258C0197
:104BF00044275527BA014C195D096E097F092AE03F
:104C0000CE010E947925800F911FDF91CF911F91D6
:104C10000F91FF90EF90DF90CF9008952AE0B701B9
:104C2000A601CE01DF91CF911F910F91FF90EF90E0
:104C3000DF90CF900C9479259A01AB01662757FD40
:104C40006095762F0C94D2250F931F93CF93DF930B
:104C5000EC019A01AB01662757FD6095762F0E9403
:104C6000D2258C01CE010E942F25800F911FDF914C
:104C7000CF911F910F9108950F931F93CF93DF93BF
:104C8000EC010E94D2258C01CE010E942F25800FBD
:104C9000911FDF91CF911F910F910895211531053B
:104CA00041F4DC01ED91FC910190F081E02D642F45
:104CB00009940C9479259A01462F50E060E070E049
:104CC0000C944E269A01AB0160E070E00C944E26E5
:104CD0000F931F93CF93DF93EC010E94FC29688709
:104CE00079878A879B87E881F9810680F781E02DA3
:104CF000CE01099597FF15C00E94FC2908851985EA
:104D00002A853B85601B710B820B930B0C811D81E7
:104D10002E813F81601771078207930720F38FEF81
:104D20009FEFDF91CF911F910F910895CF92DF9266
:104D3000EF92FF920F931F93CF93DF937C016A0151
:104D4000EB0100E010E00C151D0549F0C7010E94C1
:104D5000682697FD04C089930F5F1F4FF4CFC801E9
:104D6000DF91CF911F910F91FF90EF90DF90CF9047
:104D70000895813039F018F0823051F00895109282
:104D80006E00089580916F008D7F80936F0008956D
:104D9000809170008D7F8093700081E08093B000DF
:104DA0008091B100887F84608093B1001092B3003D
:104DB0000895CF93C82F80910A018C1307C0E5E2B4
:104DC000F4E084919FEF90930A0101C08FEF0E945D
:104DD000B92660E08C2FCF910C946B2B1F920F9211
:104DE0000FB60F9211242F933F934F935F936F93BE
:104DF0007F938F939F93AF93BF93EF93FF93809194
:104E0000470590914805A0914905B0914A05892B25
:104E10008A2B8B2B51F190914405E0914505F0913F
:104E200046058081892780838091470590914805B8
:104E3000A0914905B0914A05181619061A061B06D5
:104E4000C4F48091470590914805A0914905B0911F
:104E50004A050197A109B109809347059093480538
:104E6000A0934905B0934A0504C080910A010E94AD
:104E7000D926FF91EF91BF91AF919F918F917F9133
:104E80006F915F914F913F912F910F900FBE0F90B7
:104E90001F9018954F925F926F927F92AF92BF9240
:104EA000CF92DF92EF92FF920F931F93CF93DF93F6
:104EB000CDB7DEB729013A01621B730B840B950B4A
:104EC00029893A894B895C892A193B094C095D0972
:104ED000298B3A8B4B8B5C8B9B01AC0169897A895E
:104EE0008B899C890E94AC2BE418F50806091709E8
:104EF000A80197010E94FE2B2A0D3B1D4C1D5D1D34
:104F0000CA01B901DF91CF911F910F91FF90EF90EE
:104F1000DF90CF90BF90AF907F906F905F904F9059
:104F20000895FC01808191810C94432DCF93DF93F0
:104F3000EC0188819981009711F00E94432D19821C
:104F400018821D821C821B821A82DF91CF910895E4
:104F50000F931F93CF93DF93EC018B016F5F7F4F14
:104F6000888199810E94D22D009731F0998388839E
:104F70001B830A8381E001C080E0DF91CF911F9104
:104F80000F910895CF93DF93EC0188819981892B4C
:104F900029F08A819B818617970760F4CE010E94D1
:104FA000A827882341F08C819D81892B19F4E88101
:104FB000F981108281E0DF91CF910895EF92FF9205
:104FC0000F931F93CF93DF93EC017B018A01BA010A
:104FD0000E94C227811104C0CE010E94962707C0FB
:104FE0001D830C83B701888199810E94DD2ECE013B
:104FF000DF91CF911F910F91FF90EF900895FC01E9
:105000001182108213821282158214821682611517
:10501000710559F0FB0101900020E9F7AF01415003
:105020005109461B570B0C94DE270895CF93DF934D
:10503000EC01FB018617970761F0608171816115B2
:10504000710529F0448155810E94DE2702C00E942B
:105050009627CE01DF91CF910895CF93DF93EC0196
:105060006115710561F0FB0101900020E9F7AF01C6
:1050700041505109461B570B0E94DE2702C00E9477
:105080009627CE01DF91CF910895EF92FF920F9373
:105090001F93CF93DF93EC017B010C811D81611580
:1050A000710511F480E016C04115510591F0040F0F
:1050B000151FB8010E94C2278823A1F328813981D6
:1050C0008C819D81B701820F931F0E94DD2E1D836D
:1050D0000C8381E0DF91CF911F910F91FF90EF90B2
:1050E00008956115710559F0FB0101900020E9F761
:1050F000AF0141505109461B570B0C94452880E0E5
:105100000895CF93DF9300D0CDB7DEB769831A82BD
:1051100041E050E0BE016F5F7F4F0E9445280F9035
:105120000F90DF91CF910895FC0124813581232BCD
:1051300031F421E061157105A1F0FB0108C0FC010B
:10514000808191816115710531F421E0FC0180813C
:10515000882339F005C00E94D42E21E0892B09F064
:1051600020E0822F0895FC018481958168177907DA
:1051700020F480819181009729F410924B058BE4F3
:1051800095E00895860F971F0895FC0124813581CD
:105190006217730748F480819181009729F0FC0120
:1051A000E60FF71F8081089580E00895BF92CF92A7
:1051B000DF92EF92FF920F931F93CF93DF936C01D7
:1051C0007B01EA0189012417350720F48D2FE901BD
:1051D000042F182F69E972E0C6010E94FF27D7014A
:1051E00014968D919C9115978C179D07C8F0801788
:1051F000910708F48C01D701ED91FC911197E00F14
:10520000F11FB08010826D917C916C0F7D1FC601E3
:105210000E942D28D701ED91FC91E00FF11FB08283
:10522000C601DF91CF911F910F91FF90EF90DF901A
:10523000CF90BF900895CF93DF93EC01FB012481C1
:1052400035810E94D628CE01DF91CF910895CF936A
:10525000DF93FC01C081D181209751F088818823A0
:1052600039F0992787FD90950E94C32E8993F6CF38
:10527000DF91CF910895FC0180819181009711F019
:105280000C949C2E60E070E0CB0108950E94522A9D
:105290000E94D80BCAE2D3E20E94DA0B2097E1F316
:1052A0000E942A23F9CF0C94AB2C0C94432D089523
:1052B0001F920F920FB60F9211242F933F934F938B
:1052C0005F936F937F938F939F93AF93BF93EF936E
:1052D000FF9380914C0590914D05892B29F0E09129
:1052E0004C05F0914D050995FF91EF91BF91AF915C
:1052F0009F918F917F916F915F914F913F912F91EE
:105300000F900FBE0F901F9018951F920F920FB61F
:105310000F9211242F933F934F935F936F937F933B
:105320008F939F93AF93BF93EF93FF9380914E051D
:1053300090914F05892B29F0E0914E05F0914F0592
:105340000995FF91EF91BF91AF919F918F917F91BF
:105350006F915F914F913F912F910F900FBE0F90E2
:105360001F9018951F920F920FB60F9211242F9332
:105370003F938F939F93AF93BF93809151059091EB
:105380005205A0915305B09154053091500523E08A
:10539000230F2D3720F40196A11DB11D05C026E86D
:1053A000230F0296A11DB11D209350058093510536
:1053B00090935205A0935305B093540580915505E1
:1053C00090915605A0915705B09158050196A11DE1
:1053D000B11D8093550590935605A0935705B09342
:1053E0005805BF91AF919F918F913F912F910F9051
:1053F0000FBE0F901F9018952FB7F894609151052C
:105400007091520580915305909154052FBF0895D6
:105410003FB7F8948091550590915605A091570596
:10542000B091580526B5A89B02C02F3F89F43FBF15
:105430006627782F892F9A2F620F711D811D911D6C
:1054400042E0660F771F881F991F4A95D1F708958C
:105450000196A11DB11DEBCFCF92DF92EF92FF928B
:10546000CF93DF936B017C010E94082AEB01C114EA
:10547000D104E104F10479F00E94082A6C1B7D0B31
:10548000683E7340A0F381E0C81AD108E108F10832
:10549000C851DC4FECCFDF91CF91FF90EF90DF90C0
:1054A000CF900895789484B5826084BD84B581607E
:1054B00084BD85B5826085BD85B5816085BDEEE61C
:1054C000F0E0808181608083E1E8F0E010828081FB
:1054D00082608083808181608083E0E8F0E0808169
:1054E00081608083E1EBF0E0808184608083E0EB89
:1054F000F0E0808181608083EAE7F0E08081846071
:1055000080838081826080838081816080838081CC
:10551000806880831092C10008958E3008F08E500C
:10552000877020910B0190E4299F90011124822B18
:1055300080937C0080917A00806480937A008091CF
:105540007A0086FDFCCF809178002091790090E070
:10555000922B08951F93CF93DF93182FEB0161E0F7
:105560000E94322B209711F460E004C0CF3FD10598
:1055700039F461E0812FDF91CF911F910C946B2B57
:10558000E12FF0E0EA5DFB4FE491E330F9F048F4FD
:10559000E130B9F0E230A1F584B5806284BDC8BDC8
:1055A00034C0E630E9F0E73019F1E43049F5809194
:1055B0008000806280938000D0938B00C0938A002B
:1055C00024C084B5806884BDC7BD1FC080918000A1
:1055D000806880938000D0938900C093880015C0B4
:1055E0008091B00080688093B000C093B3000DC07C
:1055F0008091B00080628093B000C093B40005C079
:10560000C038D1050CF0B5CFAFCFDF91CF911F914E
:105610000895833081F028F4813099F08230A1F030
:1056200008958630A9F08730B9F08430D1F48091A4
:1056300080008F7D03C0809180008F7780938000F1
:10564000089584B58F7702C084B58F7D84BD089599
:105650008091B0008F7703C08091B0008F7D8093E0
:10566000B0000895CF93DF9390E0FC01E65CFB4F20
:105670002491FC01E25BFB4F8491882349F190E087
:10568000880F991FFC01EA58FB4FA591B4918459EA
:105690009B4FFC01C591D4919FB7611108C0F8944C
:1056A0008C91209582238C93888182230AC062305A
:1056B00051F4F8948C91322F309583238C93888108
:1056C000822B888304C0F8948C91822B8C939FBF8B
:1056D000DF91CF9108950F931F93CF93DF931F9284
:1056E000CDB7DEB7282F30E0F901EA5DFB4F84919A
:1056F000F901E65CFB4F1491F901E25BFB4F049169
:105700000023C9F0882321F069830E94092B698155
:10571000E02FF0E0EE0FFF1FE459FB4FA591B4918D
:105720009FB7F8948C91611103C01095812301C03B
:10573000812B8C939FBF0F90DF91CF911F910F9181
:1057400008950E94232CA59F900DB49F900DA49FB7
:10575000800D911D11240895DB018F939F930E946A
:10576000A12BBF91AF91A29F800D911DA39F900D82
:10577000B29F900D11240895991B79E004C0991FE0
:10578000961708F0961B881F7A95C9F7809508959B
:1057900097FB072E16F4009407D077FD09D00E94DE
:1057A000322C07FC05D03EF4909581959F4F0895CB
:1057B000709561957F4F0895A1E21A2EAA1BBB1B1D
:1057C000FD010DC0AA1FBB1FEE1FFF1FA217B307CD
:1057D000E407F50720F0A21BB30BE40BF50B661FE3
:1057E000771F881F991F1A9469F7609570958095A7
:1057F00090959B01AC01BD01CF010895052E97FB4B
:105800001EF400940E94152C57FD07D00E94DC2B3B
:1058100007FC03D04EF40C94152C50954095309510
:1058200021953F4F4F4F5F4F08959095809570950C
:1058300061957F4F8F4F9F4F0895EE0FFF1F05908B
:10584000F491E02D0994A29FB001B39FC001A39FE2
:10585000700D811D1124911DB29F700D811D1124A9
:10586000911D0895AA1BBB1B51E107C0AA1FBB1FB6
:10587000A617B70710F0A61BB70B881F991F5A95DC
:10588000A9F780959095BC01CD010895E89409C0D1
:1058900097FB3EF490958095709561957F4F8F4F63
:1058A0009F4F9923A9F0F92F96E9BB279395F69579
:1058B000879577956795B795F111F8CFFAF4BB0FF7
:1058C00011F460FF1BC06F5F7F4F8F4F9F4F16C05B
:1058D000882311F096E911C0772321F09EE8872FE5
:1058E000762F05C0662371F096E8862F70E060E0A1
:1058F0002AF09A95660F771F881FDAF7880F96951A
:10590000879597F90895990F0008550FAA0BE0E8BD
:10591000FEEF16161706E807F907C0F01216130671
:10592000E407F50798F0621B730B840B950B39F4B1
:105930000A2661F0232B242B252B21F408950A2617
:1059400009F4A140A6958FEF811D811D0895DBDF2D
:1059500008F48FEF0895CF93DF938230910510F410
:1059600082E090E0E0915B05F0915C0520E030E0A2
:10597000A0E0B0E0309739F14081518148175907D4
:10598000B8F04817590771F482819381109729F074
:1059900013969C938E9312972CC090935C058093E2
:1059A0005B0527C02115310531F04217530718F068
:1059B000A901DB0101C0EF019A01BD01DF010280F5
:1059C000F381E02DD7CF21153105F9F0281B390BD4
:1059D0002430310580F48A819B816115710521F0A5
:1059E000FB019383828304C090935C0580935B05E5
:1059F000FE01329644C0FE01E20FF31F81939193A2
:105A000022503109398328833AC0209159053091B9
:105A10005A05232B41F42091020130910301309368
:105A20005A0520935905209100013091010121155B
:105A3000310541F42DB73EB7409104015091050165
:105A4000241B350BE0915905F0915A05E217F30735
:105A5000A0F42E1B3F0B2817390778F0AC014E5FDE
:105A60005F4F2417350748F04E0F5F1F50935A05BC
:105A7000409359058193919302C0E0E0F0E0CF019B
:105A8000DF91CF910895CF93DF93009709F487C0FA
:105A9000FC01329713821282C0915B05D0915C05A4
:105AA000209781F420813181280F391F8091590579
:105AB00090915A058217930779F5F0935A05E09370
:105AC00059056DC0DE0120E030E0AE17BF0750F48D
:105AD00012964D915C9113979D014115510509F165
