:100000000C9451020C94832C0C94B02C0C94421F31
:100010000C94661F0C948A1F0C9479020C94192A74
:100020000C9479020C9479020C9479020C94CF1BF5
:100030000C9479020C9479020C9479020C94790254
:100040000C94DD2C0C9479020C9415260C945826F3
:100050000C9479020C9479020C9479020C94790234
:100060000C9437220C94790283079807CC07D307A6
:10007000DE07DE07DE07DE07440847086E656174A9
:100080006F005350006C6174656E637900006865A1
:10009000617274626561740000626D730000616E6C
:1000A000616C6F6700500070776D0050006E656F77
:1000B0005F706978656C005000736572766F0050F0
:1000C000006261642073772073657269616C20003F
:1000D0003A20002073656E736F7220003220696EC3
:1000E0006465782000616E616C6F6720696E707561
:1000F000742076616C75652066726F6D2030207497
:100100006F203130323300737472656E677468200B
:1001100066726F6D203020286F66662920746F200C
:1001200032353520286F6E29003A200020636F6D2C
:100130006D616E6420003320696E64657820006212
:1001400061642070696E200062616420616E616C80
:100150006F672070696E2000636F6D6D616E6465FE
:1001600064206F7269656E746174696F6E20696E68
:1001700020646567726565730063726561746532DA
:100180000053007361626572746F6F74683200535C
:10019000007361626572746F6F746831005300623E
:1001A00074730050505050003920456E74657220B1
:1001B000796F757220746162756C6120646576690F
:1001C0006365206E616D6573206E6F773A006261C2
:1001D0006420696E740027207768696C6520636FFE
:1001E0006E6669677572696E67200020270030208F
:1001F0004552524F523A200062616420636F6D6D28
:10020000616E64006C6F6F7021007265736574219C
:1002100000417267756D656E7420666F726D6174F2
:100220003A205320697320612053657269616C2004
:10023000706F72742C206C696B6520583320666F68
:1002400072205458332F5258332E20205020697377
:1002500020612050696E2C206C696B652070696E7E
:100260002031332C206F722041332E005468697383
:1002700020697320686F7720796F7520636F6E66D1
:10028000696775726520796F75722041726475694E
:100290006E6F2061742072756E74696D652E2020FA
:1002A0005265676973746572656420646576696315
:1002B00065733A006C697374002062797465732009
:1002C000667265650072616D3F0020746F20766113
:1002D0006C756520003120207365742031362062F2
:1002E000697420636F6D6D616E6420696E646578FA
:1002F0002000636D6431360020746F2076616C7568
:1003000065200031202073657420636F6D6D616E10
:100310006420696E6465782000636D64003120207C
:1003200000636F6D6D616E64733F00312020007358
:10033000656E736F72733F003120323031352D306E
:10034000372D3033204368756769616B00766572BD
:1003500073696F6E3F0073657269616C5F636F6E86
:1003600074726F6C6C657200312041646465642046
:1003700064657669636520004578706563746564BB
:10038000200073657269616C5F636F6E74726F6C6D
:100390006C6572000000C201000100110011000C28
:1003A0000000E100000A0025002500210000960061
:1003B000001900390039003600127A00001F00468B
:1003C00000460044008070000022004D004D004AAD
:1003D00000004B00003600750075007200403800C8
:1003E000004A009C009C009900802500007200ECEF
:1003F00000EC00E900C0120000E900DA01DA01D7E0
:100400000160090000D701B603B603B303B00400CE
:1004100000B3036E076E076B07580200006E07DC1F
:100420000EDC0ED80E2C010000DC0EC11DC11DBE5D
:100430001D02000000070002010000030406000086
:1004400000000000000001020408102040800102AA
:100450000408102001020408102004040404040409
:100460000404020202020202030303030303000066
:1004700000002300260029000000000025002800BD
:100480002B0000000000240027002A003A03930BF1
:1004900034119E1B6F211427A4274303660CA3115C
:1004A000CD1B11241FBECFEFD8E0DEBFCDBF13E0C0
:1004B000A0E0B1E0EEEDF4E602C005900D92A430AC
:1004C000B107D9F715E0A4E0B3E001C01D92A93748
:1004D000B107E1F714E0CAE9D4E004C02297FE01B5
:1004E0000E945E2FCC38D107C9F70E94712C0C9462
:1004F00062320C94000020E131E0FC013183208362
:10050000089520E131E0FC0131832083089520E14A
:1005100031E0FC01318320830C94802C20E131E018
:10052000FC01318320830C94802C0F931F93CF9375
:10053000DF93C0E1D3E0BA91AA91109781F01296AF
:100540000C91129713961C911397ED91FC911197B2
:100550000280F381E02DCD010995D801EECF1982FB
:10056000188283E0C430D80731F7DF91CF911F9113
:100570000F910895CF93DF93FC01C081D181209723
:1005800059F0E881F9810480F581E02DCE010995CB
:100590000A80DB81C02DF3CFDF91CF910895CF93F7
:1005A000DF93EC0180911003909111032E813F8124
:1005B000821B930B2C813D818217930750F0888515
:1005C00099850E94BA0280911003909111039F8334
:1005D0008E83DF91CF910895DF92EF92FF920F9378
:1005E0001F93CF93DF93C0E0D0E001E010E08AE1F9
:1005F000E82E81E0F82E9AE0D92E8AE090E00E9461
:100600007E2CFC01F182E08215830483178216821E
:10061000CE018A5F9C4F91878087809104039091DF
:10062000050393838283F0930503E0930403C801D9
:10063000D89E8001D99E100D11242296CA30D10572
:10064000E1F6DF91CF911F910F91FF90EF90DF9036
:1006500008950E94332D2AE09695879577956795A2
:100660002A95D1F7709311036093100384E093E00F
:100670000C94BA02E4E0F3E01192119283E0E031CD
:10068000F807D1F708950C94950227E331E0FC01B7
:10069000318320830895DC011496ED91FC91159728
:1006A00015821482089527E331E0FC013183208311
:1006B000089520E131E0FC0131832083089527E390
:1006C00031E0FC0131832083089520E131E0FC0119
:1006D00031832083089520E131E0FC0131832083C0
:1006E000089527E331E0FC0131832083089520E160
:1006F00031E0FC0131832083089527E331E0FC01E0
:1007000031832083089520E131E0FC01318320838F
:10071000089527E331E0FC0131832083089520E12F
:1007200031E0FC0131832083089527E331E0FC01AF
:1007300031832083089520E131E0FC01318320835F
:10074000089527E331E0FC0131832083089527E3F6
:1007500031E0FC0131832083089520E131E0FC0188
:1007600031832083089527E331E0FC013183208326
:100770000C94802C27E331E0FC01318320830C941E
:10078000802C20E131E0FC01318320830C94802C0B
:1007900027E331E0FC01318320830C94802C20E19D
:1007A00031E0FC01318320830C94802C20E131E086
:1007B000FC01318320830C94802C27E331E0FC0181
:1007C000318320830C94802C20E131E0FC013183C3
:1007D00020830C94802C27E331E0FC0131832083BB
:1007E0000C94802C20E131E0FC01318320830C94B7
:1007F000802C27E331E0FC01318320830C94802C92
:1008000020E131E0FC01318320830C94802C27E32C
:1008100031E0FC01318320830C94802C20E131E015
:10082000FC01318320830C94802C27E331E0FC0110
:10083000318320830C94802C27E331E0FC01318349
:1008400020830C94802C20E131E0FC013183208353
:100850000C94802CE0917E03F0917F03DC011796CD
:100860002D913C911897E20FF31F608170E0049680
:100870000C946E1D0F931F93CF93DF93C0E0D0E0D5
:100880008C010C5F1F4F4FEF60E080E00E947425E9
:100890009B01AC01BE01C8010E940F252196CA3000
:1008A000D10589F7C801DF91CF911F910F910C9469
:1008B000F323E0917E03F0917F03DC0116962D91E6
:1008C0003C911797E20FF31F608170E014968C91B2
:1008D0000C94D52DCF93DF93EC0185E591E09983BE
:1008E0008883CE0104960E94642380E191E099837D
:1008F0008883DF91CF910895CF93DF93EC010E941D
:100900006A04CE01DF91CF910C94802CCF92DF92BC
:10091000EF92FF920F931F93CF93DF93EC017B0134
:100920008A01690166E371E0888199810E94F1275B
:100930004AE050E0B601888199810E9441296CE229
:1009400071E0888199810E94F127B701888199819E
:100950000E944B2869E271E0888199810E94F12709
:10096000B80188819981DF91CF911F910F91FF90FC
:10097000EF90DF90CF900C94682887E391E09093FC
:1009800013038093120390931B0380931A03909395
:1009900023038093220390932B0380932A03909345
:1009A00033038093320390933B0380933A039093F5
:1009B00043038093420390934B0380934A0308952B
:1009C000CF93DF93EC018C810E94B82DE0918203DC
:1009D000F09183032E813F81E20FF31F9183808387
:1009E000DF91CF910895E0918203F0918303DC01C0
:1009F0002D913C911197E20FF31F6083E0918203E8
:100A0000F09183038D919C91E80FF91F80810895E7
:100A1000FC01648121E0260F248305960C94F304E5
:100A2000CF93DF93EC010E94332D2AE096958795B2
:100A3000779567952A95D1F72E813F81AB01421BAF
:100A4000530B9A014C815D814217530710F43D838B
:100A50002C837F836E836C81CE010896DF91CF91CA
:100A60000C94F3040F931F93CF93DF93EC018B014E
:100A70006DEA72E00E942A2BD80112966C911297AF
:100A8000662319F012961C9211C0F80180819181A1
:100A9000DC01ED91FC910680F781E02D0995181697
:100AA00019061CF00E942903F0CF682F623221F34F
:100AB000673211F388ED860F603251F06A3041F0F1
:100AC0006D3031F0823020F06C3211F06B3399F4DC
:100AD000823010F06B3311F4F80162836DEA72E03A
:100AE000CE010E94BF2B8111C7CFCE01DF91CF91E4
:100AF0001F910F910895CE010E94AC2BBDCFBF92E4
:100B0000CF92DF92EF92FF920F931F93CF93DF93D9
:100B1000CDB7DEB72E970FB6F894DEBF0FBECDBFB0
:100B20008C01BC01CE0108960E943205CE010896C8
:100B30000E94522C60E070E0CE0108960E94DE2BED
:100B4000FC0180818134B9F441E050E0BE01685F6E
:100B50007F4FCE0101960E94462CBE016F5F7F4FF2
:100B6000CE0108960E94412BCE0101960E94BC2A1C
:100B7000BB24B39401C0B12CCE0108960E94662C10
:100B8000BB2081F0673071058105910544F46B014C
:100B90007C01FEE0CF0ED11CE11CF11C22C088E4D8
:100BA00091E00FC06B017C01F1E0CF1AD108E108A0
:100BB000F1082DE0C216D104E104F10480F08FE3C6
:100BC00091E0F80194838383BE01685F7F4FC80181
:100BD00005960E94412BC12CD12C760102C06B01DD
:100BE0007C01CE0108960E94BC2AC701B6012E9650
:100BF0000FB6F894DEBF0FBECDBFDF91CF911F912E
:100C00000F91FF90EF90DF90CF90BF900895EF92FB
:100C1000FF920F931F93CF93DF931F92CDB7DEB751
:100C2000CB010E947F05462F89E190E049830E9415
:100C30007E2C7C01DC0113961C921E92129785E596
:100C400091E08D939C9387010C5F1F4F22E54981B2
:100C50006AE070E0C8010E94E724C8010E9478237E
:100C6000E8E0F3E080819181D70113969C938E9305
:100C70001297F182E0820F90DF91CF911F910F9137
:100C8000FF90EF9008958F929F92AF92BF92CF9274
:100C9000DF92EF92FF920F931F93CF93DF93EB01BD
:100CA000CB010E947F056B017C0188E090E00E94EF
:100CB0007E2C8C0188E0D8011D928A95E9F7F80115
:100CC000138212828DE791E091838083E4E8F3E060
:100CD000A080B180B5016E5F7F4F7183608332E881
:100CE000832E33E0932ED4018D919C910E94FD3090
:100CF000F40191838083FC01EA0DFB1D11821082B7
:100D0000D8011796BC92AE9216971596DC92CE92A9
:100D100014976CED70E0888199810E94F1274AE078
:100D200050E0B501888199810E94412963ED70E00E
:100D3000888199810E94F12760E271E08881998120
:100D40000E944B2860ED70E0888199810E94F12714
:100D500065EE70E0888199810E946828E8E0F3E000
:100D600080819181D80113969C938E931297118361
:100D70000083DF91CF911F910F91FF90EF90DF9053
:100D8000CF90BF90AF909F908F9008952091740363
:100D900030917503FC01378326839093750380930C
:100DA00074030895FC018FEF808383E081831382B5
:100DB000128220E030E03496DF01A20FB31F1C92B4
:100DC00011961C922E5F3F4F28313105A9F70895E7
:100DD0002F923F924F925F926F927F928F929F924B
:100DE000AF92BF92CF92DF92EF92FF920F931F9339
:100DF000CF93DF9300D000D000D0CDB7DEB73C0159
:100E0000A9EE2A2EA3E03A2E2C0122E5420E511C17
:100E10008C010C5A1F4F9C01205C3F4F3E832D8359
:100E20006C0136E5C30ED11C5C0162E4A60EB11C58
:100E30007C0174E4E70EF11C4C0186E4880E911CE1
:100E40009301285B3F4F3A832983D301DC968D9130
:100E50009C91DD97DC01ED91FC910480F581E02D02
:100E60000995892B09F489C1F30184AD95ADDC01A5
:100E7000ED91FC910680F781E02D09958F3FBFEF42
:100E80009B0709F47AC1F20120813181232B31F0D3
:100E9000D8018D939C931182108228C0382F22276D
:100EA000F80140815181242B352B31832083AD8182
:100EB000BE814D915C914930510599F0F601408118
:100EC000518162817381440F551F661F771F420F46
:100ED000531F611D711DD6014D935D936D937C93DE
:100EE000139721E030E0F20131832083AD81BE8190
:100EF0002D913C912A30310508F038C1F901EC5CA4
:100F0000FF4F0C945C2F8A3F910509F02FC1F60129
:100F10001082118212821382D8018D939C93F20168
:100F200011821082D5011D921C9281E090E023C0B5
:100F3000805A91098A35910518F5880F991F880FF5
:100F4000991FD301DF969C938E93DE9714962C9174
:100F5000149715964C911597342F337031FF09C0B3
:100F600014968C9314979370842F8C7F892B1596ED
:100F70008C9382E090E0ED81FE8191838083F6C0C6
:100F8000D30115968C9115978C5F15968C93ED81F6
:100F9000FE8111821082EAC083E090E0AD81BE81C3
:100FA0008D939C93E3C0F80180819181D3011796C2
:100FB0009C938E93169784E090E0DDCFD5018D91C0
:100FC0009C918130910541F08330910559F4F801ED
:100FD00040815181D40104C0F80140815181D70181
:100FE0004D935C930196F50191838083049709F0FA
:100FF000BDC0D7018D919C91119797FF02C01D92A2
:101000001C92F7018081918196FF03C09F739183A9
:10101000808380E090E0F4014081518141155105C9
:1010200049F05695479556954795D4014D935C9355
:101030000196F1CF8830910510F087E090E0D4015F
:101040008D939C93F7019081A981BA819C939181A2
:101050008295880F807E9F71982B11969C93119793
:10106000F9017F96EE0FFF1FE60DF71D8D919C9104
:1010700095838483F501118210822F5F3F4FAD81EC
:10108000BE812D933C9372C089E090E074CFAD8116
:10109000BE811D921C92F60180819181A281B38153
:1010A000AC01BD012FE076956795579547952A9538
:1010B000D1F7840F951F9F77D8012D913C91F301B3
:1010C00046AD57AD8217930721F085818C5F8583EC
:1010D00038C080E090E093012C5F3F4F3C832B832E
:1010E000FC01E40FF51FD30114962C91149715966B
:1010F0006C91362F3370A6E0220F331FAA95E1F7CB
:10110000B6E035952795BA95E1F7E21BF30BEC3085
:10111000F10598F43296EE0FFF1FE60DF71D9C01C6
:10112000220F331F6B817C81260F371F2A5B3F4FB5
:10113000D9012D913C91358324830196843091050A
:1011400079F6CA0104966CE070E00E94072F892BA3
:1011500069F48CE1F3013496D301909601900D92DD
:101160008A95E1F7C30104960E94D206F1E02F1A96
:1011700031082114310409F068CEA0918203B091A6
:101180008303F301E65AFF4F80819181A80FB91FB5
:101190008CE1F301B09601900D928A95E1F773010D
:1011A000BCE5EB0EF11C61E0F70180810E945D2E31
:1011B00080918603882391F1D30192960D911C9121
:1011C0009397B80180E090E00E94712F20E030E01A
:1011D00048E453E40E94D22F18162CF546E01695E9
:1011E00007954A95E1F7085111402AE0209FC00178
:1011F000219F900D1124823EBFEF9B0764F0823E39
:10120000910564F426EF2003B001219F700D112495
:101210006F517F4F05C06FEF70E002C060E070E07B
:10122000F701808104C06FEF70E0D7018C912696A2
:101230000FB6F894DEBF0FBECDBFDF91CF911F91E7
:101240000F91FF90EF90DF90CF90BF90AF909F9065
:101250008F907F906F905F904F903F902F900C9465
:10126000D52DAF92BF92CF92DF92EF92FF920F9364
:101270001F93CF93DF93CDB7DEB7C855D1090FB613
:10128000F894DEBF0FBECDBF8B01CE0101960E9448
:101290003205CE0101960E94522C66E271E0CE0129
:1012A00001960E94BF2B8823B9F1C8010E947F05D7
:1012B0006B017C01C8010E947F05AB01BC01C11418
:1012C000D104E104F104A1F1411551056105710555
:1012D00079F18CE190E066964FAF669767965FAFC5
:1012E000679768966FAF689769967FAF69970E9416
:1012F0007E2C5C0120E066964FAD66976C2D0E94B7
:10130000FC1FA114B104B1F040E052EC61E070E0C8
:10131000C5010E942C200EC081EC90E0F80194835E
:101320008383BE016F5F7F4FC80105960E94412BEA
:10133000A12CB12CCE0101960E94BC2AC8010E94AA
:101340007F056B017C018EE590E00E947E2C8C0174
:10135000FC011382128287ED91E091838083C801A2
:1013600004960E94D206C80180960E94D206F80117
:10137000B5AEA4AEE05CFF4F11821082F801EA5ACC
:10138000FF4F1082118212821382F801EC5AFF4F34
:1013900011821082F801EE5AFF4F81E090E09183B4
:1013A0008083F801EE5BFF4F11821082F801EC5B45
:1013B000FF4F11821082F801EA5BFF4F1182108209
:1013C000F80117AE16AECE01C9960E94D2068CE186
:1013D000FE01F996DE015D9601900D928A95E1F786
:1013E0008CE1FE017D96DE01119601900D928A95A9
:1013F000E1F7A0908403B0908503B501645E7F4F50
:10140000709385036093840380918203909183039A
:101410000E94FD309093830380938203DC01AA0D28
:10142000BB1D8CE1FE01319601900D928A95E1F78A
:10143000F801E65AFF4FB182A082F801E45AFF4F4B
:10144000D182C0828091060390910703F8019383B3
:1014500082831093070300930603C85ADF4F0FB629
:10146000F894DEBF0FBECDBFDF91CF911F910F91DA
:10147000FF90EF90DF90CF90BF90AF900895FF92D4
:101480000F931F93CF93DF93EC01F62E0A811B81FC
:10149000B8016F5F7F4F7B836A83888199810E9447
:1014A000FD3099838883FC01E00FF11FF082C801B1
:1014B000DF91CF911F910F91FF900895CF93DF930C
:1014C000EC0182E893E00E943F0A99838883DF91D0
:1014D000CF910895EF92FF920F931F93CF93DF93D5
:1014E00081EF93E00E94562144E650E060E070E016
:1014F00081EF93E00E94BB298BE090E00E947E2C5C
:10150000EC011B821A8281E991E0998388837E0134
:1015100084E0E80EF11C60E0C7010E945E0A8E01C3
:101520000A5F1F4F60E0C8010E945E0A60E0C701C9
:101530000E94F30460E0C8010E94F304ECE0F3E0D1
:10154000808191819B838A83D183C083DF91CF91F6
:101550001F910F91FF90EF900895CF93DF9387E055
:1015600090E00E947E2CEC0187E0FE0111928A95AA
:10157000E9F71B821A8285EA91E09983888360E00B
:10158000CE0105960E945E0AEAE0F3E08081918137
:101590009B838A83D183C083DF91CF910895CF93BA
:1015A000DF938AE090E00E947E2CEC018AE0FE014D
:1015B00011928A95E9F71B821A8289EB91E099834F
:1015C000888360E0CE0108960E945E0AE6E0F3E0C0
:1015D000808191819B838A83D183C08386E090E060
:1015E0000E947E2CFC0183EC91E091838083D58363
:1015F000C483ACE0B3E08D919C9111979383828377
:10160000ED93FC93DF91CF910895CF92DF92EF920B
:10161000FF920F931F93CF93DF938B01CB010E9417
:101620007F056B017C0188E090E00E947E2CEC013C
:1016300088E0FE0111928A95E9F71B821A8289E6F9
:1016400091E09983888360E08EE793E00E943F0AEF
:101650009F838E83DD82CC829C0147E051E06BE268
:1016600071E0C8010E948604E8E0F3E08081918186
:101670009B838A83D183C083DF91CF911F910F9188
:10168000FF90EF90DF90CF900895AF92BF92CF92EE
:10169000DF92EF92FF920F931F93CF93DF938B0113
:1016A000CB010E947F056B017C0189E090E00E94E4
:1016B0007E2CEC0189E0FE0111928A95E9F71B82EC
:1016C0001A8281E491E0998388835E01F4E0AF0E91
:1016D000B11CC5010E948B1C60E08EE793E00E9464
:1016E0003F0A98878F83B601C5010E94251D2F816F
:1016F000388548E551E06FE271E0C8010E94860438
:10170000E8E0F3E0808191819B838A83D183C08369
:10171000DF91CF911F910F91FF90EF90DF90CF90CD
:10172000BF90AF9008950F931F93CF93DF930AE478
:1017300013E0C7E3D1E0F801D183C08389EB90E0E7
:1017400090934D0380934C038FEB90E090934F0365
:1017500080934E03C8010E94C6068BE491E0F80115
:101760009183808302E413E0F801D183C0838DEA82
:1017700090E0909345038093440387EB90E090932F
:10178000470380934603C8010E94C6068FE591E097
:10179000F801918380830AE313E0F801D183C083C9
:1017A00087EA90E090933D0380933C038BEA90E0BE
:1017B00090933F0380933E03C8010E94C60683E7CF
:1017C00091E0F8019183808302E313E0F801D18373
:1017D000C0838EE990E0909335038093340385EACB
:1017E00090E09093370380933603C8010E94C606A9
:1017F00087E891E0F801918380830AE213E0F80121
:10180000D183C08389E990E090932D0380932C03CA
:101810008DE990E090932F0380932E03C8010E94DE
:10182000C6068BE991E0F8019183808302E213E020
:10183000F801D183C0838EE890E0909325038093D4
:10184000240388E990E09093270380932603C8013E
:101850000E94C6068FEA91E0F801918380830AE135
:1018600013E0F801D183C08385E890E090931D03D5
:1018700080931C038DE890E090931F0380931E03D8
:10188000C8010E94C6068DEC91E0F8019183808327
:1018900002E113E0F801D183C0838CE790E09093DC
:1018A00015038093140382E890E0909317038093CC
:1018B0001603C8010E94C60681EE91E0F8019183EB
:1018C0008083DF91CF911F910F9108950C94BD04F7
:1018D000CF93DF93EC0121E030E043E050E062E0A1
:1018E00070E081EF93E00E946D2181EF93E00E9410
:1018F000BF20892B71F181EF93E00E94C7208C3CBF
:101900009105D9F481EF93E00E94BF20892B49F023
:1019100081EF93E00E94C720682FCE0104960E94B9
:10192000F30481EF93E00E94BF20892B91F081EFB7
:1019300093E00E94C720682F06C060E0CE010496A5
:101940000E94F30460E0CE010696DF91CF910C94E3
:10195000F304DF91CF9108950C9430190C9429036E
:10196000CF93DF9320917E0330917F03EC01A88118
:10197000B981EE81FF81E20FF31F40815181EC813B
:10198000FD81E20FF31F608171811696ED91FC914C
:101990001797DF91CF91099420E131E0FC01318369
:1019A000208308950F931F93CF93DF93EC019B0146
:1019B0008A01E881F9810084F185E02D46E060E844
:1019C0000995E881F9810084F185E02D980147E0CF
:1019D00060E8CE01DF91CF911F910F910994CF93D1
:1019E000DF931F92CDB7DEB73595279535952795AF
:1019F000473011F0205C01C020542983DC01189687
:101A00008D919C911997DC01ED91FC910280F381FD
:101A1000E02D41E050E0BE016F5F7F4F09950F90D0
:101A2000DF91CF910895CF93DF9300D000D0CDB751
:101A3000DEB73595279535952795205C69834A83D0
:101A40002B83460F420F4F774C83DC0118968D9104
:101A50009C911997DC01ED91FC910280F381E02DBE
:101A600044E050E0BE016F5F7F4F09950F900F90EB
:101A70000F900F90DF91CF91089527E331E0FC01A3
:101A800031832083089520E131E0FC0131832083FC
:101A9000089527E331E0FC0131832083089527E393
:101AA00031E0FC0131832083089527E331E0FC011C
:101AB00031832083089520E131E0FC0131832083CC
:101AC000089520E131E0FC0131832083089520E175
:101AD00031E0FC0131832083089520E131E0FC01F5
:101AE000318320830C94802C27E331E0FC01318387
:101AF00020830C94802C20E131E0FC013183208391
:101B00000C94802C27E331E0FC01318320830C947A
:101B1000802C27E331E0FC01318320830C94802C5E
:101B200027E331E0FC01318320830C94802C20E1F9
:101B300031E0FC01318320830C94802C20E131E0E2
:101B4000FC01318320830C94802C20E131E0FC01E6
:101B5000318320830C94802CCF92DF92FF920F93DD
:101B60001F93CF93DF931F92CDB7DEB76C01F62E94
:101B70008A0160E0FC01808579830E94962E60E0F6
:101B8000F60184850E94962E60E0F60182850E940F
:101B9000962E60E0F60186850E94962E8F2D798123
:101BA000972F97FF03C0919581959109A72FA09535
:101BB000AA1FAA27AA1FB0E01496AA0FBB1FAC0D3C
:101BC000BD1DBC018C910E94D52DB80117FF03C02B
:101BD000719561957109E12FE095EE1FEE27EE1FDB
:101BE000F0E03696EE0FFF1FEC0DFD1D80810F908B
:101BF000DF91CF911F910F91FF90DF90CF900C94C8
:101C0000D52DEF92FF920F931F93CF93DF9300D0C8
:101C1000CDB7DEB78C01FC01808591850E94D5147B
:101C2000F801808591850E942513A0918203B091CF
:101C30008303F80124853585A20FB31F26E1FC013B
:101C400001900D922A95E1F780918603882319F07F
:101C500081E080935303F801808591850E942513CC
:101C6000FC01858980FD58C0F801808591850E941E
:101C70002513FC01858982FD4FC080E09091860389
:101C8000911108C090915303992321F081E0809332
:101C9000520302C0882351F01A821982BE016F5F7D
:101CA0007F4FF801808591850E94F811809186030D
:101CB000882369F080915203882349F010925203DF
:101CC000F80162857385808591850E94791581E090
:101CD000F8018687E12CF12CF801808591850E941E
:101CE00025138E0D9F1DFC018285833010F4F801B1
:101CF0001686FFEFEF1AFF0A84E0E816F10461F799
:101D0000C8010E94B00C0F900F90DF91CF911F91EE
:101D10000F91FF90EF90089581E0B0CFFC012685F0
:101D200021110AC0161617061CF01416150624F405
:101D300040E050E060E070E0440F551F660F771FF1
:101D4000FC01808591850C94251287E391E09093A6
:101D500055038093540390935D0380935C039093A9
:101D600065038093640390936D0380936C030895DF
:101D70008F929F92AF92BF92CF92DF92EF92FF929B
:101D80000F931F93CF93DF93CDB7DEB72B970FB68B
:101D9000F894DEBF0FBECDBF8C016A017B01BC0190
:101DA000CE0101960E943205CE0101960E94522C6E
:101DB00066E271E0CE0101960E94BF2B882331F1CB
:101DC000C8010E947F054B015C01C8010E947F058C
:101DD000AB01BC0181149104A104B10479F1411556
:101DE00051056105710551F18CE190E048875987F3
:101DF0006A877B870E947E2C8C0120E04885682DB5
:101E00000E94FC1F0115110571F41AC081EC90E0CD
:101E1000F80194838383BE016F5F7F4FC8010596ED
:101E20000E94412B0BC01C141D041E041F0444F40B
:101E3000B701A601C8010E942C2002C000E010E0FA
:101E4000CE0101960E94BC2AC8012B960FB6F894C9
:101E5000DEBF0FBECDBFDF91CF911F910F91FF90DD
:101E6000EF90DF90CF90BF90AF909F908F900895AC
:101E7000CF92DF92EF92FF920F931F93CF93DF9356
:101E8000EC011B821A828AE292E09983888300E83F
:101E900013E0F801C080D180B6016E5F7F4F71837F
:101EA0006083FEE7EF2EF3E0FF2EF7018081918142
:101EB0000E94FD30F70191838083FC01EC0DFD1D34
:101EC00011821082DD82CC82F801C080D180B601FF
:101ED0006E5F7F4F718360830E94FD30F7019183B5
:101EE0008083FC01EC0DFD1D11821082DF82CE8209
:101EF000DF91CF911F910F91FF90EF90DF90CF90E6
:101F00000895EF92FF920F931F93CF93DF93EC010D
:101F10007B018A010E94380F86E392E099838883CF
:101F2000F7018081918199878887F801808191816B
:101F30009D878C87F701828193819B878A87F8012F
:101F4000828193819F878E8702E010E061E088851F
:101F50000E945D2E61E08C850E945D2E60E0888588
:101F60000E94962E60E08C850E94962E01501109E9
:101F700022960115110551F7DF91CF911F910F9115
:101F8000FF90EF9008950F931F93CF93DF93CDB7FA
:101F9000DEB728970FB6F894DEBF0FBECDBF8B011A
:101FA000CB010E947F057E836D83C8010E947F055F
:101FB00078876F83C8010E947F057A836983C8018F
:101FC0000E947F057C836B8380E190E00E947E2CE1
:101FD0008C01AE014F5F5F4FBE016B5F7F4F0E9470
:101FE000810FE8E0F3E080819181D80113969C9302
:101FF0008E9312971183008328960FB6F894DEBF54
:102000000FBECDBFDF91CF911F910F9108950F9318
:102010001F93CF93DF93EC018B010E94380F198738
:10202000088782E492E099838883DF91CF911F91A2
:102030000F9108950F931F93CF93DF93CB0140E847
:1020400055E260E070E00E94B80E8C018AE090E0FA
:102050000E947E2CEC01B8010E940710E8E0F3E03A
:10206000808191819B838A83D183C083DF91CF91CB
:102070001F910F9108950F931F93CF93DF93EC015E
:102080008B010E94380F1987088780E592E09983B9
:102090008883DF91CF911F910F9108950F931F9324
:1020A000CF93DF93CB0140E855E260E070E00E94FF
:1020B000B80EEC0160ED77E080E090E00E94572DD3
:1020C000E881F9810190F081E02D6AEACE0109955D
:1020D0006AE070E080E090E00E94572D8AE090E096
:1020E0000E947E2C8C01BE010E943B10E8E0F3E0D0
:1020F00080819181D80113969C938E9312971183BE
:102100000083DF91CF911F910F910895CF92DF92BD
:10211000EF92FF920F931F93CF93DF93CDB7DEB76C
:10212000C254D1090FB6F894DEBF0FBECDBF8C01EB
:102130006B017A010E94380F8CE792E0D80111966A
:102140009C938E931996DC92CE9218971B96FC92D4
:10215000EE921A97FE01BD9686E1DF011D928A95E7
:10216000E9F786E1DE01579601900D928A95E1F735
:1021700086E1FE017796DE01119601900D928A9517
:10218000E1F7E4E8F3E0E080F180B7016A5E7F4FB9
:1021900071836083A2E8CA2EA3E0DA2EF601808163
:1021A00091810E94FD30D6018D939C93DC01AE0D90
:1021B000BF1D86E1FE01319601900D928A95E1F7EF
:1021C000F801F586E48681E08687CE5BDF4F0FB6A7
:1021D000F894DEBF0FBECDBFDF91CF911F910F915D
:1021E000FF90EF90DF90CF9008950F931F93CF93C0
:1021F000DF93CB0140E052EC61E070E00E94B80E4A
:102200008C0181E290E00E947E2CEC01B8010E94DA
:10221000A51167EE71E080EB94E00E948C2862E0EB
:1022200070E0CE010E94791569E172E080EB94E0E4
:102230000E948C288FE090E00E947E2C8C0142E06E
:1022400050E0BE010E948610E8E0F3E080819181B9
:10225000D80113969C938E93129711830083DF917C
:10226000CF911F910F9108950F931F93CF93DF93F9
:102270000CE613E0C7E3D1E0F801D183C0838FE916
:1022800091E090936F0380936E0383EA91E09093C3
:10229000710380937003C8010E94C6068EE592E028
:1022A000F8019183808304E613E0F801D183C083B1
:1022B00081E991E090936703809366038DE991E053
:1022C0009093690380936803C8010E94C60688E65C
:1022D00092E0F801918380830CE513E0F801D1834B
:1022E000C08383E891E090935F0380935E038FE85F
:1022F00091E09093610380936003C8010E94C60639
:1023000082E792E0F8019183808304E513E0F8010D
:10231000D183C08389E791E090935703809356035C
:1023200081E891E09093590380935803C8010E947B
:10233000C60688E892E0F80191838083DF91CF910F
:102340001F910F9108950C94A50EFC017183608379
:1023500012821382148215821782168210861286C8
:1023600011863B9686E1DF011D928A95E9F7089573
:10237000CF93DF931F92CDB7DEB720E82983DC012E
:102380008D919C91DC01ED91FC910280F381E02D17
:1023900041E050E0BE016F5F7F4F099564E670E059
:1023A00080E090E00E94572D0F90DF91CF9108952B
:1023B000CF93DF931F92CDB7DEB727E02983DC01EF
:1023C0008D919C91DC01ED91FC910280F381E02DD7
:1023D00041E050E0BE016F5F7F4F099568E873E10F
:1023E00080E090E00E94572D0F90DF91CF910895EB
:1023F000CF93DF931F92CDB7DEB725E82983DB01AA
:102400002D913C912130310511F423E804C0223094
:10241000310511F424E82983FC0180819181DC01DC
:10242000ED91FC910280F381E02D41E050E0BE018E
:102430006F5F7F4F099564E670E080E090E00E9456
:10244000572D0F90DF91CF9108950F931F93CF9346
:10245000DF9300D000D01F92CDB7DEB78C017B8315
:102460006A835D834C8381E98983D8018D919C9136
:10247000DC01ED91FC910280F381E02D41E050E020
:10248000BE016F5F7F4F0995F80180819181DC016A
:10249000ED91FC910280F381E02D41E050E0BE011E
:1024A0006B5F7F4F0995F80180819181DC01ED918F
:1024B000FC910280F381E02D41E050E0BE016C5FB1
:1024C0007F4F0995F80180819181DC01ED91FC91AC
:1024D0000280F381E02D41E050E0BE016D5F7F4F4F
:1024E0000995F80180819181DC01ED91FC910280D8
:1024F000F381E02D41E050E0BE016E5F7F4F099512
:102500000F900F900F900F900F90DF91CF911F9130
:102510000F9108950F931F93CF93DF931F92CDB721
:10252000DEB78C018BE88983D8018D919C91DC0109
:10253000ED91FC910280F381E02D41E050E0BE017D
:102540006F5F7F4F0995F80181919191BF01DC0187
:10255000ED91FC910280F381E02D41E050E009957E
:10256000F80180819181DC01ED91FC91B8016D5FF2
:102570007F4F0280F381E02D41E050E00995F801A2
:1025800080819181DC01ED91FC91B8016C5F7F4FFE
:102590000280F381E02D41E050E009950F90DF913A
:1025A000CF911F910F9108950F931F93CF93DF93B6
:1025B00000D0CDB7DEB78C01FC01A081B1816623CC
:1025C00071F184E98A8383E18983ED91FC9111970C
:1025D0000280F381E02D41E050E0BE016E5F7F4F4D
:1025E000CD010995D8018D919C91DC01ED91FC9173
:1025F0000280F381E02D41E050E0BE016F5F7F4F2C
:102600000995F80180819181DC01ED91FC910280B6
:10261000F381E02D43E150E06EE872E00EC086E900
:102620008983ED91FC9111970280F381E02D41E0C7
:1026300050E0BE016F5F7F4FCD0109950F900F9065
:10264000DF91CF911F910F9108950B9608958038D7
:10265000910570F080589109969587959695879584
:1026600080589F4F8F3F910519F010F08FEF90E049
:1026700008952F923F924F925F926F927F928F9226
:102680009F92AF92BF92CF92DF92EF92FF920F9301
:102690001F93CF93DF93CDB7DEB72C970FB6F89487
:1026A000DEBF0FBECDBF8C01DC0115968C91282FAB
:1026B00030E03A83298360E070E029813A81D801D3
:1026C0006217730708F012C116962D913C91179767
:1026D000AB014F5F5F4FF901E60FF71F8081873035
:1026E00031F4F901E40FF51F20812987FCC0853101
:1026F00031F4F901E40FF51F30813A87F4C08831D5
:1027000031F4F901E40FF51F20812887ECC08931ED
:1027100051F4F901E40FF51F2080312C322C2224D2
:102720008181282AD6C08B3251F4F901E40FF51FBC
:10273000808190E0D82ECC248181C82ACAC08C32F6
:1027400051F4F901E40FF51F808190E0F82EEE249A
:102750008181E82ABEC08C3181F4F901E40FF51FB4
:10276000808190E0982F88272181822B55E09695D3
:1027700087955A95E1F7882EACC08D3181F4F90127
:10278000E40FF51F808190E0982F88272181822B0C
:1027900035E0969587953A95E1F7982E9AC08E3157
:1027A00081F4F901E40FF51F808190E0982F8827CC
:1027B0002181822BB5E096958795BA95E1F7782E21
:1027C00088C08F3181F4F901E40FF51F808190E01A
:1027D000982F88272181822B55E0969587955A95C9
:1027E000E1F7682E76C0833229F4F901E40FF51F72
:1027F000408079C08D3231F4F901E40FF51F30814A
:102800003B8371C08E3279F4F901E40FF51F8081AA
:1028100090E0982F88272181822B6B877C870E94EC
:102820002713A82E54C08F3279F4F901E40FF51F55
:10283000808190E0982F88272181822B6B877C876D
:102840000E942713B82E43C0803379F4F901E40FB6
:10285000F51F808190E0982F88272181822B6B873C
:102860007C870E9427138F8332C0813379F4F9016A
:10287000E40FF51F808190E0982F88272181822B1B
:102880006B877C870E9427138E8321C0823379F463
:10289000F901E40FF51F808190E0982F88272181AE
:1028A000822B6B877C870E9427138D8310C0833314
:1028B00099F4F901E40FF51F808190E0982F8827A3
:1028C0002181822B6B877C870E9427138C836B85E9
:1028D0007C856D5F7F4FF1CE823109F04CC0F901EC
:1028E000E40FF51F50806E5F7F4FE7CE1B964C9232
:1028F0001B9729851C962C931C973A851D963C9313
:102900001D9728851E962C931E9750963C922E92CA
:102910001F975296DC92CE9251975496FC92EE926B
:10292000539755968C92559756969C9256975796D4
:102930007C92579758966C9258975996AC925997A3
:102940005A96BC925A973F815B963C935B972E8137
:102950005C962C935C973D815D963C935D972C81B2
:102960005E962C935E973B815F963C935F97909623
:102970005C9281E001C080E02C960FB6F894DEBF37
:102980000FBECDBFDF91CF911F910F91FF90EF90C0
:10299000DF90CF90BF90AF909F908F907F906F907F
:1029A0005F904F903F902F900895CF92DF92EF92DB
:1029B000FF920F931F93CF93DF931F92CDB7DEB794
:1029C0008C0193E0E92EF12C22E0C22ED12CD8010B
:1029D0008D919C91DC01ED91FC910480F581E02DBD
:1029E0000995181619060CF07AC041E050E0BE01B6
:1029F0006F5F7F4FD8018D919C910E94C1298130DA
:102A0000910509F06CC0F801218532852115310549
:102A100039F429812331D9F6F80192878187D7CFFC
:102A20002130310569F48981D80115968C9390E0A5
:102A30000E94D62FF80197838683D286C186C7CF9E
:102A400022303105F9F4D8011696ED91FC911797D3
:102A500018968C91189791E0980F18969C93189758
:102A60009981E80FF11D908318969C9118971596FF
:102A70008C911597981708F4AACF1A96FC92EE92AB
:102A80001997A5CF2330310509F0A1CFF801258191
:102A900030E0C90143964981840F911D46815781D9
:102AA000FA01BF01641B750B6217730720F4619173
:102AB000860F911DF6CF811103C0C8010E94391302
:102AC000D80115961C92159716968D919C91179783
:102AD0000E946E30F80110861286118678CF0F9012
:102AE000DF91CF911F910F91FF90EF90DF90CF90EA
:102AF00008958F929F92AF92BF92CF92DF92EF9202
:102B0000FF920F931F93CF93DF9300D0CDB7DEB723
:102B10008C01962E61E0892D0E945D2E61E0892D49
:102B20000E94962E64E670E080E090E00E94572DAF
:102B300060E0892D0E94962E4AE0E42EF12C52E0AE
:102B4000A52EB12C88248A94F801138664E670E0DF
:102B500080E090E00E94572DC8010E94B811BA820F
:102B6000A982BE016F5F7F4FC8010E94F811F80172
:102B700083828482C8010E948A1261E0C8010E9497
:102B8000D41234E1C32ED12CC8010E94D514F8010F
:102B90008385811115C064E670E080E090E00E94BA
:102BA000572DF1E0CF1AD108C114D10469F7C8013B
:102BB0000E94D81181E0E81AF108E114F10421F62D
:102BC00061E0892D0E94962E0F900F90DF91CF919A
:102BD0001F910F91FF90EF90DF90CF90BF90AF903B
:102BE0009F908F900895CF93DF93EC018881998116
:102BF000DC01ED91FC910680F781E02D0995181616
:102C000019061CF00E942903F1CFDF91CF9108959E
:102C1000FC01A081B181FB018D919491891305C0C4
:102C200031968111F9CF81E0089580E00895CF9227
:102C3000DF92EF92FF920F931F93CF93DF93CDB765
:102C4000DEB727970FB6F894DEBF0FBECDBF8C015D
:102C5000BC01CE0101960E943205CE0101960E9470
:102C6000662C6B017C016115710581059105B1F43C
:102C700060E070E0CE0101960E94DE2BFC018081B5
:102C8000803361F08EEC91E0F80194838383BE0180
:102C90006F5F7F4FC80105960E94412BCE010196C0
:102CA0000E94BC2AC701B60127960FB6F894DEBF72
:102CB0000FBECDBFDF91CF911F910F91FF90EF908D
:102CC000DF90CF900895E0917403F091750380E058
:102CD00090E0309729F001960680F781E02DF9CF3A
:102CE0000895CF93DF93C0917403D091750320971B
:102CF000B1F06A817B8180EB94E00E94F1276CEA5D
:102D000072E080EB94E00E944B286C817D8180EB27
:102D100094E00E9468280E80DF81C02DE8CFDF910B
:102D2000CF9108950F931F93CF93DF938C01C091A0
:102D30007403D0917503209759F06A817B81C80193
:102D40000E940816811107C00E80DF81C02DF3CFCD
:102D500080E090E001C0CE01DF91CF911F910F91F3
:102D60000895EF92FF920F931F93CF93DF93CDB708
:102D7000DEB727970FB6F894DEBF0FBECDBF8C012C
:102D8000E62EFC01F280F11004C00E94F315F82E2B
:102D900002C0FC011282FE1431F16DEA72E0CE0134
:102DA00001960E942A2B6E2DCE0101960E94AC2B1B
:102DB00061EA72E0CE0101960E949C2B6F2DCE013C
:102DC00001960E94AC2B88E793E0F80194838383FB
:102DD000BE016F5F7F4FC80105960E94412BCE0157
:102DE00001960E94BC2A27960FB6F894DEBF0FBE4C
:102DF000CDBFDF91CF911F910F91FF90EF9008957C
:102E0000EF92FF920F931F93CF93DF938C01FC01FE
:102E1000E080F180E701BE016E197F09F80182812F
:102E2000938168177907E8F44AE050E080EB94E07A
:102E30000E9487296BEA72E080EB94E00E944B28A5
:102E4000499150E060E070E02AE030E080EB94E0EF
:102E50000E94F7286CEA72E080EB94E00E944B2815
:102E6000DACF80EB94E0DF91CF911F910F91FF902B
:102E7000EF900C945428AF92BF92CF92DF92EF92D2
:102E8000FF920F931F93CF93DF93CDB7DEB7659774
:102E90000FB6F894DEBF0FBECDBF80EB94E09A83EF
:102EA00089831B821D821C826DEA72E0CE01069628
:102EB0000E942A2BBE016F5F7F4FCE010D960E94AC
:102EC0003205CE010D960E9492167C01009709F4FE
:102ED00045C068E2CE0101960E94B1168C819D81A9
:102EE000892B09F040C1D701ED91FC910480F58157
:102EF000E02DBE016F5F7F4FC70109958C819D81D9
:102F0000892B09F030C169E2CE0101960E94B11609
:102F10008C819D81892B09F026C16BE3CE0101963E
:102F20000E94B1168C819D81892B09F01CC168E635
:102F300073E080EB94E00E94F127BE01635F7F4F56
:102F400080EB94E00E947A2866E573E0CE010D964E
:102F50000E940816882309F406C14DC16DE473E090
:102F6000CE010D960E940816882319F068E373E0DD
:102F7000C0C06FE273E0CE010D960E940816882350
:102F800049F06BE273E080EB94E00E94F12782E865
:102F900093E010C061E273E0CE010D960E94081626
:102FA000882359F06DE173E080EB94E00E94F127F3
:102FB0008EE793E00E940017D6C069E173E0CE016E
:102FC0000D960E9408168823A1F1CE0101960E9459
:102FD00017166B017C01CE0101960E941716162F61
:102FE000072F8C819D81892B09F0BDC0E0917E0364
:102FF000F0917F03EC0DFD1D108363E073E080EB27
:1030000094E00E94F1274AE050E0B60180EB94E0A2
:103010000E94412968EF72E080EB94E00E94F12762
:103020004AE050E0612F702F80EB94E00E94492924
:103030009AC062EF72E0CE010D960E9408168823B6
:10304000D9F1CE0101960E9417166B017C01CE01C9
:1030500001960E9417168B015C012C813D81232B68
:1030600009F081C0E0917E03F0917F03EC0DFD1D1E
:103070006083E0917E03F0917F03EC0DFD1D1183D1
:1030800065ED72E080EB94E00E94F1274AE050E0A9
:10309000B60180EB94E00E9441296AEC72E080EB7B
:1030A00094E00E94F1272AE030E0A801B50180EB0E
:1030B00094E00E94612957C065EC72E0CE010D9644
:1030C0000E9408168823D1F0BE016C5E7F4F80916C
:1030D000750590917605009711F489E795E0681BD6
:1030E000790B4AE050E080EB94E00E94412969EBC3
:1030F00072E080EB94E00E94682835C064EB72E0D7
:10310000CE010D960E940816882361F00E94631676
:103110004AE050E0BC0180EB94E00E9449290E9403
:10312000711621C060E070E0CE010D960E94DE2B8A
:10313000FC0180818F3309F462C060E070E0CE0151
:103140000D960E94DE2BDC018C91883609F457C065
:103150006AE072E0CE010D960E940816882379F18C
:10316000E0E0F0E009958C819D81892B09F445C050
:103170006EEE71E080EB94E00E94F1276C817D811E
:1031800080EB94E00E94F1276BEE71E080EB94E01D
:103190000E94F127BE016A5F7F4F80EB94E00E949E
:1031A000162866ED71E080EB94E00E94F127BE01E5
:1031B000635F7F4F80EB94E00E947A281EC064E03A
:1031C00072E0CE010D960E940816882319F16091D5
:1031D0008003709181034AE050E080EB94E00E940C
:1031E000492960918403709185034AE050E080EBA7
:1031F00094E00E94492910E019C011E017C06CE664
:1032000072E080EB94E00E9468280E94711661E1F0
:1032100072E06FCF88EF91E09D838C83BE01635F86
:103220007F4FCE0106960E94412B9DCFCE010D9679
:103230000E94BC2ACE0106960E94BC2A812F659668
:103240000FB6F894DEBF0FBECDBFDF91CF911F91B7
:103250000F91FF90EF90DF90CF90BF90AF900895C7
:103260000E94EC0240E051EE60E070E080EB94E000
:103270000E94932668EA71E080EB94E00E9468283F
:103280000E943B178111FCCF089527E331E0FC0138
:1032900031832083089527E331E0FC0131832083CB
:1032A0000C94802CCF93DF9387E391E09093770386
:1032B00080937603CEE7D3E0888199810E946E30B7
:1032C000198218821092810310928003C2E8D3E021
:1032D000888199810E946E3019821882109285032C
:1032E00010928403DF91CF910895CF93DF93EC0187
:1032F0008EEB92E0998388838FA598A9009721F09F
:103300000E946E3018AA1FA680E191E099838883FD
:10331000DF91CF910895CF93DF93EC010E9475194F
:10332000CE01DF91CF910C94802C80EB94E00E9431
:1033300054284AE050E06FEF7FEF80EB94E00E946A
:1033400049298EE390E00E947E2CFC018EEB92E0F6
:103350009183808380EB94E0958384839783868335
:10336000118E138E128E158E148E178E168E12AA33
:1033700011AA10AA17A613AA15AA14AA17AA16AA60
:1033800011AE10AE1092860313AE12AE15AE14AE8F
:10339000A8E0B3E08D919C91119793838283ED9384
:1033A000FC930895CF92DF92EF92FF920F931F93B9
:1033B000CF93DF931F92CDB7DEB78C017A016901FD
:1033C000F90120E030E0CF018C199D098E159F0591
:1033D00024F48191280F311DF6CFC701860F971F66
:1033E000820F931F44E0359527954A95E1F7820FA8
:1033F000931F8F70992720E1629F800D112489838C
:103400009FE0E916F10434F590EA9E0DD80112967A
:103410009C93F60120E030E02E153F054CF42F5F21
:103420003F4F9191D801A20FB31F12969C93F4CFF6
:10343000F801EE0DFF1D8383F80181919191BF0189
:10344000DC01ED91FC91A7014E5F5F4F0280F3819B
:10345000E02D2BC08FEAF8018283E382D8018D91A1
:103460009D91BD01DC01ED91FC910280F381E02D85
:1034700042E050E00995F80180819181DC01ED91F5
:10348000FC910280F381E02DA701B6010995F801B6
:1034900080819181DC01ED91FC910280F381E02D2E
:1034A00041E050E0BE016F5F7F4F09950F90DF91C3
:1034B000CF911F910F91FF90EF90DF90CF900895E3
:1034C000DF92EF92FF920F931F93CF93DF93EC0164
:1034D00088819981DC01ED91FC910480F581E02DDA
:1034E0000995892B09F49DC0F2E0EF2EA3E0FA2E96
:1034F0008E01045E1F4FDD24D3948A819B81DC0101
:10350000ED91FC910480F581E02D0995892B09F45A
:10351000ACC08A819B81DC01ED91FC910680F78132
:10352000E02D09958F3FBFEF9B0709F49EC01FA6B2
:103530002D89213001F130F0223079F1233009F466
:1035400046C06DC09C01207F3327203A3105A9F683
:10355000198E188E1B8E1A8E8F7099279F8B8E8BCB
:103560008F30910511F4DD8AC8CF892B71F1ED8A76
:103570001EA70DA7C2CF9F8B8E8BBC018BA59CA5D0
:103580000E94FD309CA78BA79EA78DA7ED8A8E89F0
:103590009F89892B09F0B1CF18C02A8D3B8D280F48
:1035A000391F3B8F2A8FEDA5FEA5288D398DE20F9F
:1035B000F31F8083888D998D0196998F888F2E892E
:1035C0003F89821793070CF498CFFD8A96CF1D8A06
:1035D0009C0154E0359527955A95E1F739AB28AB16
:1035E0004E895F896A8D7B8D8F709927240F351FD7
:1035F000260F371FE4E075956795EA95E1F7260FEA
:10360000371F2F7033278217930779F581E08FA733
:103610005BAB4AAB8DA59EA59DAB8CAB26C01D8A2E
:103620006CCF809110039091110328AD39ADAC019E
:10363000421B530B9A01293E3340A8F099AF88AF43
:103640001D8A1F8A1E8A198E188E1B8E1A8E2EEACC
:1036500032E044E050E060E070E0CE0102960E946B
:10366000D2191092860380E00EC08FA58823C9F27C
:10367000809110039091110399AF88AF9FAB8EABEF
:1036800081E080938603DF91CF911F910F91FF908E
:10369000EF90DF9008950F931F93CF93DF93EC018A
:1036A00004960E94601A882309F443C08CA99DA93E
:1036B0008C30910539F54EA95FA9809180039091D6
:1036C00081038E010A5F1F4F4817590739F023EB1A
:1036D00032E044E050E06EE070E012C068AD79ADD9
:1036E00080917E0390917F030E94F63120918203A6
:1036F0003091830340918403509185036CE070E026
:10370000C80111C00B9739F4E0E0F0E0DF91CF91F0
:103710001F910F91099428EB32E041E050E06EE0F8
:1037200070E0CE010696DF91CF911F910F910C941E
:10373000D219DF91CF911F910F91089510928303B9
:1037400010928203109285031092840310927F03DB
:1037500010927E03109281031092800382E893E01E
:10376000909379038093780384E993E090937B03AB
:1037700080937A03809174039091750390937D03F5
:1037800080937C03E6E7F3E0F0937503E093740322
:1037900088EC92E09183808308950C9452191F92D3
:1037A0000F920FB60F9211242F933F934F935F9375
:1037B0006F937F938F939F93AF93BF93EF93FF93F9
:1037C0008091880387FF05C01092850010928400C5
:1037D0001AC020918803332727FD309580918703F5
:1037E00090E0281739077CF480918803992787FD9A
:1037F0009095FC01EE0FFF1FE80FF91FE757FC4FF4
:10380000808186FD15C0809188038F5F8093880337
:1038100020918803332727FD30958091870390E01E
:1038200028173907BCF4809188038C305CF112C0F2
:1038300080918803992787FD9095FC01EE0FFF1F6B
:10384000E80FF91FE757FC4F808160E08F730E94FB
:10385000962ED9CF80918400909185000496803473
:103860009C4918F480E49CE905C080918400909103
:103870008500049690938900809388008FEF809351
:10388000880338C08091840090918500209188033E
:10389000332727FD3095F901EE0FFF1FE20FF31FCD
:1038A000E757FC4F21813281820F931F909389004B
:1038B0008093880080918803992787FD9095FC016B
:1038C000EE0FFF1FE80FF91FE757FC4F808186FFBF
:1038D00011C080918803992787FD9095FC01EE0F18
:1038E000FF1FE80FF91FE757FC4F808161E08F73DE
:1038F0000E94962EFF91EF91BF91AF919F918F9172
:103900007F916F915F914F913F912F910F900FBEDB
:103910000F901F901895209187032C30A0F431E070
:10392000320F30938703FC012083822F90E0FC014B
:10393000EE0FFF1FE80FF91FE757FC4F88EB9BE0E6
:103940009283818308952FEFFC0120830895DF92F5
:10395000EF92FF920F931F93CF93DF93EC01D62E3C
:103960007A01890188818C3008F066C061E08D2D74
:103970000E945D2E8881A82FB0E0FD01EE0FFF1F91
:10398000EA0FFB1FE757FC4F2D2D2F739081907C82
:10399000922B908360E272E06E197F0977FF02C07C
:1039A0006D5F7F4F7595679575956795698340E65F
:1039B00059E0401B510B57FF02C04D5F5F4F5595BB
:1039C0004795559547954A836CE00E94E72E9CE009
:1039D000899FB001112420E030E0A901460F571F54
:1039E000FA01EE0FFF1FE40FF51FE757FC4F908120
:1039F00096FD16C02F5F3F4F2C30310571F78111B6
:103A00000FC01092800082E08093810010928500A8
:103A100010928400B19A80916F00826080936F0051
:103A2000888190E0FC01EE0FFF1FE80FF91FE757B8
:103A3000FC4F8081806480838881DF91CF911F91CA
:103A40000F91FF90EF90DF90089520E639E040E27B
:103A500052E00C94A71CFC0120812C3008F03DC0E2
:103A6000318188E890E0831B910937FD9395880F99
:103A7000991F880F991F681779077CF0328188E5B4
:103A800092E0831B910937FD9395880F991F880F4A
:103A9000991F681779070CF4CB0102974FB7F89478
:103AA00030E0F901EE0FFF1FE20FF31FE757FC4F65
:103AB000AA2797FDA095BA2F64E0880F991FAA1F27
:103AC000BB1F6A95D1F773E0B695A7959795879533
:103AD0007A95D1F7928381834FBF08954F925F9279
:103AE0006F927F92AF92BF92CF92DF92EF92FF924E
:103AF0000F931F93CF93DF93EC01603282E078073E
:103B00000CF040C077FD06C0653B71052CF064EBFE
:103B100070E002C060E070E0898128E830E0281B96
:103B2000310987FD3395220F331F220F331F5901AF
:103B3000CC24B7FCC094DC2C882777FD8095982F87
:103B40002A8148E552E0421B510927FD5395440F55
:103B5000551F440F551F2A01662457FC6094762C8C
:103B60007F926F925F924F9214EBE12EF12C00E066
:103B700010E020E030E0A9010E94752A0F900F901C
:103B80000F900F90CE01DF91CF911F910F91FF9079
:103B9000EF90DF90CF90BF90AF907F906F905F904D
:103BA0004F900C942B1D2091EF033091F0032817B8
:103BB0003907B9F49091AD038091AE03981789F05D
:103BC000E091AD03F0E0E155FC4F80812091AD0321
:103BD00030E02F5F3F4F2F7333272093AD0390E0EA
:103BE00008958FEF9FEF08952091EF033091F00338
:103BF0002817390781F49091AD038091AE0398178F
:103C000051F0E091AD03F0E0E155FC4F8081992740
:103C100087FD909508958FEF9FEF08952091EF0312
:103C20003091F0032817390771F48091AE03209189
:103C3000AD0390E0805C9F4F821B910960E470E0CF
:103C40000E94072F089580E090E008952091EF03EF
:103C50003091F0032817390739F48FB7F894109290
:103C6000AE031092AD038FBF0895DC015196ED9124
:103C7000FC915297208150968C918095822380836D
:103C8000089520E001972FEF8F3F9207D9F708950D
:103C90002091EF033091F0032817390789F0FC01D8
:103CA000238D2E7F238F2FB7F8941092AE0310929E
:103CB000AD039093F0038093EF032FBF81E008954D
:103CC00080E00895EF92FF920F931F93CF93DF93BD
:103CD000EC018B8DEE85FF859D8581FF04C0808181
:103CE000892329F447C08081892309F043C08B8947
:103CF0009C890E94411E08E010E0EE24E394F12C20
:103D00008D899E890E94411EEE85FF8580819D855B
:103D1000892311F0FE2803C08E2D8095F822EE0C29
:103D2000015011090115110559F78F89988D0E94CD
:103D3000411E8B8D81FDF0948091AE032091AD03E7
:103D400090E001968F73992730E08217930779F0FE
:103D5000E091AE03F0E0E155FC4FF0828091AE03BC
:103D600090E001968F7399278093AE0303C08B8DEB
:103D700081608B8FDF91CF911F910F91FF90EF901A
:103D80000895611102C00C94351EDC015196ED912D
:103D9000FC915297208150968C91282B2083089576
:103DA000DF92EF92FF920F931F93CF93DF93EC017B
:103DB000E62E898D9A8D892B39F481E090E09B83E2
:103DC0008A8380E090E04DC0DFB6F8946B8D6695F5
:103DD0006170CE010E94C11E898D9A8D05960E9448
:103DE000411E8B8D08E010E0FF24F39481FF19C081
:103DF0008F2D8E2121F0CE010E94351E04C061E07E
:103E0000CE010E94C11E898D9A8D0E94411EFF0C19
:103E1000015011090115110559F7CE010E94351EF7
:103E200019C08F2D8E2129F061E0CE010E94C11EA4
:103E300003C0CE010E94351E898D9A8D0E94411EBD
:103E4000FF0C015011090115110559F761E0CE0170
:103E50000E94C11EDFBE898D9A8D0E94411E81E0A5
:103E600090E0DF91CF911F910F91FF90EF90DF9045
:103E700008958091EF039091F003009711F00C9456
:103E8000621E08951F920F920FB60F9211242F9366
:103E90003F934F935F936F937F938F939F93AF93D2
:103EA000BF93EF93FF930E94391FFF91EF91BF9152
:103EB000AF919F918F917F916F915F914F913F91C2
:103EC0002F910F900FBE0F901F9018951F920F9279
:103ED0000FB60F9211242F933F934F935F936F93DD
:103EE0007F938F939F93AF93BF93EF93FF930E9422
:103EF000391FFF91EF91BF91AF919F918F917F916A
:103F00006F915F914F913F912F910F900FBE0F9046
:103F10001F9018951F920F920FB60F9211242F9396
:103F20003F934F935F936F937F938F939F93AF9341
:103F3000BF93EF93FF930E94391FFF91EF91BF91C1
:103F4000AF919F918F917F916F915F914F913F9131
:103F50002F910F900FBE0F901F9018951F93CF9326
:103F6000DF93EC01162F61E0812F0E945D2E61E04E
:103F7000812F0E94962E812F90E0FC01EA5BFB4F7F
:103F8000E491E88BFC01E65AFB4FE491F0E0EE0F80
:103F9000FF1FE858FB4F859194919A8B898BDF9195
:103FA000CF911F9108951F93CF93DF93EC01162FAC
:103FB00060E0812F0E945D2E8B8D81FD04C061E049
:103FC000812F0E94962E1C87812F90E0FC01EA5BD6
:103FD000FB4FE491ED87FC01E65AFB4FE491F0E0E2
:103FE000EE0FFF1FE259FB4F859194919F878E87BB
:103FF000DF91CF911F910895FF920F931F93CF935D
:10400000DF93EC01F62E522F1B821A8208EE13E08A
:1040100020E030E00C831D832E833F8382ED92E00D
:10402000998388831C8A1B8A1E8A1D8A188E1F8A80
:104030001A8E198E8B8D8E7F50FB81F98B8F642F9A
:10404000CE010E94AE1F6F2DCE01DF91CF911F9147
:104050000F91FF900C94D31F0F931F93CF93DF9377
:10406000EC011A8E198E188E1F8A1E8A1D8AA5E9E8
:10407000B3E080E090E0FD01059115912591349128
:10408000041715072607370719F54CE0489F9001DC
:10409000499F300D1124F901E756FC4F8591949109
:1040A0009C8B8B8BF901E556FC4F859194919E8BEF
:1040B0008D8BF901E356FC4F85919491988F8F8BEE
:1040C00021563C4FF901859194919A8F898F08C0B0
:1040D00001961C968D30910509F0CDCF1C8A1B8A64
:1040E0008F89988D892B09F443C08C858631E0F542
:1040F00020916800883050F091E08E3008F490E014
:1041000081E001C0880F9A95EAF701C084E0822B14
:10411000809368002C85283038F02E3040F026310E
:1041200048F0E0E0F0E008C0EDE6F0E005C0EBE6C6
:10413000F0E002C0ECE6F0E03081283030F481E0BD
:1041400001C0880F2A95EAF70DC0822F90E02E302B
:1041500010F4089701C00E9791E001C0990F8A955D
:10416000EAF7892F832B8083898D9A8D0E94411EC7
:10417000CE01DF91CF911F910F910C94481E809139
:10418000200490E020912104821B91090895209140
:10419000210480912004281750F4E22FF0E0EE5D16
:1041A000FB4F808190E02F5F2093210408958FEFD3
:1041B0009FEF0895E091210480912004E81730F4E6
:1041C000F0E0EE5DFB4F808190E008958FEF9FEF70
:1041D00008950895CF92DF92EF92FF920F931F936D
:1041E000CF93DF937C01CB018A012091FD03222331
:1041F00089F0EB016B01C40ED51ECC15DD0569F00D
:104200006991D701ED91FC910190F081E02DC701FA
:104210000995F3CF642F0E940E22C801DF91CF9140
:104220001F910F91FF90EF90DF90CF900895CF9363
:10423000DF931F92CDB7DEB769832091FD03222360
:10424000D1F02091FE03203240F021E030E0FC016B
:104250003383228380E090E015C08091FF03E82F34
:10426000F0E0E050FC4F998190838F5F8093FF03D3
:104270008093FE0305C061E0CE0101960E940E22EC
:1042800081E090E00F90DF91CF910895FC011382BF
:10429000128248EE53E060E070E044835583668309
:1042A000778382EE92E091838083089510922104B7
:1042B000109220041092FF031092FE030C947321BD
:1042C000862F413208F040E262E274E00E949121C0
:1042D000109221048093200408950C94602181EFB2
:1042E00093E00C9446211092AF0481E08093AD04DA
:1042F0001092AC0461E082E10E94962E61E083E1BD
:104300000E94962EE9EBF0E080818E7F8083808191
:104310008D7F808388E48093B80085E48093BC001F
:1043200008959F92AF92BF92CF92DF92EF92FF9249
:10433000CF93DF93A82ED62FC72FB42E922E80E2D4
:10434000841710F480E060C00E94272D6B017C016F
:104350008091AF04882361F00E94272D6C197D099C
:104360008E099F096B3071058105910588F3EACFAD
:1043700091E09093AF049092AD048FEF809342044C
:10438000109287048B0D809386049093AE049091D5
:10439000AE048A2D880F892B8093AE048091AC04E3
:1043A000813041F41092AC048091AE048093BB0044
:1043B00085EC01C085EE8093BC000E94272D6B0127
:1043C0007C018091AF04813061F40E94272D6C192B
:1043D0007D098E099F096B3071058105910588F370
:1043E000B1CF809187048B1510F4B090870488E8D2
:1043F00094E0ED2FFC2FDC012A2F281B2B1518F43D
:104400002D912193F9CF8B2DDF91CF91FF90EF90DC
:10441000DF90CF90BF90AF909F900895613298F455
:104420002091AF04243089F460936404FC0186E693
:1044300094E0DC012A2F281B261718F421912D93D4
:10444000F9CF80E0089581E0089582E0089585ED38
:104450008093BC008091BC0084FDFCCF1092AF041F
:10446000089585EC8093BC001092AF0408951F92CC
:104470000F920FB60F9211242F933F934F935F9398
:104480006F937F938F939F93AF93BF93EF93FF931C
:104490008091B900887F803609F49CC068F5883225
:1044A00009F45BC090F4803109F454C038F48823D7
:1044B00009F4F5C0883009F44DC0F5C0883109F41D
:1044C0004CC0803209F45DC0EEC0803409F468C08D
:1044D00048F4803309F455C0883309F0E4C0809370
:1044E0004204A8C0803509F44FC0883509F45DC086
:1044F000883409F0D8C0D5C0883909F4C6C0A8F4FA
:10450000883709F467C038F4883609F463C0803707
:1045100009F460C0C8C0883809F4B7C0803909F40C
:104520005FC0803809F0BFC05BC0803B09F485C024
:1045300038F4803A09F466C0883A09F47EC0B3C002
:10454000803C09F4A6C0883C09F4A3C0883B09F468
:1045500089C0A9C08091AE0410C090918704809159
:104560008604981770F5E091870481E08E0F8093A0
:104570008704F0E0E857FB4F80818093BB0085EC17
:1045800085C0809342048DC0E091870481E08E0F46
:10459000809387048091BB00F0E0E857FB4F808355
:1045A00090918704809186046DC0E091870481E03A
:1045B0008E0F809387048091BB00F0E0E857FB4F9B
:1045C00080838091AD0481116CC081E08093AC0444
:1045D00084EA60C083E08093AF0410924304CFCF9D
:1045E00080914304803208F050C0E091430481E0A0
:1045F0008E0F809343048091BB00F0E0EC5BFB4F97
:104600008083BDCF80914304803230F4E091430435
:10461000F0E0EC5BFB4F10820E9427226091430484
:1046200070E0E091A804F091A90484E494E0099575
:10463000109243040E94312236C084E08093AF047C
:104640001092650410926404E091AA04F091AB0406
:10465000099580916404811105C081E08093640410
:1046600010926604E091650481E08E0F80936504EA
:10467000F0E0EA59FB4F80818093BB009091650484
:1046800080916404981708F47ACF85E88093BC0081
:104690000AC085EC8093BC001092AF0404C0109255
:1046A00042040E942722FF91EF91BF91AF919F9109
:1046B0008F917F916F915F914F913F912F910F90CB
:1046C0000FBE0F901F901895CF93DF93EC01888554
:1046D0009985009711F00E946E308E8187FD05C08C
:1046E00060E0DF91CF910C945D2EDF91CF91089522
:1046F000CF93DF93EC018E8187FD07C061E00E94BC
:104700005D2E60E08E810E94962E81E08983DF918C
:10471000CF910895EF92FF920F931F93CF93DF9362
:10472000EC017B0188859985009711F00E946E301D
:104730009D858A85981303C083E090E002C084E0E1
:1047400090E08E9D80018F9D100D9E9D100D112477
:104750001D830C83C8010E94D62F998788870097F4
:1047600041F0A80160E070E00E94FF31FB82EA8224
:1047700004C01D821C821B821A82DF91CF911F917F
:104780000F91FF90EF900895FC0141E0958582859F
:10479000981340E0562F529556955695537055876D
:1047A000862F90E09C0174E0359527957A95E1F786
:1047B0002370228795958795959587958370838734
:1047C0006370648781E0808380859185892B51F0B7
:1047D00081E0521380E0841729F062817381CF0158
:1047E0000C948A230895CF92DF92EF92FF920F9359
:1047F0001F93CF93DF93CDB7DEB729970FB6F89409
:10480000DEBF0FBECDBF8C01DC0118968D919C914F
:104810001997892B09F49AC00E94332DF801C68498
:10482000D784E088F1886C197D098E099F0962336D
:1048300071058105910580F3F894848195819A83AF
:104840008983A085B1857D01EFEFEE1AFE0A8C9178
:104850008987D8019C9152960D90BC91A02DF801AA
:104860008489992309F42EC09C91982B98879C9158
:10487000809589238F838F818E8388E08D835885EF
:104880006F8149853D812E8189819A81F7015C93F1
:1048900047FD252F3A952C93262F39F0441F00C051
:1048A00000006C93000000C0F2CF38E041916C939F
:1048B0000000019761F7F801B38BA28B49873D8314
:1048C0002E8338C09C91982B98879C918095892342
:1048D0008F838F818C8388E08B8358856F81498596
:1048E0003B812C8189819A81F7015C9347FD252FBB
:1048F00000C000C02C9300C000C000C000C000C0B9
:104900006C930000262F3A9541F0441F000000C030
:1049100000C000C000C000C0E8CF38E0419100C036
:104920006C9300C0019709F7F801B38BA28B4987FC
:104930003B832C839A83898378940E94332DD801FA
:104940001E966D937D938D939C93519729960FB6E8
:10495000F894DEBF0FBECDBFDF91CF911F910F91B5
:10496000FF90EF90DF90CF9008951F93CF93DF9348
:10497000EC01162F8981882331F08E8187FD03C0D9
:1049800060E00E945D2E1E838981882341F061E0F2
:10499000812F0E945D2E60E0812F0E94962E812F34
:1049A00090E0FC01E65AFB4FE491F0E0EE0FFF1FB0
:1049B000E858FB4F259134913B8B2A8BFC01EA5B35
:1049C000FB4F84918C8BDF91CF911F910895EF92D3
:1049D000FF920F931F93CF93DF931F92CDB7DEB754
:1049E0007C018B01FC0111821782118610861686CC
:1049F0001786108A118A622F49830E94C423B80146
:104A0000C7010E948A234981642FC7010F90DF915B
:104A1000CF911F910F91FF90EF900C94B524CF92FE
:104A2000DF92EF92FF920F931F93CF93DF93FC01DE
:104A3000828193816817790708F04DC0CA01AA27BF
:104A4000BB27182FC32ED42EE52EFF24DC2DC22F1A
:104A50000781002361F0809FC0011124192FC09E9F
:104A600060011124DD2D209FC0011124C92FF58480
:104A70008285A085B185F81208C0CB01880F991FE7
:104A8000860F971F8A0F9B1F17C0CB01880F991F96
:104A9000880F991F8A0F9B1F452F55276627772759
:104AA000DC01AF0DB11D002329F0409F90011124BE
:104AB000232F01C0242F2C932285DC01A20FB11DCE
:104AC0001C932385DC01A20FB11DDC932485FC011E
:104AD000E20FF11DC083DF91CF911F910F91FF90E5
:104AE000EF90DF90CF900895962F50E060E070E057
:104AF000592B682BCB01BA010895FC01248535851B
:104B0000F901E05CFF4F80819181F901EE5BFF4F7D
:104B100020813181821B930B8F7399270895FC01AB
:104B200084859585FC01E05CFF4F40815181FC014B
:104B3000EE5BFF4F208131814217530741F0019016
:104B4000F081E02DE80FF91F808190E008958FEF4C
:104B50009FEF0895FC0184859585FC01E05CFF4F83
:104B600040815181FC01EE5BFF4F20813181421772
:104B7000530779F0A081B181A80FB91F8C912081D2
:104B800031812F5F3F4F2F7333273183208390E094
:104B900008958FEF9FEF0895FC0181A1882329F0EC
:104BA000A489B5898C9186FFFBCF11A20895CF937C
:104BB000DF93FC0126853785D901A05CBF4F8D911D
:104BC0009C91119701968F739927E901CE5BDF4F76
:104BD0004881598184179507D9F30D90BC91A02D78
:104BE000A20FB31F6C93A685B785A05CBF4F11962B
:104BF0009C938E93A689B7892C9181E090E0078CD5
:104C000002C0880F991F0A94E2F7282B2C9381E0A9
:104C100081A30488F589E02D80818064808381E010
:104C200090E0DF91CF91089508951F920F920FB6F3
:104C30000F9211242F933F934F938F939F93EF9352
:104C4000FF938091C00082FD1CC04091C6008091FE
:104C500056059091570501968F7399272091580515
:104C6000309159058217930771F0E0915605F09144
:104C70005705EA5EFA4F4083909357058093560597
:104C800002C08091C600FF91EF919F918F914F914B
:104C90003F912F910F900FBE0F901F90189580EBB2
:104CA00094E00E947D25892B11F00C941426089520
:104CB0001F920F920FB60F9211242F933F938F9351
:104CC0009F93EF93FF9320911205309113058091EC
:104CD0001405909115052817390731F48091C1000A
:104CE0008F7D8093C10014C0E0911405F0911505EB
:104CF000EE52FB4F2081809114059091150501968D
:104D00008F73992790931505809314052093C600FF
:104D1000FF91EF919F918F913F912F910F900FBE37
:104D20000F901F901895CF92DF92EF92FF92CF9342
:104D3000DF93EC016A017B01411581EE58076105A3
:104D40007105F9F0EC89FD8981E090E008A002C0CE
:104D5000880F991F0A94E2F7808360E079E08DE381
:104D600090E0A70196010E941B2F215031094109B3
:104D700051095695479537952795211580E13807B4
:104D800098F0EC89FD89108260E874E88EE190E08B
:104D9000A70196010E941B2F215031094109510999
:104DA0005695479537952795E889F9893083EA899B
:104DB000FB89208319A2EE89FF89408181E090E080
:104DC0009C010C8C02C0220F331F0A94E2F7422B85
:104DD0004083EE89FF8940819C010D8C02C0220F27
:104DE000331F0A94E2F7422B4083EE89FF8940810A
:104DF0009C010E8C02C0220F331F0A94E2F7422B53
:104E00004083EE89FF8920810F8C02C0880F991F93
:104E10000A94E2F7809582238083DF91CF91FF90FF
:104E2000EF90DF90CF9008951092B3041092B204E7
:104E300088EE93E0A0E0B0E08093B4049093B504D2
:104E4000A093B604B093B70482EF92E09093B104BC
:104E50008093B00486E195E09093BD048093BC04F8
:104E600082ED94E09093BF048093BE0485EC90E0C3
:104E70009093C1048093C00484EC90E09093C304A9
:104E80008093C20480EC90E09093C5048093C404A6
:104E900081EC90E09093C7048093C60482EC90E08C
:104EA0009093C9048093C80486EC90E09093CB045F
:104EB0008093CA0484E08093CC0483E08093CD0483
:104EC00087E08093CE0485E08093CF0481E08093D7
:104ED000D0040895AF92BF92CF92DF92EF92FF92EB
:104EE0000F931F93CF93DF936C017B01C0E0D0E061
:104EF00000E010E0F601EC0FFD1F4AE050E0628197
:104F0000C7010E9480295C016EE2C7010E944D2802
:104F10008A0D9B1D080F191F2196C330D10551F72B
:104F20004AE050E0F6016581C7010E948029800FA8
:104F3000911FDF91CF911F910F91FF90EF90DF9024
:104F4000CF90BF90AF90089582E093E090935B057F
:104F500080935A0510925C0510925D0510925E05D3
:104F600010925F050895CF92DF92EF92FF920F9318
:104F70001F93CF93DF936C017A01EB01E60EF71ECE
:104F800000E010E0CE15DF0561F06991D601ED91EA
:104F9000FC910190F081E02DC6010995080F191FC1
:104FA000F1CFC801DF91CF911F910F91FF90EF904A
:104FB000DF90CF9008956115710581F0DB010D90B0
:104FC0000020E9F7AD0141505109461B570BDC01A8
:104FD000ED91FC910280F381E02D099480E090E056
:104FE0000895EF92FF920F931F93CF93DF938C015D
:104FF000FB01C0E0D0E064917F018FEFE81AF80A6E
:10500000662361F0D801ED91FC910190F081E02DD3
:10501000C8010995C80FD91FF701EDCFCE01DF9167
:10502000CF911F910F91FF90EF900895AF92BF9293
:10503000CF92DF92EF92FF920F931F93CF93DF9364
:105040007C016B01C0E0D0E000E010E0D6011496D6
:105050008D919C911597C817D90788F4D701ED91C8
:10506000FC91A080B180BE01C6010E94F02B682F88
:10507000C701F5010995080F191F2196E7CFC8014F
:10508000DF91CF911F910F91FF90EF90DF90CF9024
:10509000BF90AF9008950C94DB27DC01ED91FC915B
:1050A0000190F081E02D09940F931F93CF93DF932C
:1050B000EC016DE00E944D288C016AE0CE010E9457
:1050C0004D28800F911FDF91CF911F910F9108956F
:1050D0000F931F93CF93DF93EC010E94F1278C0174
:1050E000CE010E945428800F911FDF91CF911F9114
:1050F0000F9108950F931F93CF93DF93EC010E94BC
:1051000016288C01CE010E945428800F911FDF9138
:10511000CF911F910F9108950F931F93CF93DF931A
:10512000EC010E94DB278C01CE010E945428800FE5
:10513000911FDF91CF911F910F9108958F929F92B0
:10514000AF92BF92CF92DF92EF92FF920F931F9395
:10515000CF93DF93CDB7DEB7A1970FB6F894DEBF3C
:105160000FBECDBF7C01C42EE52FCB01D22E19A2DC
:1051700021E02D1510F02AE0D22E8E010F5D1F4F79
:105180008D2C912CA12CB12C6C2D7E2FA50194017E
:105190000E941B2F8C2DD29E8019112401501109C1
:1051A0008A3014F4805D01C0895CF8018083211588
:1051B00031054105510521F0C22EE32FCA01E4CF8C
:1051C000B801C7010E94DB27A1960FB6F894DEBF95
:1051D0000FBECDBFDF91CF911F910F91FF90EF9048
:1051E000DF90CF90BF90AF909F908F900895CF9217
:1051F000DF92EF92FF920F931F93CF93DF93EC0117
:105200006A017B012115310579F4E881F98101906A
:10521000F081E02D642FDF91CF911F910F91FF90CE
:10522000EF90DF90CF9009942A303105E9F477FFB1
:105230001AC06DE20E944D288C0144275527BA01FF
:105240004C195D096E097F092AE0CE010E949E2853
:10525000800F911FDF91CF911F910F91FF90EF90E1
:10526000DF90CF9008952AE0B701A601CE01DF912B
:10527000CF911F910F91FF90EF90DF90CF900C9402
:105280009E289A01AB01662757FD6095762F0C94F6
:10529000F7280F931F93CF93DF93EC019A01AB0193
:1052A000662757FD6095762F0E94F7288C01CE0166
:1052B0000E945428800F911FDF91CF911F910F9171
:1052C00008950F931F93CF93DF93EC010E94F7286B
:1052D0008C01CE010E945428800F911FDF91CF9145
:1052E0001F910F9108952115310541F4DC01ED91D5
:1052F000FC910190F081E02D642F09940C949E287C
:105300009A01462F50E060E070E00C9473299A01F6
:10531000AB0160E070E00C9473290F931F93CF935F
:10532000DF93EC010E94272D688779878A879B8706
:10533000E881F9810680F781E02DCE01099597FF7C
:1053400015C00E94272D088519852A853B85601B7D
:10535000710B820B930B0C811D812E813F81601795
:1053600071078207930720F38FEF9FEFDF91CF91B3
:105370001F910F910895FC014483558366837783C1
:105380000895CF92DF92EF92FF920F931F93CF93E6
:10539000DF937C016A01EB0100E010E00C151D05B4
:1053A00049F0C7010E948D2997FD04C089930F5FC2
:1053B0001F4FF4CFC801DF91CF911F910F91FF9044
:1053C000EF90DF90CF900895813039F018F082305F
:1053D00051F0089510926E00089580916F008D7FB6
:1053E00080936F000895809170008D7F809370008E
:1053F00081E08093B0008091B100887F84608093C9
:10540000B1001092B3000895CF93C82F80910A0184
:105410008C1307C0E1E3F4E084919FEF90930A01BD
:1054200001C08FEF0E94E42960E08C2FCF910C9493
:10543000962E1F920F920FB60F9211242F933F9327
:105440004F935F936F937F938F939F93AF93BF938C
:10545000EF93FF938091630590916405A09165059A
:10546000B0916605892B8A2B8B2B51F190916005A9
:10547000E0916105F09162058081892780838091A8
:10548000630590916405A0916505B09166051816B5
:1054900019061A061B06C4F48091630590916405F1
:1054A000A0916505B09166050197A109B1098093A6
:1054B000630590936405A0936505B093660504C0E9
:1054C00080910A010E94042AFF91EF91BF91AF9150
:1054D0009F918F917F916F915F914F913F912F910C
:1054E0000F900FBE0F901F9018954F925F926F9282
:1054F0007F92AF92BF92CF92DF92EF92FF920F9383
:105500001F93CF93DF93CDB7DEB729013A01621B1A
:10551000730B840B950B29893A894B895C892A196D
:105520003B094C095D09298B3A8B4B8B5C8B9B01AA
:10553000AC0169897A898B899C890E94D72EE418ED
:10554000F50806091709A80197010E943D2F2A0DA9
:105550003B1D4C1D5D1DCA01B901DF91CF911F910B
:105560000F91FF90EF90DF90CF90BF90AF907F9022
:105570006F905F904F900895FC01808191810C9411
:105580006E30CF93DF93EC0188819981009711F001
:105590000E946E30198218821D821C821B821A8220
:1055A000DF91CF9108950F931F93CF93DF93EC0179
:1055B0008B016F5F7F4F888199810E94FD3000973A
:1055C00031F0998388831B830A8381E001C080E0E6
:1055D000DF91CF911F910F910895CF93DF93EC014D
:1055E00088819981892B29F08A819B818617970769
:1055F00060F4CE010E94D32A882341F08C819D81E2
:10560000892B19F4E881F981108281E0DF91CF9133
:105610000895EF92FF920F931F93CF93DF93EC01C6
:105620007B018A01BA010E94ED2A811104C0CE01DA
:105630000E94C12A07C01D830C83B701888199810C
:105640000E940F32CE01DF91CF911F910F91FF90F9
:10565000EF900895FC01118210821382128215824C
:10566000148216826115710559F0FB01019000202A
:10567000E9F7AF0141505109461B570B0C94092B18
:105680000895CF93DF93EC01FB018617970761F034
:10569000608171816115710529F0448155810E94F5
:1056A000092B02C00E94C12ACE01DF91CF9108953B
:1056B000CF93DF93EC016115710561F0FB0101905F
:1056C0000020E9F7AF0141505109461B570B0E94DA
:1056D000092B02C00E94C12ACE01DF91CF9108950B
:1056E000EF92FF920F931F93CF93DF93EC017B0117
:1056F0000C811D816115710511F480E016C0411502
:10570000510591F0040F151FB8010E94ED2A88235E
:10571000A1F3288139818C819D81B701820F931F6C
:105720000E940F321D830C8381E0DF91CF911F9186
:105730000F91FF90EF9008956115710559F0FB01ED
:1057400001900020E9F7AF0141505109461B570B6A
:105750000C94702B80E00895CF93DF9300D0CDB7E9
:10576000DEB769831A8241E050E0BE016F5F7F4F70
:105770000E94702B0F900F90DF91CF910895FC0144
:1057800024813581232B31F421E061157105A1F0CD
:10579000FB0108C0FC01808191816115710531F424
:1057A00021E0FC018081882339F005C00E94063287
:1057B00021E0892B09F020E0822F0895FC018481EB
:1057C00095816817790720F480819181009729F4E9
:1057D0001092670587E695E00895860F971F089554
:1057E000FC01248135816217730748F4808191811F
:1057F000009729F0FC01E60FF71F8081089580E0F3
:105800000895BF92CF92DF92EF92FF920F931F9372
:10581000CF93DF936C017B01EA01890124173507DF
:1058200020F48D2FE901042F182F6DEA72E0C601D4
:105830000E942A2BD70114968D919C9115978C1755
:105840009D07C8F08017910708F48C01D701ED91EE
:10585000FC911197E00FF11FB08010826D917C9147
:105860006C0F7D1FC6010E94582BD701ED91FC9152
:10587000E00FF11FB082C601DF91CF911F910F9110
:10588000FF90EF90DF90CF90BF900895CF93DF937C
:10589000EC01FB01248135810E94012CCE01DF91B6
:1058A000CF910895CF93DF93FC01C081D1812097E0
:1058B00051F08881882339F0992787FD90950E94BF
:1058C000EE318993F6CFDF91CF910895FC0180816D
:1058D0009181009711F00C94C73160E070E0CB012A
:1058E00008950E947D2D0E94AC0CCFE4D6E20E9468
:1058F000AE0C2097E1F30E944F26F9CF0C94D62FDF
:105900000C946E3008951F920F920FB60F921124CF
:105910002F933F934F935F936F937F938F939F93B7
:10592000AF93BF93EF93FF938091680590916905C2
:10593000892B29F0E0916805F09169050995FF919F
:10594000EF91BF91AF919F918F917F916F915F91F7
:105950004F913F912F910F900FBE0F901F90189570
:105960001F920F920FB60F9211242F933F934F93D4
:105970005F936F937F938F939F93AF93BF93EF93B7
:10598000FF9380916A0590916B05892B29F0E09136
:105990006A05F0916B050995FF91EF91BF91AF9169
:1059A0009F918F917F916F915F914F913F912F9137
:1059B0000F900FBE0F901F9018951F920F920FB669
:1059C0000F9211242F933F938F939F93AF93BF9385
:1059D00080916D0590916E05A0916F05B091700555
:1059E00030916C0523E0230F2D3720F40196A11D83
:1059F000B11D05C026E8230F0296A11DB11D2093FD
:105A00006C0580936D0590936E05A0936F05B09320
:105A100070058091710590917205A0917305B09108
:105A200074050196A11DB11D8093710590937205B7
:105A3000A0937305B0937405BF91AF919F918F911F
:105A40003F912F910F900FBE0F901F9018952FB779
:105A5000F89460916D0570916E0580916F0590913D
:105A600070052FBF08953FB7F8948091710590910C
:105A70007205A0917305B091740526B5A89B02C06C
:105A80002F3F89F43FBF6627782F892F9A2F620F07
:105A9000711D811D911D42E0660F771F881F991FA0
:105AA0004A95D1F708950196A11DB11DEBCFCF9274
:105AB000DF92EF92FF92CF93DF936B017C010E9404
:105AC000332DEB01C114D104E104F10479F00E94FB
:105AD000332D6C1B7D0B683E7340A0F381E0C81A28
